{
  "contractName": "RareBlocks",
  "abi": [
    {
      "inputs": [],
      "stateMutability": "nonpayable",
      "type": "constructor"
    },
    {
      "anonymous": false,
      "inputs": [
        {
          "indexed": true,
          "internalType": "address",
          "name": "owner",
          "type": "address"
        },
        {
          "indexed": true,
          "internalType": "address",
          "name": "approved",
          "type": "address"
        },
        {
          "indexed": true,
          "internalType": "uint256",
          "name": "tokenId",
          "type": "uint256"
        }
      ],
      "name": "Approval",
      "type": "event"
    },
    {
      "anonymous": false,
      "inputs": [
        {
          "indexed": true,
          "internalType": "address",
          "name": "owner",
          "type": "address"
        },
        {
          "indexed": true,
          "internalType": "address",
          "name": "operator",
          "type": "address"
        },
        {
          "indexed": false,
          "internalType": "bool",
          "name": "approved",
          "type": "bool"
        }
      ],
      "name": "ApprovalForAll",
      "type": "event"
    },
    {
      "anonymous": false,
      "inputs": [
        {
          "indexed": true,
          "internalType": "address",
          "name": "_address",
          "type": "address"
        },
        {
          "indexed": false,
          "internalType": "uint256",
          "name": "tokenId",
          "type": "uint256"
        }
      ],
      "name": "Mint",
      "type": "event"
    },
    {
      "anonymous": false,
      "inputs": [
        {
          "indexed": true,
          "internalType": "address",
          "name": "previousOwner",
          "type": "address"
        },
        {
          "indexed": true,
          "internalType": "address",
          "name": "newOwner",
          "type": "address"
        }
      ],
      "name": "OwnershipTransferred",
      "type": "event"
    },
    {
      "anonymous": false,
      "inputs": [
        {
          "indexed": false,
          "internalType": "address",
          "name": "account",
          "type": "address"
        }
      ],
      "name": "Paused",
      "type": "event"
    },
    {
      "anonymous": false,
      "inputs": [
        {
          "indexed": true,
          "internalType": "address",
          "name": "from",
          "type": "address"
        },
        {
          "indexed": true,
          "internalType": "address",
          "name": "to",
          "type": "address"
        },
        {
          "indexed": true,
          "internalType": "uint256",
          "name": "tokenId",
          "type": "uint256"
        }
      ],
      "name": "Transfer",
      "type": "event"
    },
    {
      "anonymous": false,
      "inputs": [
        {
          "indexed": false,
          "internalType": "address",
          "name": "account",
          "type": "address"
        }
      ],
      "name": "Unpaused",
      "type": "event"
    },
    {
      "inputs": [
        {
          "internalType": "address",
          "name": "to",
          "type": "address"
        },
        {
          "internalType": "uint256",
          "name": "tokenId",
          "type": "uint256"
        }
      ],
      "name": "approve",
      "outputs": [],
      "stateMutability": "nonpayable",
      "type": "function"
    },
    {
      "inputs": [
        {
          "internalType": "address",
          "name": "owner",
          "type": "address"
        }
      ],
      "name": "balanceOf",
      "outputs": [
        {
          "internalType": "uint256",
          "name": "",
          "type": "uint256"
        }
      ],
      "stateMutability": "view",
      "type": "function",
      "constant": true
    },
    {
      "inputs": [
        {
          "internalType": "uint256",
          "name": "tokenId",
          "type": "uint256"
        }
      ],
      "name": "getApproved",
      "outputs": [
        {
          "internalType": "address",
          "name": "",
          "type": "address"
        }
      ],
      "stateMutability": "view",
      "type": "function",
      "constant": true
    },
    {
      "inputs": [
        {
          "internalType": "address",
          "name": "owner",
          "type": "address"
        },
        {
          "internalType": "address",
          "name": "operator",
          "type": "address"
        }
      ],
      "name": "isApprovedForAll",
      "outputs": [
        {
          "internalType": "bool",
          "name": "",
          "type": "bool"
        }
      ],
      "stateMutability": "view",
      "type": "function",
      "constant": true
    },
    {
      "inputs": [],
      "name": "name",
      "outputs": [
        {
          "internalType": "string",
          "name": "",
          "type": "string"
        }
      ],
      "stateMutability": "view",
      "type": "function",
      "constant": true
    },
    {
      "inputs": [],
      "name": "openMintIsActive",
      "outputs": [
        {
          "internalType": "bool",
          "name": "",
          "type": "bool"
        }
      ],
      "stateMutability": "view",
      "type": "function",
      "constant": true
    },
    {
      "inputs": [],
      "name": "owner",
      "outputs": [
        {
          "internalType": "address",
          "name": "",
          "type": "address"
        }
      ],
      "stateMutability": "view",
      "type": "function",
      "constant": true
    },
    {
      "inputs": [
        {
          "internalType": "uint256",
          "name": "tokenId",
          "type": "uint256"
        }
      ],
      "name": "ownerOf",
      "outputs": [
        {
          "internalType": "address",
          "name": "",
          "type": "address"
        }
      ],
      "stateMutability": "view",
      "type": "function",
      "constant": true
    },
    {
      "inputs": [],
      "name": "paused",
      "outputs": [
        {
          "internalType": "bool",
          "name": "",
          "type": "bool"
        }
      ],
      "stateMutability": "view",
      "type": "function",
      "constant": true
    },
    {
      "inputs": [],
      "name": "preMintIsActive",
      "outputs": [
        {
          "internalType": "bool",
          "name": "",
          "type": "bool"
        }
      ],
      "stateMutability": "view",
      "type": "function",
      "constant": true
    },
    {
      "inputs": [],
      "name": "renounceOwnership",
      "outputs": [],
      "stateMutability": "nonpayable",
      "type": "function"
    },
    {
      "inputs": [
        {
          "internalType": "address",
          "name": "from",
          "type": "address"
        },
        {
          "internalType": "address",
          "name": "to",
          "type": "address"
        },
        {
          "internalType": "uint256",
          "name": "tokenId",
          "type": "uint256"
        }
      ],
      "name": "safeTransferFrom",
      "outputs": [],
      "stateMutability": "nonpayable",
      "type": "function"
    },
    {
      "inputs": [
        {
          "internalType": "address",
          "name": "from",
          "type": "address"
        },
        {
          "internalType": "address",
          "name": "to",
          "type": "address"
        },
        {
          "internalType": "uint256",
          "name": "tokenId",
          "type": "uint256"
        },
        {
          "internalType": "bytes",
          "name": "_data",
          "type": "bytes"
        }
      ],
      "name": "safeTransferFrom",
      "outputs": [],
      "stateMutability": "nonpayable",
      "type": "function"
    },
    {
      "inputs": [
        {
          "internalType": "address",
          "name": "operator",
          "type": "address"
        },
        {
          "internalType": "bool",
          "name": "approved",
          "type": "bool"
        }
      ],
      "name": "setApprovalForAll",
      "outputs": [],
      "stateMutability": "nonpayable",
      "type": "function"
    },
    {
      "inputs": [],
      "name": "symbol",
      "outputs": [
        {
          "internalType": "string",
          "name": "",
          "type": "string"
        }
      ],
      "stateMutability": "view",
      "type": "function",
      "constant": true
    },
    {
      "inputs": [
        {
          "internalType": "uint256",
          "name": "index",
          "type": "uint256"
        }
      ],
      "name": "tokenByIndex",
      "outputs": [
        {
          "internalType": "uint256",
          "name": "",
          "type": "uint256"
        }
      ],
      "stateMutability": "view",
      "type": "function",
      "constant": true
    },
    {
      "inputs": [
        {
          "internalType": "address",
          "name": "owner",
          "type": "address"
        },
        {
          "internalType": "uint256",
          "name": "index",
          "type": "uint256"
        }
      ],
      "name": "tokenOfOwnerByIndex",
      "outputs": [
        {
          "internalType": "uint256",
          "name": "",
          "type": "uint256"
        }
      ],
      "stateMutability": "view",
      "type": "function",
      "constant": true
    },
    {
      "inputs": [
        {
          "internalType": "uint256",
          "name": "tokenId",
          "type": "uint256"
        }
      ],
      "name": "tokenURI",
      "outputs": [
        {
          "internalType": "string",
          "name": "",
          "type": "string"
        }
      ],
      "stateMutability": "view",
      "type": "function",
      "constant": true
    },
    {
      "inputs": [],
      "name": "totalSupply",
      "outputs": [
        {
          "internalType": "uint256",
          "name": "",
          "type": "uint256"
        }
      ],
      "stateMutability": "view",
      "type": "function",
      "constant": true
    },
    {
      "inputs": [
        {
          "internalType": "address",
          "name": "from",
          "type": "address"
        },
        {
          "internalType": "address",
          "name": "to",
          "type": "address"
        },
        {
          "internalType": "uint256",
          "name": "tokenId",
          "type": "uint256"
        }
      ],
      "name": "transferFrom",
      "outputs": [],
      "stateMutability": "nonpayable",
      "type": "function"
    },
    {
      "inputs": [
        {
          "internalType": "address",
          "name": "newOwner",
          "type": "address"
        }
      ],
      "name": "transferOwnership",
      "outputs": [],
      "stateMutability": "nonpayable",
      "type": "function"
    },
    {
      "inputs": [
        {
          "internalType": "address[]",
          "name": "addresses",
          "type": "address[]"
        }
      ],
      "name": "setAllowList",
      "outputs": [],
      "stateMutability": "nonpayable",
      "type": "function"
    },
    {
      "inputs": [
        {
          "internalType": "bool",
          "name": "_preMintIsActive",
          "type": "bool"
        }
      ],
      "name": "setPreMintActive",
      "outputs": [],
      "stateMutability": "nonpayable",
      "type": "function"
    },
    {
      "inputs": [
        {
          "internalType": "bool",
          "name": "_openMintIsActive",
          "type": "bool"
        }
      ],
      "name": "setOpenMintActive",
      "outputs": [],
      "stateMutability": "nonpayable",
      "type": "function"
    },
    {
      "inputs": [
        {
          "internalType": "address",
          "name": "_to",
          "type": "address"
        },
        {
          "internalType": "uint8",
          "name": "numberOfTokens",
          "type": "uint8"
        }
      ],
      "name": "preMint",
      "outputs": [],
      "stateMutability": "payable",
      "type": "function",
      "payable": true
    },
    {
      "inputs": [
        {
          "internalType": "address",
          "name": "_to",
          "type": "address"
        },
        {
          "internalType": "uint8",
          "name": "numberOfTokens",
          "type": "uint8"
        }
      ],
      "name": "mint",
      "outputs": [],
      "stateMutability": "payable",
      "type": "function",
      "payable": true
    },
    {
      "inputs": [],
      "name": "getBalance",
      "outputs": [
        {
          "internalType": "uint256",
          "name": "",
          "type": "uint256"
        }
      ],
      "stateMutability": "view",
      "type": "function",
      "constant": true
    },
    {
      "inputs": [
        {
          "internalType": "address",
          "name": "_address",
          "type": "address"
        }
      ],
      "name": "isAllowedToMint",
      "outputs": [
        {
          "internalType": "bool",
          "name": "",
          "type": "bool"
        }
      ],
      "stateMutability": "view",
      "type": "function",
      "constant": true
    },
    {
      "inputs": [],
      "name": "getPrice",
      "outputs": [
        {
          "internalType": "uint256",
          "name": "",
          "type": "uint256"
        }
      ],
      "stateMutability": "view",
      "type": "function",
      "constant": true
    },
    {
      "inputs": [],
      "name": "getTokenCount",
      "outputs": [
        {
          "internalType": "uint256",
          "name": "",
          "type": "uint256"
        }
      ],
      "stateMutability": "view",
      "type": "function",
      "constant": true
    },
    {
      "inputs": [],
      "name": "getAccessPassSupply",
      "outputs": [
        {
          "internalType": "uint256",
          "name": "",
          "type": "uint256"
        }
      ],
      "stateMutability": "view",
      "type": "function",
      "constant": true
    },
    {
      "inputs": [
        {
          "internalType": "uint256",
          "name": "price",
          "type": "uint256"
        }
      ],
      "name": "setPrice",
      "outputs": [],
      "stateMutability": "nonpayable",
      "type": "function"
    },
    {
      "inputs": [],
      "name": "withdraw",
      "outputs": [],
      "stateMutability": "nonpayable",
      "type": "function"
    },
    {
      "inputs": [],
      "name": "pause",
      "outputs": [],
      "stateMutability": "nonpayable",
      "type": "function"
    },
    {
      "inputs": [],
      "name": "unpause",
      "outputs": [],
      "stateMutability": "nonpayable",
      "type": "function"
    },
    {
      "inputs": [
        {
          "internalType": "address",
          "name": "to",
          "type": "address"
        }
      ],
      "name": "_safeMint",
      "outputs": [],
      "stateMutability": "nonpayable",
      "type": "function"
    },
    {
      "inputs": [
        {
          "internalType": "string",
          "name": "baseURI",
          "type": "string"
        }
      ],
      "name": "setBaseURI",
      "outputs": [],
      "stateMutability": "nonpayable",
      "type": "function"
    },
    {
      "inputs": [
        {
          "internalType": "address",
          "name": "wallet",
          "type": "address"
        }
      ],
      "name": "hasAccessPassToken",
      "outputs": [
        {
          "internalType": "bool",
          "name": "",
          "type": "bool"
        }
      ],
      "stateMutability": "view",
      "type": "function",
      "constant": true
    },
    {
      "inputs": [
        {
          "internalType": "bytes4",
          "name": "interfaceId",
          "type": "bytes4"
        }
      ],
      "name": "supportsInterface",
      "outputs": [
        {
          "internalType": "bool",
          "name": "",
          "type": "bool"
        }
      ],
      "stateMutability": "view",
      "type": "function",
      "constant": true
    }
  ],
  "bytecode": "0x60806040526040518060600160405280602481526020016200637c60249139600b90805190602001906200003592919062000df4565b5067011c37937e080000600c55600f600d556101f4600e556000600f60006101000a81548160ff0219169083151502179055506000600f60016101000a81548160ff0219169083151502179055503480156200009057600080fd5b506040518060400160405280601681526020017f52617265426c6f636b73204163636573732050617373000000000000000000008152506040518060400160405280600a81526020017f52415245424c4f434b530000000000000000000000000000000000000000000081525081600090805190602001906200011592919062000df4565b5080600190805190602001906200012e92919062000df4565b5050506000600a60006101000a81548160ff0219169083151502179055506200016c62000160620001a860201b60201c565b620001b060201b60201c565b60005b600d54811015620001a1576200018b336200027660201b60201c565b8080620001989062000edd565b9150506200016f565b5062001571565b600033905090565b6000600a60019054906101000a900473ffffffffffffffffffffffffffffffffffffffff16905081600a60016101000a81548173ffffffffffffffffffffffffffffffffffffffff021916908373ffffffffffffffffffffffffffffffffffffffff1602179055508173ffffffffffffffffffffffffffffffffffffffff168173ffffffffffffffffffffffffffffffffffffffff167f8be0079c531659141344cd1fd0a4f28419497f9722a3daafe3b4186f6b6457e060405160405180910390a35050565b62000286620001a860201b60201c565b73ffffffffffffffffffffffffffffffffffffffff16620002ac6200034760201b60201c565b73ffffffffffffffffffffffffffffffffffffffff161462000305576040517f08c379a0000000000000000000000000000000000000000000000000000000008152600401620002fc9062000f8c565b60405180910390fd5b6200031c60106200037160201b62001f5c1760201c565b62000344816200033860106200038760201b62001f721760201c565b6200039560201b60201c565b50565b6000600a60019054906101000a900473ffffffffffffffffffffffffffffffffffffffff16905090565b6001816000016000828254019250508190555050565b600081600001549050919050565b620003b7828260405180602001604052806000815250620003bb60201b60201c565b5050565b620003cd83836200042960201b60201c565b620003e260008484846200060f60201b60201c565b62000424576040517f08c379a00000000000000000000000000000000000000000000000000000000081526004016200041b9062001024565b60405180910390fd5b505050565b600073ffffffffffffffffffffffffffffffffffffffff168273ffffffffffffffffffffffffffffffffffffffff1614156200049c576040517f08c379a0000000000000000000000000000000000000000000000000000000008152600401620004939062001096565b60405180910390fd5b620004ad81620007b960201b60201c565b15620004f0576040517f08c379a0000000000000000000000000000000000000000000000000000000008152600401620004e79062001108565b60405180910390fd5b62000504600083836200082560201b60201c565b6001600360008473ffffffffffffffffffffffffffffffffffffffff1673ffffffffffffffffffffffffffffffffffffffff16815260200190815260200160002060008282546200055691906200112a565b92505081905550816002600083815260200190815260200160002060006101000a81548173ffffffffffffffffffffffffffffffffffffffff021916908373ffffffffffffffffffffffffffffffffffffffff160217905550808273ffffffffffffffffffffffffffffffffffffffff16600073ffffffffffffffffffffffffffffffffffffffff167fddf252ad1be2c89b69c2b068fc378daa952ba7f163c4a11628f55a4df523b3ef60405160405180910390a45050565b60006200063d8473ffffffffffffffffffffffffffffffffffffffff166200089560201b62001f801760201c565b15620007ac578373ffffffffffffffffffffffffffffffffffffffff1663150b7a026200066f620001a860201b60201c565b8786866040518563ffffffff1660e01b815260040162000693949392919062001281565b6020604051808303816000875af1925050508015620006d257506040513d601f19601f82011682018060405250810190620006cf919062001337565b60015b6200075b573d806000811462000705576040519150601f19603f3d011682016040523d82523d6000602084013e6200070a565b606091505b5060008151141562000753576040517f08c379a00000000000000000000000000000000000000000000000000000000081526004016200074a9062001024565b60405180910390fd5b805181602001fd5b63150b7a0260e01b7bffffffffffffffffffffffffffffffffffffffffffffffffffffffff1916817bffffffffffffffffffffffffffffffffffffffffffffffffffffffff191614915050620007b1565b600190505b949350505050565b60008073ffffffffffffffffffffffffffffffffffffffff166002600084815260200190815260200160002060009054906101000a900473ffffffffffffffffffffffffffffffffffffffff1673ffffffffffffffffffffffffffffffffffffffff1614159050919050565b62000835620008a860201b60201c565b1562000878576040517f08c379a00000000000000000000000000000000000000000000000000000000081526004016200086f90620013b9565b60405180910390fd5b62000890838383620008bf60201b62001f931760201c565b505050565b600080823b905060008111915050919050565b6000600a60009054906101000a900460ff16905090565b620008d783838362000a0660201b620020a71760201c565b600073ffffffffffffffffffffffffffffffffffffffff168373ffffffffffffffffffffffffffffffffffffffff16141562000924576200091e8162000a0b60201b60201c565b6200096c565b8173ffffffffffffffffffffffffffffffffffffffff168373ffffffffffffffffffffffffffffffffffffffff16146200096b576200096a838262000a5460201b60201c565b5b5b600073ffffffffffffffffffffffffffffffffffffffff168273ffffffffffffffffffffffffffffffffffffffff161415620009b957620009b38162000bd160201b60201c565b62000a01565b8273ffffffffffffffffffffffffffffffffffffffff168273ffffffffffffffffffffffffffffffffffffffff161462000a0057620009ff828262000cad60201b60201c565b5b5b505050565b505050565b6008805490506009600083815260200190815260200160002081905550600881908060018154018082558091505060019003906000526020600020016000909190919091505550565b6000600162000a6e8462000d3960201b6200150b1760201c565b62000a7a9190620013db565b905060006007600084815260200190815260200160002054905081811462000b60576000600660008673ffffffffffffffffffffffffffffffffffffffff1673ffffffffffffffffffffffffffffffffffffffff168152602001908152602001600020600084815260200190815260200160002054905080600660008773ffffffffffffffffffffffffffffffffffffffff1673ffffffffffffffffffffffffffffffffffffffff168152602001908152602001600020600084815260200190815260200160002081905550816007600083815260200190815260200160002081905550505b6007600084815260200190815260200160002060009055600660008573ffffffffffffffffffffffffffffffffffffffff1673ffffffffffffffffffffffffffffffffffffffff16815260200190815260200160002060008381526020019081526020016000206000905550505050565b6000600160088054905062000be79190620013db565b905060006009600084815260200190815260200160002054905060006008838154811062000c1a5762000c1962001416565b5b90600052602060002001549050806008838154811062000c3f5762000c3e62001416565b5b90600052602060002001819055508160096000838152602001908152602001600020819055506009600085815260200190815260200160002060009055600880548062000c915762000c9062001445565b5b6001900381819060005260206000200160009055905550505050565b600062000cc58362000d3960201b6200150b1760201c565b905081600660008573ffffffffffffffffffffffffffffffffffffffff1673ffffffffffffffffffffffffffffffffffffffff168152602001908152602001600020600083815260200190815260200160002081905550806007600084815260200190815260200160002081905550505050565b60008073ffffffffffffffffffffffffffffffffffffffff168273ffffffffffffffffffffffffffffffffffffffff16141562000dad576040517f08c379a000000000000000000000000000000000000000000000000000000000815260040162000da490620014ea565b60405180910390fd5b600360008373ffffffffffffffffffffffffffffffffffffffff1673ffffffffffffffffffffffffffffffffffffffff168152602001908152602001600020549050919050565b82805462000e02906200153b565b90600052602060002090601f01602090048101928262000e26576000855562000e72565b82601f1062000e4157805160ff191683800117855562000e72565b8280016001018555821562000e72579182015b8281111562000e7157825182559160200191906001019062000e54565b5b50905062000e81919062000e85565b5090565b5b8082111562000ea057600081600090555060010162000e86565b5090565b7f4e487b7100000000000000000000000000000000000000000000000000000000600052601160045260246000fd5b6000819050919050565b600062000eea8262000ed3565b91507fffffffffffffffffffffffffffffffffffffffffffffffffffffffffffffffff82141562000f205762000f1f62000ea4565b5b600182019050919050565b600082825260208201905092915050565b7f4f776e61626c653a2063616c6c6572206973206e6f7420746865206f776e6572600082015250565b600062000f7460208362000f2b565b915062000f818262000f3c565b602082019050919050565b6000602082019050818103600083015262000fa78162000f65565b9050919050565b7f4552433732313a207472616e7366657220746f206e6f6e20455243373231526560008201527f63656976657220696d706c656d656e7465720000000000000000000000000000602082015250565b60006200100c60328362000f2b565b9150620010198262000fae565b604082019050919050565b600060208201905081810360008301526200103f8162000ffd565b9050919050565b7f4552433732313a206d696e7420746f20746865207a65726f2061646472657373600082015250565b60006200107e60208362000f2b565b91506200108b8262001046565b602082019050919050565b60006020820190508181036000830152620010b1816200106f565b9050919050565b7f4552433732313a20746f6b656e20616c7265616479206d696e74656400000000600082015250565b6000620010f0601c8362000f2b565b9150620010fd82620010b8565b602082019050919050565b600060208201905081810360008301526200112381620010e1565b9050919050565b6000620011378262000ed3565b9150620011448362000ed3565b9250827fffffffffffffffffffffffffffffffffffffffffffffffffffffffffffffffff038211156200117c576200117b62000ea4565b5b828201905092915050565b600073ffffffffffffffffffffffffffffffffffffffff82169050919050565b6000620011b48262001187565b9050919050565b620011c681620011a7565b82525050565b620011d78162000ed3565b82525050565b600081519050919050565b600082825260208201905092915050565b60005b8381101562001219578082015181840152602081019050620011fc565b8381111562001229576000848401525b50505050565b6000601f19601f8301169050919050565b60006200124d82620011dd565b620012598185620011e8565b93506200126b818560208601620011f9565b62001276816200122f565b840191505092915050565b6000608082019050620012986000830187620011bb565b620012a76020830186620011bb565b620012b66040830185620011cc565b8181036060830152620012ca818462001240565b905095945050505050565b600080fd5b60007fffffffff0000000000000000000000000000000000000000000000000000000082169050919050565b6200131181620012da565b81146200131d57600080fd5b50565b600081519050620013318162001306565b92915050565b60006020828403121562001350576200134f620012d5565b5b6000620013608482850162001320565b91505092915050565b7f5061757361626c653a2070617573656400000000000000000000000000000000600082015250565b6000620013a160108362000f2b565b9150620013ae8262001369565b602082019050919050565b60006020820190508181036000830152620013d48162001392565b9050919050565b6000620013e88262000ed3565b9150620013f58362000ed3565b9250828210156200140b576200140a62000ea4565b5b828203905092915050565b7f4e487b7100000000000000000000000000000000000000000000000000000000600052603260045260246000fd5b7f4e487b7100000000000000000000000000000000000000000000000000000000600052603160045260246000fd5b7f4552433732313a2062616c616e636520717565727920666f7220746865207a6560008201527f726f206164647265737300000000000000000000000000000000000000000000602082015250565b6000620014d2602a8362000f2b565b9150620014df8262001474565b604082019050919050565b600060208201905081810360008301526200150581620014c3565b9050919050565b7f4e487b7100000000000000000000000000000000000000000000000000000000600052602260045260246000fd5b600060028204905060018216806200155457607f821691505b602082108114156200156b576200156a6200150c565b5b50919050565b614dfb80620015816000396000f3fe6080604052600436106102305760003560e01c80636842cafd1161012e578063a031c832116100ab578063c87b56dd1161006f578063c87b56dd146107f9578063d743444714610836578063dcd50f4314610861578063e985e9c51461088a578063f2fde38b146108c757610230565b8063a031c83214610725578063a22cb4651461074e578063a235b01f14610777578063b88d4fde14610793578063c61bd0a3146107bc57610230565b80638456cb59116100f25780638456cb59146106645780638da5cb5b1461067b57806391b7f5ed146106a657806395d89b41146106cf57806398d5fdca146106fa57610230565b80636842cafd146105a0578063691562a0146105c957806370a08231146105e5578063715018a61461062257806378a895671461063957610230565b80633ccfd60b116101bc5780634f6ccce7116101805780634f6ccce7146104a957806355f804b3146104e65780635c975abb1461050f5780636352211e1461053a5780636447c35d1461057757610230565b80633ccfd60b146103ea5780633f11c806146104015780633f4ba83a1461042c57806342842e0e146104435780634813d8a61461046c57610230565b806312065fe01161020357806312065fe01461030357806318160ddd1461032e5780631907090e1461035957806323b872dd146103845780632f745c59146103ad57610230565b806301ffc9a71461023557806306fdde0314610272578063081812fc1461029d578063095ea7b3146102da575b600080fd5b34801561024157600080fd5b5061025c600480360381019061025791906134dc565b6108f0565b6040516102699190613524565b60405180910390f35b34801561027e57600080fd5b50610287610902565b60405161029491906135d8565b60405180910390f35b3480156102a957600080fd5b506102c460048036038101906102bf9190613630565b610994565b6040516102d1919061369e565b60405180910390f35b3480156102e657600080fd5b5061030160048036038101906102fc91906136e5565b610a19565b005b34801561030f57600080fd5b50610318610b31565b6040516103259190613734565b60405180910390f35b34801561033a57600080fd5b50610343610b39565b6040516103509190613734565b60405180910390f35b34801561036557600080fd5b5061036e610b46565b60405161037b9190613524565b60405180910390f35b34801561039057600080fd5b506103ab60048036038101906103a6919061374f565b610b59565b005b3480156103b957600080fd5b506103d460048036038101906103cf91906136e5565b610bb9565b6040516103e19190613734565b60405180910390f35b3480156103f657600080fd5b506103ff610c5e565b005b34801561040d57600080fd5b50610416610d29565b6040516104239190613524565b60405180910390f35b34801561043857600080fd5b50610441610d3c565b005b34801561044f57600080fd5b5061046a6004803603810190610465919061374f565b610e09565b005b34801561047857600080fd5b50610493600480360381019061048e91906137a2565b610e29565b6040516104a09190613524565b60405180910390f35b3480156104b557600080fd5b506104d060048036038101906104cb9190613630565b610f59565b6040516104dd9190613734565b60405180910390f35b3480156104f257600080fd5b5061050d60048036038101906105089190613904565b610fca565b005b34801561051b57600080fd5b50610524611060565b6040516105319190613524565b60405180910390f35b34801561054657600080fd5b50610561600480360381019061055c9190613630565b611077565b60405161056e919061369e565b60405180910390f35b34801561058357600080fd5b5061059e600480360381019061059991906139ad565b611129565b005b3480156105ac57600080fd5b506105c760048036038101906105c29190613a26565b61124b565b005b6105e360048036038101906105de9190613a8c565b6112e4565b005b3480156105f157600080fd5b5061060c600480360381019061060791906137a2565b61150b565b6040516106199190613734565b60405180910390f35b34801561062e57600080fd5b506106376115c3565b005b34801561064557600080fd5b5061064e61164b565b60405161065b9190613734565b60405180910390f35b34801561067057600080fd5b5061067961165c565b005b34801561068757600080fd5b5061069061172a565b60405161069d919061369e565b60405180910390f35b3480156106b257600080fd5b506106cd60048036038101906106c89190613630565b611754565b005b3480156106db57600080fd5b506106e46117da565b6040516106f191906135d8565b60405180910390f35b34801561070657600080fd5b5061070f61186c565b60405161071c9190613734565b60405180910390f35b34801561073157600080fd5b5061074c600480360381019061074791906137a2565b611876565b005b34801561075a57600080fd5b5061077560048036038101906107709190613acc565b611912565b005b610791600480360381019061078c9190613a8c565b611928565b005b34801561079f57600080fd5b506107ba60048036038101906107b59190613bad565b611c10565b005b3480156107c857600080fd5b506107e360048036038101906107de91906137a2565b611c72565b6040516107f09190613524565b60405180910390f35b34801561080557600080fd5b50610820600480360381019061081b9190613630565b611c86565b60405161082d91906135d8565b60405180910390f35b34801561084257600080fd5b5061084b611d2d565b6040516108589190613734565b60405180910390f35b34801561086d57600080fd5b5061088860048036038101906108839190613a26565b611d37565b005b34801561089657600080fd5b506108b160048036038101906108ac9190613c30565b611dd0565b6040516108be9190613524565b60405180910390f35b3480156108d357600080fd5b506108ee60048036038101906108e991906137a2565b611e64565b005b60006108fb826120ac565b9050919050565b60606000805461091190613c9f565b80601f016020809104026020016040519081016040528092919081815260200182805461093d90613c9f565b801561098a5780601f1061095f5761010080835404028352916020019161098a565b820191906000526020600020905b81548152906001019060200180831161096d57829003601f168201915b5050505050905090565b600061099f82612126565b6109de576040517f08c379a00000000000000000000000000000000000000000000000000000000081526004016109d590613d43565b60405180910390fd5b6004600083815260200190815260200160002060009054906101000a900473ffffffffffffffffffffffffffffffffffffffff169050919050565b6000610a2482611077565b90508073ffffffffffffffffffffffffffffffffffffffff168373ffffffffffffffffffffffffffffffffffffffff161415610a95576040517f08c379a0000000000000000000000000000000000000000000000000000000008152600401610a8c90613dd5565b60405180910390fd5b8073ffffffffffffffffffffffffffffffffffffffff16610ab4612192565b73ffffffffffffffffffffffffffffffffffffffff161480610ae35750610ae281610add612192565b611dd0565b5b610b22576040517f08c379a0000000000000000000000000000000000000000000000000000000008152600401610b1990613e67565b60405180910390fd5b610b2c838361219a565b505050565b600047905090565b6000600880549050905090565b600f60019054906101000a900460ff1681565b610b6a610b64612192565b82612253565b610ba9576040517f08c379a0000000000000000000000000000000000000000000000000000000008152600401610ba090613ef9565b60405180910390fd5b610bb4838383612331565b505050565b6000610bc48361150b565b8210610c05576040517f08c379a0000000000000000000000000000000000000000000000000000000008152600401610bfc90613f8b565b60405180910390fd5b600660008473ffffffffffffffffffffffffffffffffffffffff1673ffffffffffffffffffffffffffffffffffffffff168152602001908152602001600020600083815260200190815260200160002054905092915050565b610c66612192565b73ffffffffffffffffffffffffffffffffffffffff16610c8461172a565b73ffffffffffffffffffffffffffffffffffffffff1614610cda576040517f08c379a0000000000000000000000000000000000000000000000000000000008152600401610cd190613ff7565b60405180910390fd5b60004790503373ffffffffffffffffffffffffffffffffffffffff166108fc829081150290604051600060405180830381858888f19350505050158015610d25573d6000803e3d6000fd5b5050565b600f60009054906101000a900460ff1681565b610d44612192565b73ffffffffffffffffffffffffffffffffffffffff16610d6261172a565b73ffffffffffffffffffffffffffffffffffffffff1614610db8576040517f08c379a0000000000000000000000000000000000000000000000000000000008152600401610daf90613ff7565b60405180910390fd5b610dc0611060565b610dff576040517f08c379a0000000000000000000000000000000000000000000000000000000008152600401610df690614063565b60405180910390fd5b610e0761258d565b565b610e2483838360405180602001604052806000815250611c10565b505050565b6000600f60009054906101000a900460ff16158015610e555750600f60019054906101000a900460ff16155b15610e635760009050610f54565b600f60009054906101000a900460ff168015610e8c5750600f60019054906101000a900460ff16155b15610efb576000601160008473ffffffffffffffffffffffffffffffffffffffff1673ffffffffffffffffffffffffffffffffffffffff16815260200190815260200160002060009054906101000a900460ff1660ff161115610ef25760019050610f54565b60009050610f54565b600f60009054906101000a900460ff168015610f235750600f60019054906101000a900460ff165b15610f315760019050610f54565b600f60019054906101000a900460ff1615610f4f5760019050610f54565b600090505b919050565b6000610f63610b39565b8210610fa4576040517f08c379a0000000000000000000000000000000000000000000000000000000008152600401610f9b906140f5565b60405180910390fd5b60088281548110610fb857610fb7614115565b5b90600052602060002001549050919050565b610fd2612192565b73ffffffffffffffffffffffffffffffffffffffff16610ff061172a565b73ffffffffffffffffffffffffffffffffffffffff1614611046576040517f08c379a000000000000000000000000000000000000000000000000000000000815260040161103d90613ff7565b60405180910390fd5b80600b908051906020019061105c9291906133cd565b5050565b6000600a60009054906101000a900460ff16905090565b6000806002600084815260200190815260200160002060009054906101000a900473ffffffffffffffffffffffffffffffffffffffff169050600073ffffffffffffffffffffffffffffffffffffffff168173ffffffffffffffffffffffffffffffffffffffff161415611120576040517f08c379a0000000000000000000000000000000000000000000000000000000008152600401611117906141b6565b60405180910390fd5b80915050919050565b611131612192565b73ffffffffffffffffffffffffffffffffffffffff1661114f61172a565b73ffffffffffffffffffffffffffffffffffffffff16146111a5576040517f08c379a000000000000000000000000000000000000000000000000000000000815260040161119c90613ff7565b60405180910390fd5b60005b82829050811015611246576003601160008585858181106111cc576111cb614115565b5b90506020020160208101906111e191906137a2565b73ffffffffffffffffffffffffffffffffffffffff1673ffffffffffffffffffffffffffffffffffffffff16815260200190815260200160002060006101000a81548160ff021916908360ff160217905550808061123e90614205565b9150506111a8565b505050565b611253612192565b73ffffffffffffffffffffffffffffffffffffffff1661127161172a565b73ffffffffffffffffffffffffffffffffffffffff16146112c7576040517f08c379a00000000000000000000000000000000000000000000000000000000081526004016112be90613ff7565b60405180910390fd5b80600f60006101000a81548160ff02191690831515021790555050565b6112ec611060565b1561132c576040517f08c379a00000000000000000000000000000000000000000000000000000000081526004016113239061429a565b60405180910390fd5b600f60019054906101000a900460ff1661137b576040517f08c379a000000000000000000000000000000000000000000000000000000000815260040161137290614306565b60405180910390fd5b348160ff16600c5461138d9190614326565b11156113ce576040517f08c379a00000000000000000000000000000000000000000000000000000000081526004016113c5906143cc565b60405180910390fd5b600e548160ff166113df6010611f72565b6113e991906143ec565b111561142a576040517f08c379a00000000000000000000000000000000000000000000000000000000081526004016114219061448e565b60405180910390fd5b60038160ff161115611471576040517f08c379a0000000000000000000000000000000000000000000000000000000008152600401611468906144fa565b60405180910390fd5b60005b8160ff16811015611506576114896010611f5c565b61149c836114976010611f72565b61262f565b8273ffffffffffffffffffffffffffffffffffffffff167f0f6798a560793a54c3bcfe86a93cde1e73087d944c0ea20544137d41213968856114de6010611f72565b6040516114eb9190613734565b60405180910390a280806114fe90614205565b915050611474565b505050565b60008073ffffffffffffffffffffffffffffffffffffffff168273ffffffffffffffffffffffffffffffffffffffff16141561157c576040517f08c379a00000000000000000000000000000000000000000000000000000000081526004016115739061458c565b60405180910390fd5b600360008373ffffffffffffffffffffffffffffffffffffffff1673ffffffffffffffffffffffffffffffffffffffff168152602001908152602001600020549050919050565b6115cb612192565b73ffffffffffffffffffffffffffffffffffffffff166115e961172a565b73ffffffffffffffffffffffffffffffffffffffff161461163f576040517f08c379a000000000000000000000000000000000000000000000000000000000815260040161163690613ff7565b60405180910390fd5b611649600061264d565b565b60006116576010611f72565b905090565b611664612192565b73ffffffffffffffffffffffffffffffffffffffff1661168261172a565b73ffffffffffffffffffffffffffffffffffffffff16146116d8576040517f08c379a00000000000000000000000000000000000000000000000000000000081526004016116cf90613ff7565b60405180910390fd5b6116e0611060565b15611720576040517f08c379a00000000000000000000000000000000000000000000000000000000081526004016117179061429a565b60405180910390fd5b611728612713565b565b6000600a60019054906101000a900473ffffffffffffffffffffffffffffffffffffffff16905090565b61175c612192565b73ffffffffffffffffffffffffffffffffffffffff1661177a61172a565b73ffffffffffffffffffffffffffffffffffffffff16146117d0576040517f08c379a00000000000000000000000000000000000000000000000000000000081526004016117c790613ff7565b60405180910390fd5b80600c8190555050565b6060600180546117e990613c9f565b80601f016020809104026020016040519081016040528092919081815260200182805461181590613c9f565b80156118625780601f1061183757610100808354040283529160200191611862565b820191906000526020600020905b81548152906001019060200180831161184557829003601f168201915b5050505050905090565b6000600c54905090565b61187e612192565b73ffffffffffffffffffffffffffffffffffffffff1661189c61172a565b73ffffffffffffffffffffffffffffffffffffffff16146118f2576040517f08c379a00000000000000000000000000000000000000000000000000000000081526004016118e990613ff7565b60405180910390fd5b6118fc6010611f5c565b61190f8161190a6010611f72565b61262f565b50565b61192461191d612192565b83836127b6565b5050565b611930611060565b15611970576040517f08c379a00000000000000000000000000000000000000000000000000000000081526004016119679061429a565b60405180910390fd5b600f60009054906101000a900460ff166119bf576040517f08c379a00000000000000000000000000000000000000000000000000000000081526004016119b6906145f8565b60405180910390fd5b348160ff16600c546119d19190614326565b1115611a12576040517f08c379a0000000000000000000000000000000000000000000000000000000008152600401611a09906143cc565b60405180910390fd5b600e548160ff16611a236010611f72565b611a2d91906143ec565b1115611a6e576040517f08c379a0000000000000000000000000000000000000000000000000000000008152600401611a659061448e565b60405180910390fd5b601160008373ffffffffffffffffffffffffffffffffffffffff1673ffffffffffffffffffffffffffffffffffffffff16815260200190815260200160002060009054906101000a900460ff1660ff168160ff161115611b03576040517f08c379a0000000000000000000000000000000000000000000000000000000008152600401611afa9061468a565b60405180910390fd5b80601160008473ffffffffffffffffffffffffffffffffffffffff1673ffffffffffffffffffffffffffffffffffffffff16815260200190815260200160002060008282829054906101000a900460ff16611b5e91906146aa565b92506101000a81548160ff021916908360ff16021790555060005b8160ff16811015611c0b57611b8e6010611f5c565b611ba183611b9c6010611f72565b61262f565b8273ffffffffffffffffffffffffffffffffffffffff167f0f6798a560793a54c3bcfe86a93cde1e73087d944c0ea20544137d4121396885611be36010611f72565b604051611bf09190613734565b60405180910390a28080611c0390614205565b915050611b79565b505050565b611c21611c1b612192565b83612253565b611c60576040517f08c379a0000000000000000000000000000000000000000000000000000000008152600401611c5790613ef9565b60405180910390fd5b611c6c84848484612923565b50505050565b600080611c7e8361150b565b119050919050565b6060611c9182612126565b611cd0576040517f08c379a0000000000000000000000000000000000000000000000000000000008152600401611cc790614750565b60405180910390fd5b6000611cda61297f565b90506000815111611cfa5760405180602001604052806000815250611d25565b80611d0484612a11565b604051602001611d159291906147ac565b6040516020818303038152906040525b915050919050565b6000600e54905090565b611d3f612192565b73ffffffffffffffffffffffffffffffffffffffff16611d5d61172a565b73ffffffffffffffffffffffffffffffffffffffff1614611db3576040517f08c379a0000000000000000000000000000000000000000000000000000000008152600401611daa90613ff7565b60405180910390fd5b80600f60016101000a81548160ff02191690831515021790555050565b6000600560008473ffffffffffffffffffffffffffffffffffffffff1673ffffffffffffffffffffffffffffffffffffffff16815260200190815260200160002060008373ffffffffffffffffffffffffffffffffffffffff1673ffffffffffffffffffffffffffffffffffffffff16815260200190815260200160002060009054906101000a900460ff16905092915050565b611e6c612192565b73ffffffffffffffffffffffffffffffffffffffff16611e8a61172a565b73ffffffffffffffffffffffffffffffffffffffff1614611ee0576040517f08c379a0000000000000000000000000000000000000000000000000000000008152600401611ed790613ff7565b60405180910390fd5b600073ffffffffffffffffffffffffffffffffffffffff168173ffffffffffffffffffffffffffffffffffffffff161415611f50576040517f08c379a0000000000000000000000000000000000000000000000000000000008152600401611f4790614842565b60405180910390fd5b611f598161264d565b50565b6001816000016000828254019250508190555050565b600081600001549050919050565b600080823b905060008111915050919050565b611f9e8383836120a7565b600073ffffffffffffffffffffffffffffffffffffffff168373ffffffffffffffffffffffffffffffffffffffff161415611fe157611fdc81612b72565b612020565b8173ffffffffffffffffffffffffffffffffffffffff168373ffffffffffffffffffffffffffffffffffffffff161461201f5761201e8382612bbb565b5b5b600073ffffffffffffffffffffffffffffffffffffffff168273ffffffffffffffffffffffffffffffffffffffff1614156120635761205e81612d28565b6120a2565b8273ffffffffffffffffffffffffffffffffffffffff168273ffffffffffffffffffffffffffffffffffffffff16146120a1576120a08282612df9565b5b5b505050565b505050565b60007f780e9d63000000000000000000000000000000000000000000000000000000007bffffffffffffffffffffffffffffffffffffffffffffffffffffffff1916827bffffffffffffffffffffffffffffffffffffffffffffffffffffffff1916148061211f575061211e82612e78565b5b9050919050565b60008073ffffffffffffffffffffffffffffffffffffffff166002600084815260200190815260200160002060009054906101000a900473ffffffffffffffffffffffffffffffffffffffff1673ffffffffffffffffffffffffffffffffffffffff1614159050919050565b600033905090565b816004600083815260200190815260200160002060006101000a81548173ffffffffffffffffffffffffffffffffffffffff021916908373ffffffffffffffffffffffffffffffffffffffff160217905550808273ffffffffffffffffffffffffffffffffffffffff1661220d83611077565b73ffffffffffffffffffffffffffffffffffffffff167f8c5be1e5ebec7d5bd14f71427d1e84f3dd0314c0f7b2291e5b200ac8c7c3b92560405160405180910390a45050565b600061225e82612126565b61229d576040517f08c379a0000000000000000000000000000000000000000000000000000000008152600401612294906148d4565b60405180910390fd5b60006122a883611077565b90508073ffffffffffffffffffffffffffffffffffffffff168473ffffffffffffffffffffffffffffffffffffffff16148061231757508373ffffffffffffffffffffffffffffffffffffffff166122ff84610994565b73ffffffffffffffffffffffffffffffffffffffff16145b8061232857506123278185611dd0565b5b91505092915050565b8273ffffffffffffffffffffffffffffffffffffffff1661235182611077565b73ffffffffffffffffffffffffffffffffffffffff16146123a7576040517f08c379a000000000000000000000000000000000000000000000000000000000815260040161239e90614966565b60405180910390fd5b600073ffffffffffffffffffffffffffffffffffffffff168273ffffffffffffffffffffffffffffffffffffffff161415612417576040517f08c379a000000000000000000000000000000000000000000000000000000000815260040161240e906149f8565b60405180910390fd5b612422838383612f5a565b61242d60008261219a565b6001600360008573ffffffffffffffffffffffffffffffffffffffff1673ffffffffffffffffffffffffffffffffffffffff168152602001908152602001600020600082825461247d9190614a18565b925050819055506001600360008473ffffffffffffffffffffffffffffffffffffffff1673ffffffffffffffffffffffffffffffffffffffff16815260200190815260200160002060008282546124d491906143ec565b92505081905550816002600083815260200190815260200160002060006101000a81548173ffffffffffffffffffffffffffffffffffffffff021916908373ffffffffffffffffffffffffffffffffffffffff160217905550808273ffffffffffffffffffffffffffffffffffffffff168473ffffffffffffffffffffffffffffffffffffffff167fddf252ad1be2c89b69c2b068fc378daa952ba7f163c4a11628f55a4df523b3ef60405160405180910390a4505050565b612595611060565b6125d4576040517f08c379a00000000000000000000000000000000000000000000000000000000081526004016125cb90614063565b60405180910390fd5b6000600a60006101000a81548160ff0219169083151502179055507f5db9ee0a495bf2e6ff9c91a7834c1ba4fdd244a5e8aa4e537bd38aeae4b073aa612618612192565b604051612625919061369e565b60405180910390a1565b612649828260405180602001604052806000815250612fb2565b5050565b6000600a60019054906101000a900473ffffffffffffffffffffffffffffffffffffffff16905081600a60016101000a81548173ffffffffffffffffffffffffffffffffffffffff021916908373ffffffffffffffffffffffffffffffffffffffff1602179055508173ffffffffffffffffffffffffffffffffffffffff168173ffffffffffffffffffffffffffffffffffffffff167f8be0079c531659141344cd1fd0a4f28419497f9722a3daafe3b4186f6b6457e060405160405180910390a35050565b61271b611060565b1561275b576040517f08c379a00000000000000000000000000000000000000000000000000000000081526004016127529061429a565b60405180910390fd5b6001600a60006101000a81548160ff0219169083151502179055507f62e78cea01bee320cd4e420270b5ea74000d11b0c9f74754ebdbfc544b05a25861279f612192565b6040516127ac919061369e565b60405180910390a1565b8173ffffffffffffffffffffffffffffffffffffffff168373ffffffffffffffffffffffffffffffffffffffff161415612825576040517f08c379a000000000000000000000000000000000000000000000000000000000815260040161281c90614a98565b60405180910390fd5b80600560008573ffffffffffffffffffffffffffffffffffffffff1673ffffffffffffffffffffffffffffffffffffffff16815260200190815260200160002060008473ffffffffffffffffffffffffffffffffffffffff1673ffffffffffffffffffffffffffffffffffffffff16815260200190815260200160002060006101000a81548160ff0219169083151502179055508173ffffffffffffffffffffffffffffffffffffffff168373ffffffffffffffffffffffffffffffffffffffff167f17307eab39ab6107e8899845ad3d59bd9653f200f220920489ca2b5937696c31836040516129169190613524565b60405180910390a3505050565b61292e848484612331565b61293a8484848461300d565b612979576040517f08c379a000000000000000000000000000000000000000000000000000000000815260040161297090614b2a565b60405180910390fd5b50505050565b6060600b805461298e90613c9f565b80601f01602080910402602001604051908101604052809291908181526020018280546129ba90613c9f565b8015612a075780601f106129dc57610100808354040283529160200191612a07565b820191906000526020600020905b8154815290600101906020018083116129ea57829003601f168201915b5050505050905090565b60606000821415612a59576040518060400160405280600181526020017f30000000000000000000000000000000000000000000000000000000000000008152509050612b6d565b600082905060005b60008214612a8b578080612a7490614205565b915050600a82612a849190614b79565b9150612a61565b60008167ffffffffffffffff811115612aa757612aa66137d9565b5b6040519080825280601f01601f191660200182016040528015612ad95781602001600182028036833780820191505090505b5090505b60008514612b6657600182612af29190614a18565b9150600a85612b019190614baa565b6030612b0d91906143ec565b60f81b818381518110612b2357612b22614115565b5b60200101907effffffffffffffffffffffffffffffffffffffffffffffffffffffffffffff1916908160001a905350600a85612b5f9190614b79565b9450612add565b8093505050505b919050565b6008805490506009600083815260200190815260200160002081905550600881908060018154018082558091505060019003906000526020600020016000909190919091505550565b60006001612bc88461150b565b612bd29190614a18565b9050600060076000848152602001908152602001600020549050818114612cb7576000600660008673ffffffffffffffffffffffffffffffffffffffff1673ffffffffffffffffffffffffffffffffffffffff168152602001908152602001600020600084815260200190815260200160002054905080600660008773ffffffffffffffffffffffffffffffffffffffff1673ffffffffffffffffffffffffffffffffffffffff168152602001908152602001600020600084815260200190815260200160002081905550816007600083815260200190815260200160002081905550505b6007600084815260200190815260200160002060009055600660008573ffffffffffffffffffffffffffffffffffffffff1673ffffffffffffffffffffffffffffffffffffffff16815260200190815260200160002060008381526020019081526020016000206000905550505050565b60006001600880549050612d3c9190614a18565b9050600060096000848152602001908152602001600020549050600060088381548110612d6c57612d6b614115565b5b906000526020600020015490508060088381548110612d8e57612d8d614115565b5b906000526020600020018190555081600960008381526020019081526020016000208190555060096000858152602001908152602001600020600090556008805480612ddd57612ddc614bdb565b5b6001900381819060005260206000200160009055905550505050565b6000612e048361150b565b905081600660008573ffffffffffffffffffffffffffffffffffffffff1673ffffffffffffffffffffffffffffffffffffffff168152602001908152602001600020600083815260200190815260200160002081905550806007600084815260200190815260200160002081905550505050565b60007f80ac58cd000000000000000000000000000000000000000000000000000000007bffffffffffffffffffffffffffffffffffffffffffffffffffffffff1916827bffffffffffffffffffffffffffffffffffffffffffffffffffffffff19161480612f4357507f5b5e139f000000000000000000000000000000000000000000000000000000007bffffffffffffffffffffffffffffffffffffffffffffffffffffffff1916827bffffffffffffffffffffffffffffffffffffffffffffffffffffffff1916145b80612f535750612f5282613195565b5b9050919050565b612f62611060565b15612fa2576040517f08c379a0000000000000000000000000000000000000000000000000000000008152600401612f999061429a565b60405180910390fd5b612fad838383611f93565b505050565b612fbc83836131ff565b612fc9600084848461300d565b613008576040517f08c379a0000000000000000000000000000000000000000000000000000000008152600401612fff90614b2a565b60405180910390fd5b505050565b600061302e8473ffffffffffffffffffffffffffffffffffffffff16611f80565b15613188578373ffffffffffffffffffffffffffffffffffffffff1663150b7a02613057612192565b8786866040518563ffffffff1660e01b81526004016130799493929190614c5f565b6020604051808303816000875af19250505080156130b557506040513d601f19601f820116820180604052508101906130b29190614cc0565b60015b613138573d80600081146130e5576040519150601f19603f3d011682016040523d82523d6000602084013e6130ea565b606091505b50600081511415613130576040517f08c379a000000000000000000000000000000000000000000000000000000000815260040161312790614b2a565b60405180910390fd5b805181602001fd5b63150b7a0260e01b7bffffffffffffffffffffffffffffffffffffffffffffffffffffffff1916817bffffffffffffffffffffffffffffffffffffffffffffffffffffffff19161491505061318d565b600190505b949350505050565b60007f01ffc9a7000000000000000000000000000000000000000000000000000000007bffffffffffffffffffffffffffffffffffffffffffffffffffffffff1916827bffffffffffffffffffffffffffffffffffffffffffffffffffffffff1916149050919050565b600073ffffffffffffffffffffffffffffffffffffffff168273ffffffffffffffffffffffffffffffffffffffff16141561326f576040517f08c379a000000000000000000000000000000000000000000000000000000000815260040161326690614d39565b60405180910390fd5b61327881612126565b156132b8576040517f08c379a00000000000000000000000000000000000000000000000000000000081526004016132af90614da5565b60405180910390fd5b6132c460008383612f5a565b6001600360008473ffffffffffffffffffffffffffffffffffffffff1673ffffffffffffffffffffffffffffffffffffffff168152602001908152602001600020600082825461331491906143ec565b92505081905550816002600083815260200190815260200160002060006101000a81548173ffffffffffffffffffffffffffffffffffffffff021916908373ffffffffffffffffffffffffffffffffffffffff160217905550808273ffffffffffffffffffffffffffffffffffffffff16600073ffffffffffffffffffffffffffffffffffffffff167fddf252ad1be2c89b69c2b068fc378daa952ba7f163c4a11628f55a4df523b3ef60405160405180910390a45050565b8280546133d990613c9f565b90600052602060002090601f0160209004810192826133fb5760008555613442565b82601f1061341457805160ff1916838001178555613442565b82800160010185558215613442579182015b82811115613441578251825591602001919060010190613426565b5b50905061344f9190613453565b5090565b5b8082111561346c576000816000905550600101613454565b5090565b6000604051905090565b600080fd5b600080fd5b60007fffffffff0000000000000000000000000000000000000000000000000000000082169050919050565b6134b981613484565b81146134c457600080fd5b50565b6000813590506134d6816134b0565b92915050565b6000602082840312156134f2576134f161347a565b5b6000613500848285016134c7565b91505092915050565b60008115159050919050565b61351e81613509565b82525050565b60006020820190506135396000830184613515565b92915050565b600081519050919050565b600082825260208201905092915050565b60005b8381101561357957808201518184015260208101905061355e565b83811115613588576000848401525b50505050565b6000601f19601f8301169050919050565b60006135aa8261353f565b6135b4818561354a565b93506135c481856020860161355b565b6135cd8161358e565b840191505092915050565b600060208201905081810360008301526135f2818461359f565b905092915050565b6000819050919050565b61360d816135fa565b811461361857600080fd5b50565b60008135905061362a81613604565b92915050565b6000602082840312156136465761364561347a565b5b60006136548482850161361b565b91505092915050565b600073ffffffffffffffffffffffffffffffffffffffff82169050919050565b60006136888261365d565b9050919050565b6136988161367d565b82525050565b60006020820190506136b3600083018461368f565b92915050565b6136c28161367d565b81146136cd57600080fd5b50565b6000813590506136df816136b9565b92915050565b600080604083850312156136fc576136fb61347a565b5b600061370a858286016136d0565b925050602061371b8582860161361b565b9150509250929050565b61372e816135fa565b82525050565b60006020820190506137496000830184613725565b92915050565b6000806000606084860312156137685761376761347a565b5b6000613776868287016136d0565b9350506020613787868287016136d0565b92505060406137988682870161361b565b9150509250925092565b6000602082840312156137b8576137b761347a565b5b60006137c6848285016136d0565b91505092915050565b600080fd5b600080fd5b7f4e487b7100000000000000000000000000000000000000000000000000000000600052604160045260246000fd5b6138118261358e565b810181811067ffffffffffffffff821117156138305761382f6137d9565b5b80604052505050565b6000613843613470565b905061384f8282613808565b919050565b600067ffffffffffffffff82111561386f5761386e6137d9565b5b6138788261358e565b9050602081019050919050565b82818337600083830152505050565b60006138a76138a284613854565b613839565b9050828152602081018484840111156138c3576138c26137d4565b5b6138ce848285613885565b509392505050565b600082601f8301126138eb576138ea6137cf565b5b81356138fb848260208601613894565b91505092915050565b60006020828403121561391a5761391961347a565b5b600082013567ffffffffffffffff8111156139385761393761347f565b5b613944848285016138d6565b91505092915050565b600080fd5b600080fd5b60008083601f84011261396d5761396c6137cf565b5b8235905067ffffffffffffffff81111561398a5761398961394d565b5b6020830191508360208202830111156139a6576139a5613952565b5b9250929050565b600080602083850312156139c4576139c361347a565b5b600083013567ffffffffffffffff8111156139e2576139e161347f565b5b6139ee85828601613957565b92509250509250929050565b613a0381613509565b8114613a0e57600080fd5b50565b600081359050613a20816139fa565b92915050565b600060208284031215613a3c57613a3b61347a565b5b6000613a4a84828501613a11565b91505092915050565b600060ff82169050919050565b613a6981613a53565b8114613a7457600080fd5b50565b600081359050613a8681613a60565b92915050565b60008060408385031215613aa357613aa261347a565b5b6000613ab1858286016136d0565b9250506020613ac285828601613a77565b9150509250929050565b60008060408385031215613ae357613ae261347a565b5b6000613af1858286016136d0565b9250506020613b0285828601613a11565b9150509250929050565b600067ffffffffffffffff821115613b2757613b266137d9565b5b613b308261358e565b9050602081019050919050565b6000613b50613b4b84613b0c565b613839565b905082815260208101848484011115613b6c57613b6b6137d4565b5b613b77848285613885565b509392505050565b600082601f830112613b9457613b936137cf565b5b8135613ba4848260208601613b3d565b91505092915050565b60008060008060808587031215613bc757613bc661347a565b5b6000613bd5878288016136d0565b9450506020613be6878288016136d0565b9350506040613bf78782880161361b565b925050606085013567ffffffffffffffff811115613c1857613c1761347f565b5b613c2487828801613b7f565b91505092959194509250565b60008060408385031215613c4757613c4661347a565b5b6000613c55858286016136d0565b9250506020613c66858286016136d0565b9150509250929050565b7f4e487b7100000000000000000000000000000000000000000000000000000000600052602260045260246000fd5b60006002820490506001821680613cb757607f821691505b60208210811415613ccb57613cca613c70565b5b50919050565b7f4552433732313a20617070726f76656420717565727920666f72206e6f6e657860008201527f697374656e7420746f6b656e0000000000000000000000000000000000000000602082015250565b6000613d2d602c8361354a565b9150613d3882613cd1565b604082019050919050565b60006020820190508181036000830152613d5c81613d20565b9050919050565b7f4552433732313a20617070726f76616c20746f2063757272656e74206f776e6560008201527f7200000000000000000000000000000000000000000000000000000000000000602082015250565b6000613dbf60218361354a565b9150613dca82613d63565b604082019050919050565b60006020820190508181036000830152613dee81613db2565b9050919050565b7f4552433732313a20617070726f76652063616c6c6572206973206e6f74206f7760008201527f6e6572206e6f7220617070726f76656420666f7220616c6c0000000000000000602082015250565b6000613e5160388361354a565b9150613e5c82613df5565b604082019050919050565b60006020820190508181036000830152613e8081613e44565b9050919050565b7f4552433732313a207472616e736665722063616c6c6572206973206e6f74206f60008201527f776e6572206e6f7220617070726f766564000000000000000000000000000000602082015250565b6000613ee360318361354a565b9150613eee82613e87565b604082019050919050565b60006020820190508181036000830152613f1281613ed6565b9050919050565b7f455243373231456e756d657261626c653a206f776e657220696e646578206f7560008201527f74206f6620626f756e6473000000000000000000000000000000000000000000602082015250565b6000613f75602b8361354a565b9150613f8082613f19565b604082019050919050565b60006020820190508181036000830152613fa481613f68565b9050919050565b7f4f776e61626c653a2063616c6c6572206973206e6f7420746865206f776e6572600082015250565b6000613fe160208361354a565b9150613fec82613fab565b602082019050919050565b6000602082019050818103600083015261401081613fd4565b9050919050565b7f5061757361626c653a206e6f7420706175736564000000000000000000000000600082015250565b600061404d60148361354a565b915061405882614017565b602082019050919050565b6000602082019050818103600083015261407c81614040565b9050919050565b7f455243373231456e756d657261626c653a20676c6f62616c20696e646578206f60008201527f7574206f6620626f756e64730000000000000000000000000000000000000000602082015250565b60006140df602c8361354a565b91506140ea82614083565b604082019050919050565b6000602082019050818103600083015261410e816140d2565b9050919050565b7f4e487b7100000000000000000000000000000000000000000000000000000000600052603260045260246000fd5b7f4552433732313a206f776e657220717565727920666f72206e6f6e657869737460008201527f656e7420746f6b656e0000000000000000000000000000000000000000000000602082015250565b60006141a060298361354a565b91506141ab82614144565b604082019050919050565b600060208201905081810360008301526141cf81614193565b9050919050565b7f4e487b7100000000000000000000000000000000000000000000000000000000600052601160045260246000fd5b6000614210826135fa565b91507fffffffffffffffffffffffffffffffffffffffffffffffffffffffffffffffff821415614243576142426141d6565b5b600182019050919050565b7f5061757361626c653a2070617573656400000000000000000000000000000000600082015250565b600061428460108361354a565b915061428f8261424e565b602082019050919050565b600060208201905081810360008301526142b381614277565b9050919050565b7f4f70656e206d696e74206973206e6f7420616374697665000000000000000000600082015250565b60006142f060178361354a565b91506142fb826142ba565b602082019050919050565b6000602082019050818103600083015261431f816142e3565b9050919050565b6000614331826135fa565b915061433c836135fa565b9250817fffffffffffffffffffffffffffffffffffffffffffffffffffffffffffffffff0483118215151615614375576143746141d6565b5b828202905092915050565b7f45746865722076616c75652073656e74206973206e6f7420636f727265637400600082015250565b60006143b6601f8361354a565b91506143c182614380565b602082019050919050565b600060208201905081810360008301526143e5816143a9565b9050919050565b60006143f7826135fa565b9150614402836135fa565b9250827fffffffffffffffffffffffffffffffffffffffffffffffffffffffffffffffff03821115614437576144366141d6565b5b828201905092915050565b7f43616e2774206d696e74206f76657220737570706c79206c696d697400000000600082015250565b6000614478601c8361354a565b915061448382614442565b602082019050919050565b600060208201905081810360008301526144a78161446b565b9050919050565b7f43616e6e6f74206d696e74206d6f7265207468616e20332074696d6500000000600082015250565b60006144e4601c8361354a565b91506144ef826144ae565b602082019050919050565b60006020820190508181036000830152614513816144d7565b9050919050565b7f4552433732313a2062616c616e636520717565727920666f7220746865207a6560008201527f726f206164647265737300000000000000000000000000000000000000000000602082015250565b6000614576602a8361354a565b91506145818261451a565b604082019050919050565b600060208201905081810360008301526145a581614569565b9050919050565b7f5072656d696e74206973206e6f74206163746976650000000000000000000000600082015250565b60006145e260158361354a565b91506145ed826145ac565b602082019050919050565b60006020820190508181036000830152614611816145d5565b9050919050565b7f4578636565646564206d617820617661696c61626c6520746f2070757263686160008201527f7365000000000000000000000000000000000000000000000000000000000000602082015250565b600061467460228361354a565b915061467f82614618565b604082019050919050565b600060208201905081810360008301526146a381614667565b9050919050565b60006146b582613a53565b91506146c083613a53565b9250828210156146d3576146d26141d6565b5b828203905092915050565b7f4552433732314d657461646174613a2055524920717565727920666f72206e6f60008201527f6e6578697374656e7420746f6b656e0000000000000000000000000000000000602082015250565b600061473a602f8361354a565b9150614745826146de565b604082019050919050565b600060208201905081810360008301526147698161472d565b9050919050565b600081905092915050565b60006147868261353f565b6147908185614770565b93506147a081856020860161355b565b80840191505092915050565b60006147b8828561477b565b91506147c4828461477b565b91508190509392505050565b7f4f776e61626c653a206e6577206f776e657220697320746865207a65726f206160008201527f6464726573730000000000000000000000000000000000000000000000000000602082015250565b600061482c60268361354a565b9150614837826147d0565b604082019050919050565b6000602082019050818103600083015261485b8161481f565b9050919050565b7f4552433732313a206f70657261746f7220717565727920666f72206e6f6e657860008201527f697374656e7420746f6b656e0000000000000000000000000000000000000000602082015250565b60006148be602c8361354a565b91506148c982614862565b604082019050919050565b600060208201905081810360008301526148ed816148b1565b9050919050565b7f4552433732313a207472616e73666572206f6620746f6b656e2074686174206960008201527f73206e6f74206f776e0000000000000000000000000000000000000000000000602082015250565b600061495060298361354a565b915061495b826148f4565b604082019050919050565b6000602082019050818103600083015261497f81614943565b9050919050565b7f4552433732313a207472616e7366657220746f20746865207a65726f2061646460008201527f7265737300000000000000000000000000000000000000000000000000000000602082015250565b60006149e260248361354a565b91506149ed82614986565b604082019050919050565b60006020820190508181036000830152614a11816149d5565b9050919050565b6000614a23826135fa565b9150614a2e836135fa565b925082821015614a4157614a406141d6565b5b828203905092915050565b7f4552433732313a20617070726f766520746f2063616c6c657200000000000000600082015250565b6000614a8260198361354a565b9150614a8d82614a4c565b602082019050919050565b60006020820190508181036000830152614ab181614a75565b9050919050565b7f4552433732313a207472616e7366657220746f206e6f6e20455243373231526560008201527f63656976657220696d706c656d656e7465720000000000000000000000000000602082015250565b6000614b1460328361354a565b9150614b1f82614ab8565b604082019050919050565b60006020820190508181036000830152614b4381614b07565b9050919050565b7f4e487b7100000000000000000000000000000000000000000000000000000000600052601260045260246000fd5b6000614b84826135fa565b9150614b8f836135fa565b925082614b9f57614b9e614b4a565b5b828204905092915050565b6000614bb5826135fa565b9150614bc0836135fa565b925082614bd057614bcf614b4a565b5b828206905092915050565b7f4e487b7100000000000000000000000000000000000000000000000000000000600052603160045260246000fd5b600081519050919050565b600082825260208201905092915050565b6000614c3182614c0a565b614c3b8185614c15565b9350614c4b81856020860161355b565b614c548161358e565b840191505092915050565b6000608082019050614c74600083018761368f565b614c81602083018661368f565b614c8e6040830185613725565b8181036060830152614ca08184614c26565b905095945050505050565b600081519050614cba816134b0565b92915050565b600060208284031215614cd657614cd561347a565b5b6000614ce484828501614cab565b91505092915050565b7f4552433732313a206d696e7420746f20746865207a65726f2061646472657373600082015250565b6000614d2360208361354a565b9150614d2e82614ced565b602082019050919050565b60006020820190508181036000830152614d5281614d16565b9050919050565b7f4552433732313a20746f6b656e20616c7265616479206d696e74656400000000600082015250565b6000614d8f601c8361354a565b9150614d9a82614d59565b602082019050919050565b60006020820190508181036000830152614dbe81614d82565b905091905056fea2646970667358221220ef17ee39027bff223b2449e48feb195e826977d47dc57c4698454edd508ba74164736f6c634300080a003368747470733a2f2f72617265626c6f636b732e78797a2f6170692f6d657461646174612f",
  "immutableReferences": {},
  "source": "// SPDX-License-Identifier: MIT\npragma solidity >0.5.2;\n\nimport '@openzeppelin/contracts/token/ERC721/ERC721.sol';\nimport '@openzeppelin/contracts/token/ERC721/extensions/ERC721Enumerable.sol';\nimport '@openzeppelin/contracts/access/Ownable.sol';\nimport '@openzeppelin/contracts/utils/Counters.sol';\nimport '@openzeppelin/contracts/token/ERC721/extensions/ERC721Pausable.sol';\n\n\n\n// Fix this contract later on\n// https://twitter.com/dillonraphael/status/1452616572896518156\n\ncontract RareBlocks is ERC721, ERC721Enumerable, Pausable, Ownable {\n    using Counters for Counters.Counter;\n    using Strings for uint256;\n\n    string _baseTokenURI = 'https://rareblocks.xyz/api/metadata/';\n    uint256 private _price = 0.08 ether;\n\n    uint256 RESERVED_FOUNDING_MEMBERS = 15;\n    uint256 ACCESS_PASS_SUPPLY = 500;\n\n    bool public preMintIsActive = false;\n    bool public openMintIsActive = false;\n\n    Counters.Counter private _tokenIdCounter;\n\n    event Mint(address indexed _address, uint256 tokenId);\n\n    mapping(address => uint8) private _allowList;\n\n    constructor() ERC721(\"RareBlocks Access Pass\", \"RAREBLOCKS\") {\n        for (uint i = 0; i < RESERVED_FOUNDING_MEMBERS; i++) {\n            _safeMint(msg.sender);\n        }\n    }\n\n    function setAllowList(address[] calldata addresses) external onlyOwner {\n        for (uint256 i = 0; i < addresses.length; i++) {\n            _allowList[addresses[i]] = 3;\n        }\n    }\n\n    function setPreMintActive(bool _preMintIsActive) external onlyOwner {\n        preMintIsActive = _preMintIsActive;\n    }\n\n    function setOpenMintActive(bool _openMintIsActive) external onlyOwner {\n        openMintIsActive = _openMintIsActive;\n    }\n\n    function preMint(address _to, uint8 numberOfTokens) whenNotPaused public payable  {\n        require(preMintIsActive, \"Premint is not active\");\n        require(_price * numberOfTokens <= msg.value, \"Ether value sent is not correct\");\n        require(_tokenIdCounter.current() + numberOfTokens <= ACCESS_PASS_SUPPLY, \"Can't mint over supply limit\");\n        require(numberOfTokens <= _allowList[_to], \"Exceeded max available to purchase\");\n        \n        _allowList[_to] -= numberOfTokens;\n\n        for (uint256 i = 0; i < numberOfTokens; i++) {\n            _tokenIdCounter.increment();\n            _safeMint(_to, _tokenIdCounter.current());\n            emit Mint(_to, _tokenIdCounter.current());\n        }\n    }\n\n    function mint(address _to, uint8 numberOfTokens) whenNotPaused public payable  {\n        require(openMintIsActive, \"Open mint is not active\");\n        require(_price * numberOfTokens <= msg.value, \"Ether value sent is not correct\");\n        require(_tokenIdCounter.current() + numberOfTokens <= ACCESS_PASS_SUPPLY, \"Can't mint over supply limit\");\n        require(numberOfTokens <= 3, \"Cannot mint more than 3 time\");\n\n        for (uint256 i = 0; i < numberOfTokens; i++) {\n                _tokenIdCounter.increment();\n                _safeMint(_to, _tokenIdCounter.current());\n                emit Mint(_to, _tokenIdCounter.current());\n        }\n    }\n\n    function getBalance() external view returns(uint) {\n        return address(this).balance;\n    }\n\n    function isAllowedToMint(address _address) external view returns(bool) {\n        if(!preMintIsActive && !openMintIsActive){\n            return false;\n        } else if(preMintIsActive && !openMintIsActive){\n            if(_allowList[_address] > 0){\n                return true;\n            }else{\n                return false;\n            }\n        } else if(preMintIsActive && openMintIsActive){\n            return true;\n        } else if(openMintIsActive){\n            return true;\n        } else {\n            return false;\n        }\n    }\n\n    function getPrice() external view returns (uint256) {\n        return _price;\n    }\n\n    function getTokenCount() external view returns (uint256) {\n        return _tokenIdCounter.current();\n    }\n\n    function getAccessPassSupply() external view returns (uint256) {\n        return ACCESS_PASS_SUPPLY;\n    }\n\n    function setPrice(uint256 price) public onlyOwner {\n        _price = price;\n    }\n\n    function withdraw() public onlyOwner {\n        uint balance = address(this).balance;\n        payable(msg.sender).transfer(balance);\n    }\n\n    function _baseURI() internal override view returns (string memory) {\n        return _baseTokenURI;\n    }\n\n    function pause() public onlyOwner whenNotPaused {\n        _pause();\n    }\n\n    function unpause()  public onlyOwner whenPaused {\n        _unpause();\n    }\n\n    function _safeMint(address to) public onlyOwner {\n        _tokenIdCounter.increment();\n\n        _safeMint(to, _tokenIdCounter.current());\n    }\n\n    function setBaseURI(string memory baseURI) public onlyOwner {\n        _baseTokenURI = baseURI;\n    }\n\n    function hasAccessPassToken(address wallet) public view returns (bool) {\n       return balanceOf(wallet) > 0;\n    }\n\n    function _beforeTokenTransfer(address from, address to, uint256 tokenId)\n        internal\n        whenNotPaused\n        override(ERC721, ERC721Enumerable)\n    {\n        super._beforeTokenTransfer(from, to, tokenId);\n    }\n\n    // The following functions are overrides required by Solidity.\n    function supportsInterface(bytes4 interfaceId)\n        public\n        view\n        override(ERC721, ERC721Enumerable)\n        returns (bool)\n    {\n        return super.supportsInterface(interfaceId);\n    }\n}\n",
  "sourcePath": "/Users/dannypostma/Development/rareblocks/ethereum/staking-pooled/contracts/RareBlocks.sol",
  "compiler": {
    "name": "solc",
    "version": "0.8.10+commit.fc410830.Emscripten.clang"
  },
  "schemaVersion": "3.4.3",
  "updatedAt": "2021-12-21T05:20:55.338Z",
  "networkType": "ethereum",
  "devdoc": {
    "kind": "dev",
    "methods": {
      "approve(address,uint256)": {
        "details": "See {IERC721-approve}."
      },
      "balanceOf(address)": {
        "details": "See {IERC721-balanceOf}."
      },
      "getApproved(uint256)": {
        "details": "See {IERC721-getApproved}."
      },
      "isApprovedForAll(address,address)": {
        "details": "See {IERC721-isApprovedForAll}."
      },
      "name()": {
        "details": "See {IERC721Metadata-name}."
      },
      "owner()": {
        "details": "Returns the address of the current owner."
      },
      "ownerOf(uint256)": {
        "details": "See {IERC721-ownerOf}."
      },
      "paused()": {
        "details": "Returns true if the contract is paused, and false otherwise."
      },
      "renounceOwnership()": {
        "details": "Leaves the contract without owner. It will not be possible to call `onlyOwner` functions anymore. Can only be called by the current owner. NOTE: Renouncing ownership will leave the contract without an owner, thereby removing any functionality that is only available to the owner."
      },
      "safeTransferFrom(address,address,uint256)": {
        "details": "See {IERC721-safeTransferFrom}."
      },
      "safeTransferFrom(address,address,uint256,bytes)": {
        "details": "See {IERC721-safeTransferFrom}."
      },
      "setApprovalForAll(address,bool)": {
        "details": "See {IERC721-setApprovalForAll}."
      },
      "symbol()": {
        "details": "See {IERC721Metadata-symbol}."
      },
      "tokenByIndex(uint256)": {
        "details": "See {IERC721Enumerable-tokenByIndex}."
      },
      "tokenOfOwnerByIndex(address,uint256)": {
        "details": "See {IERC721Enumerable-tokenOfOwnerByIndex}."
      },
      "tokenURI(uint256)": {
        "details": "See {IERC721Metadata-tokenURI}."
      },
      "totalSupply()": {
        "details": "See {IERC721Enumerable-totalSupply}."
      },
      "transferFrom(address,address,uint256)": {
        "details": "See {IERC721-transferFrom}."
      },
      "transferOwnership(address)": {
        "details": "Transfers ownership of the contract to a new account (`newOwner`). Can only be called by the current owner."
      }
    },
    "version": 1
  },
  "userdoc": {
    "kind": "user",
    "methods": {},
    "version": 1
  }
}