{
  "contractName": "Rent",
  "abi": [
    {
      "inputs": [
        {
          "internalType": "uint256",
          "name": "price",
          "type": "uint256"
        },
        {
          "internalType": "address",
          "name": "_stakeAddress",
          "type": "address"
        },
        {
          "internalType": "address",
          "name": "_treasuryAddress",
          "type": "address"
        }
      ],
      "stateMutability": "nonpayable",
      "type": "constructor"
    },
    {
      "anonymous": false,
      "inputs": [
        {
          "indexed": true,
          "internalType": "address",
          "name": "previousOwner",
          "type": "address"
        },
        {
          "indexed": true,
          "internalType": "address",
          "name": "newOwner",
          "type": "address"
        }
      ],
      "name": "OwnershipTransferred",
      "type": "event"
    },
    {
      "anonymous": false,
      "inputs": [
        {
          "indexed": true,
          "internalType": "uint256",
          "name": "_amount",
          "type": "uint256"
        }
      ],
      "name": "Payout",
      "type": "event"
    },
    {
      "anonymous": false,
      "inputs": [
        {
          "indexed": true,
          "internalType": "address",
          "name": "_address",
          "type": "address"
        }
      ],
      "name": "Rented",
      "type": "event"
    },
    {
      "anonymous": false,
      "inputs": [
        {
          "indexed": true,
          "internalType": "address",
          "name": "newAddress",
          "type": "address"
        }
      ],
      "name": "UpdateAddress",
      "type": "event"
    },
    {
      "inputs": [],
      "name": "owner",
      "outputs": [
        {
          "internalType": "address",
          "name": "",
          "type": "address"
        }
      ],
      "stateMutability": "view",
      "type": "function"
    },
    {
      "inputs": [],
      "name": "renounceOwnership",
      "outputs": [],
      "stateMutability": "nonpayable",
      "type": "function"
    },
    {
      "inputs": [
        {
          "internalType": "address",
          "name": "newOwner",
          "type": "address"
        }
      ],
      "name": "transferOwnership",
      "outputs": [],
      "stateMutability": "nonpayable",
      "type": "function"
    },
    {
      "inputs": [
        {
          "internalType": "address",
          "name": "_address",
          "type": "address"
        }
      ],
      "name": "setStakeContractAddress",
      "outputs": [],
      "stateMutability": "nonpayable",
      "type": "function"
    },
    {
      "inputs": [
        {
          "internalType": "address",
          "name": "_address",
          "type": "address"
        }
      ],
      "name": "setTreasuryAddress",
      "outputs": [],
      "stateMutability": "nonpayable",
      "type": "function"
    },
    {
      "inputs": [
        {
          "internalType": "bool",
          "name": "status",
          "type": "bool"
        }
      ],
      "name": "setIsRentable",
      "outputs": [],
      "stateMutability": "nonpayable",
      "type": "function"
    },
    {
      "inputs": [],
      "name": "rent",
      "outputs": [],
      "stateMutability": "payable",
      "type": "function"
    },
    {
      "inputs": [
        {
          "internalType": "address",
          "name": "_address",
          "type": "address"
        }
      ],
      "name": "isRentActive",
      "outputs": [
        {
          "internalType": "bool",
          "name": "",
          "type": "bool"
        }
      ],
      "stateMutability": "view",
      "type": "function"
    },
    {
      "inputs": [
        {
          "internalType": "address",
          "name": "_address",
          "type": "address"
        }
      ],
      "name": "getRentEndDate",
      "outputs": [
        {
          "internalType": "uint256",
          "name": "",
          "type": "uint256"
        }
      ],
      "stateMutability": "view",
      "type": "function"
    },
    {
      "inputs": [],
      "name": "getNumberOfAvailableForRent",
      "outputs": [
        {
          "internalType": "uint256",
          "name": "",
          "type": "uint256"
        }
      ],
      "stateMutability": "view",
      "type": "function"
    },
    {
      "inputs": [],
      "name": "getRentPrice",
      "outputs": [
        {
          "internalType": "uint256",
          "name": "",
          "type": "uint256"
        }
      ],
      "stateMutability": "view",
      "type": "function"
    },
    {
      "inputs": [
        {
          "internalType": "uint256",
          "name": "price",
          "type": "uint256"
        }
      ],
      "name": "setRentPrice",
      "outputs": [],
      "stateMutability": "nonpayable",
      "type": "function"
    },
    {
      "inputs": [],
      "name": "payoutCommissionToTreasury",
      "outputs": [],
      "stateMutability": "payable",
      "type": "function"
    }
  ],
  "bytecode": "0x60806040523480156200001157600080fd5b5060405162001dc438038062001dc48339818101604052810190620000379190620004c3565b620000576200004b620000bc60201b60201c565b620000c460201b60201c565b62000068826200018860201b60201c565b6200007981620002df60201b60201c565b4260028190555060026004819055506101f4600681905550826005819055506000600760006101000a81548160ff021916908315150217905550505050620005a2565b600033905090565b60008060009054906101000a900473ffffffffffffffffffffffffffffffffffffffff169050816000806101000a81548173ffffffffffffffffffffffffffffffffffffffff021916908373ffffffffffffffffffffffffffffffffffffffff1602179055508173ffffffffffffffffffffffffffffffffffffffff168173ffffffffffffffffffffffffffffffffffffffff167f8be0079c531659141344cd1fd0a4f28419497f9722a3daafe3b4186f6b6457e060405160405180910390a35050565b62000198620000bc60201b60201c565b73ffffffffffffffffffffffffffffffffffffffff16620001be620003f560201b60201c565b73ffffffffffffffffffffffffffffffffffffffff161462000217576040517f08c379a00000000000000000000000000000000000000000000000000000000081526004016200020e9062000580565b60405180910390fd5b80600760016101000a81548173ffffffffffffffffffffffffffffffffffffffff021916908373ffffffffffffffffffffffffffffffffffffffff16021790555080600160006101000a81548173ffffffffffffffffffffffffffffffffffffffff021916908373ffffffffffffffffffffffffffffffffffffffff1602179055508073ffffffffffffffffffffffffffffffffffffffff167f635e2c8c62c7efd24a472b298c7ed46c21347695117bfc006a616197edfc530660405160405180910390a250565b620002ef620000bc60201b60201c565b73ffffffffffffffffffffffffffffffffffffffff1662000315620003f560201b60201c565b73ffffffffffffffffffffffffffffffffffffffff16146200036e576040517f08c379a0000000000000000000000000000000000000000000000000000000008152600401620003659062000580565b60405180910390fd5b80600860006101000a81548173ffffffffffffffffffffffffffffffffffffffff021916908373ffffffffffffffffffffffffffffffffffffffff1602179055508073ffffffffffffffffffffffffffffffffffffffff167f635e2c8c62c7efd24a472b298c7ed46c21347695117bfc006a616197edfc530660405160405180910390a250565b60008060009054906101000a900473ffffffffffffffffffffffffffffffffffffffff16905090565b600080fd5b6000819050919050565b620004388162000423565b81146200044457600080fd5b50565b60008151905062000458816200042d565b92915050565b600073ffffffffffffffffffffffffffffffffffffffff82169050919050565b60006200048b826200045e565b9050919050565b6200049d816200047e565b8114620004a957600080fd5b50565b600081519050620004bd8162000492565b92915050565b600080600060608486031215620004df57620004de6200041e565b5b6000620004ef8682870162000447565b93505060206200050286828701620004ac565b92505060406200051586828701620004ac565b9150509250925092565b600082825260208201905092915050565b7f4f776e61626c653a2063616c6c6572206973206e6f7420746865206f776e6572600082015250565b6000620005686020836200051f565b9150620005758262000530565b602082019050919050565b600060208201905081810360008301526200059b8162000559565b9050919050565b61181280620005b26000396000f3fe6080604052600436106100c25760003560e01c8063715018a61161007f57806392aa78b11161005957806392aa78b114610202578063f2fde38b1461022b578063f90c650814610254578063fe97859214610291576100c2565b8063715018a6146101b657806382996d9f146101cd5780638da5cb5b146101d7576100c2565b806301b6965a146100c75780631a72270f146100f05780632f93b5b31461011b578063548eb03e146101465780636605bfda14610183578063700aa445146101ac575b600080fd5b3480156100d357600080fd5b506100ee60048036038101906100e99190611045565b6102ba565b005b3480156100fc57600080fd5b506101056103fe565b604051610112919061108b565b60405180910390f35b34801561012757600080fd5b50610130610521565b60405161013d919061108b565b60405180910390f35b34801561015257600080fd5b5061016d60048036038101906101689190611045565b61052b565b60405161017a919061108b565b60405180910390f35b34801561018f57600080fd5b506101aa60048036038101906101a59190611045565b610574565b005b6101b4610677565b005b3480156101c257600080fd5b506101cb6107be565b005b6101d5610846565b005b3480156101e357600080fd5b506101ec610c5a565b6040516101f991906110b5565b60405180910390f35b34801561020e57600080fd5b50610229600480360381019061022491906110fc565b610c83565b005b34801561023757600080fd5b50610252600480360381019061024d9190611045565b610d09565b005b34801561026057600080fd5b5061027b60048036038101906102769190611045565b610e01565b6040516102889190611144565b60405180910390f35b34801561029d57600080fd5b506102b860048036038101906102b3919061118b565b610e4c565b005b6102c2610ee5565b73ffffffffffffffffffffffffffffffffffffffff166102e0610c5a565b73ffffffffffffffffffffffffffffffffffffffff1614610336576040517f08c379a000000000000000000000000000000000000000000000000000000000815260040161032d90611215565b60405180910390fd5b80600760016101000a81548173ffffffffffffffffffffffffffffffffffffffff021916908373ffffffffffffffffffffffffffffffffffffffff16021790555080600160006101000a81548173ffffffffffffffffffffffffffffffffffffffff021916908373ffffffffffffffffffffffffffffffffffffffff1602179055508073ffffffffffffffffffffffffffffffffffffffff167f635e2c8c62c7efd24a472b298c7ed46c21347695117bfc006a616197edfc530660405160405180910390a250565b600080601e6018603c806103e8600254426104199190611264565b61042391906112c7565b61042d91906112c7565b61043791906112c7565b61044191906112c7565b61044b91906112c7565b90506000600160009054906101000a900473ffffffffffffffffffffffffffffffffffffffff1673ffffffffffffffffffffffffffffffffffffffff1663ec8ecea86040518163ffffffff1660e01b8152600401602060405180830381865afa1580156104bc573d6000803e3d6000fd5b505050506040513d601f19601f820116820180604052508101906104e0919061130d565b90506000600a60045483856104f5919061133a565b6104ff919061133a565b6105099190611394565b9050600354816105199190611264565b935050505090565b6000600554905090565b6000600960008373ffffffffffffffffffffffffffffffffffffffff1673ffffffffffffffffffffffffffffffffffffffff168152602001908152602001600020549050919050565b61057c610ee5565b73ffffffffffffffffffffffffffffffffffffffff1661059a610c5a565b73ffffffffffffffffffffffffffffffffffffffff16146105f0576040517f08c379a00000000000000000000000000000000000000000000000000000000081526004016105e790611215565b60405180910390fd5b80600860006101000a81548173ffffffffffffffffffffffffffffffffffffffff021916908373ffffffffffffffffffffffffffffffffffffffff1602179055508073ffffffffffffffffffffffffffffffffffffffff167f635e2c8c62c7efd24a472b298c7ed46c21347695117bfc006a616197edfc530660405160405180910390a250565b6000479050600081116106bf576040517f08c379a00000000000000000000000000000000000000000000000000000000081526004016106b690611436565b60405180910390fd5b6000600860009054906101000a900473ffffffffffffffffffffffffffffffffffffffff1673ffffffffffffffffffffffffffffffffffffffff168260405161070790611487565b60006040518083038185875af1925050503d8060008114610744576040519150601f19603f3d011682016040523d82523d6000602084013e610749565b606091505b505090508061078d576040517f08c379a00000000000000000000000000000000000000000000000000000000081526004016107849061150e565b60405180910390fd5b817f22427047e1a674a9aff59700a2c8d00ea96e017ddf9236690bdedf1f21f28d9d60405160405180910390a25050565b6107c6610ee5565b73ffffffffffffffffffffffffffffffffffffffff166107e4610c5a565b73ffffffffffffffffffffffffffffffffffffffff161461083a576040517f08c379a000000000000000000000000000000000000000000000000000000000815260040161083190611215565b60405180910390fd5b6108446000610eed565b565b600760009054906101000a900460ff16610895576040517f08c379a000000000000000000000000000000000000000000000000000000000815260040161088c9061157a565b60405180910390fd5b6000600160009054906101000a900473ffffffffffffffffffffffffffffffffffffffff1673ffffffffffffffffffffffffffffffffffffffff1663ec8ecea86040518163ffffffff1660e01b8152600401602060405180830381865afa158015610904573d6000803e3d6000fd5b505050506040513d601f19601f82011682018060405250810190610928919061130d565b90506000811161096d576040517f08c379a0000000000000000000000000000000000000000000000000000000008152600401610964906115e6565b60405180910390fd5b6005543410156109b2576040517f08c379a00000000000000000000000000000000000000000000000000000000081526004016109a990611652565b60405180910390fd5b6000601e6018603c806103e8600254426109cc9190611264565b6109d691906112c7565b6109e091906112c7565b6109ea91906112c7565b6109f491906112c7565b6109fe91906112c7565b90506000600a6004548484610a13919061133a565b610a1d919061133a565b610a279190611394565b90506003548111610a6d576040517f08c379a0000000000000000000000000000000000000000000000000000000008152600401610a64906116be565b60405180910390fd5b600960003373ffffffffffffffffffffffffffffffffffffffff1673ffffffffffffffffffffffffffffffffffffffff168152602001908152602001600020544211610aee576040517f08c379a0000000000000000000000000000000000000000000000000000000008152600401610ae59061172a565b60405180910390fd5b60055434610afc91906112c7565b62278d00610b0a919061133a565b42610b159190611394565b600960003373ffffffffffffffffffffffffffffffffffffffff1673ffffffffffffffffffffffffffffffffffffffff16815260200190815260200160002081905550600160036000828254610b6b9190611394565b925050819055506000610b8034600654610fb1565b90506000600760019054906101000a900473ffffffffffffffffffffffffffffffffffffffff1673ffffffffffffffffffffffffffffffffffffffff1682604051610bca90611487565b60006040518083038185875af1925050503d8060008114610c07576040519150601f19603f3d011682016040523d82523d6000602084013e610c0c565b606091505b505090503373ffffffffffffffffffffffffffffffffffffffff167f18ae6638be53d8a225d874e2755866e292376637d786506bf60355f3d13654b960405160405180910390a25050505050565b60008060009054906101000a900473ffffffffffffffffffffffffffffffffffffffff16905090565b610c8b610ee5565b73ffffffffffffffffffffffffffffffffffffffff16610ca9610c5a565b73ffffffffffffffffffffffffffffffffffffffff1614610cff576040517f08c379a0000000000000000000000000000000000000000000000000000000008152600401610cf690611215565b60405180910390fd5b8060058190555050565b610d11610ee5565b73ffffffffffffffffffffffffffffffffffffffff16610d2f610c5a565b73ffffffffffffffffffffffffffffffffffffffff1614610d85576040517f08c379a0000000000000000000000000000000000000000000000000000000008152600401610d7c90611215565b60405180910390fd5b600073ffffffffffffffffffffffffffffffffffffffff168173ffffffffffffffffffffffffffffffffffffffff161415610df5576040517f08c379a0000000000000000000000000000000000000000000000000000000008152600401610dec906117bc565b60405180910390fd5b610dfe81610eed565b50565b6000600960008373ffffffffffffffffffffffffffffffffffffffff1673ffffffffffffffffffffffffffffffffffffffff1681526020019081526020016000205442109050919050565b610e54610ee5565b73ffffffffffffffffffffffffffffffffffffffff16610e72610c5a565b73ffffffffffffffffffffffffffffffffffffffff1614610ec8576040517f08c379a0000000000000000000000000000000000000000000000000000000008152600401610ebf90611215565b60405180910390fd5b80600760006101000a81548160ff02191690831515021790555050565b600033905090565b60008060009054906101000a900473ffffffffffffffffffffffffffffffffffffffff169050816000806101000a81548173ffffffffffffffffffffffffffffffffffffffff021916908373ffffffffffffffffffffffffffffffffffffffff1602179055508173ffffffffffffffffffffffffffffffffffffffff168173ffffffffffffffffffffffffffffffffffffffff167f8be0079c531659141344cd1fd0a4f28419497f9722a3daafe3b4186f6b6457e060405160405180910390a35050565b60008162989680610fc291906112c7565b61271084610fd0919061133a565b610fda91906112c7565b905092915050565b600080fd5b600073ffffffffffffffffffffffffffffffffffffffff82169050919050565b600061101282610fe7565b9050919050565b61102281611007565b811461102d57600080fd5b50565b60008135905061103f81611019565b92915050565b60006020828403121561105b5761105a610fe2565b5b600061106984828501611030565b91505092915050565b6000819050919050565b61108581611072565b82525050565b60006020820190506110a0600083018461107c565b92915050565b6110af81611007565b82525050565b60006020820190506110ca60008301846110a6565b92915050565b6110d981611072565b81146110e457600080fd5b50565b6000813590506110f6816110d0565b92915050565b60006020828403121561111257611111610fe2565b5b6000611120848285016110e7565b91505092915050565b60008115159050919050565b61113e81611129565b82525050565b60006020820190506111596000830184611135565b92915050565b61116881611129565b811461117357600080fd5b50565b6000813590506111858161115f565b92915050565b6000602082840312156111a1576111a0610fe2565b5b60006111af84828501611176565b91505092915050565b600082825260208201905092915050565b7f4f776e61626c653a2063616c6c6572206973206e6f7420746865206f776e6572600082015250565b60006111ff6020836111b8565b915061120a826111c9565b602082019050919050565b6000602082019050818103600083015261122e816111f2565b9050919050565b7f4e487b7100000000000000000000000000000000000000000000000000000000600052601160045260246000fd5b600061126f82611072565b915061127a83611072565b92508282101561128d5761128c611235565b5b828203905092915050565b7f4e487b7100000000000000000000000000000000000000000000000000000000600052601260045260246000fd5b60006112d282611072565b91506112dd83611072565b9250826112ed576112ec611298565b5b828204905092915050565b600081519050611307816110d0565b92915050565b60006020828403121561132357611322610fe2565b5b6000611331848285016112f8565b91505092915050565b600061134582611072565b915061135083611072565b9250817fffffffffffffffffffffffffffffffffffffffffffffffffffffffffffffffff048311821515161561138957611388611235565b5b828202905092915050565b600061139f82611072565b91506113aa83611072565b9250827fffffffffffffffffffffffffffffffffffffffffffffffffffffffffffffffff038211156113df576113de611235565b5b828201905092915050565b7f436f6e74726163742062616c616e636520697320656d70747900000000000000600082015250565b60006114206019836111b8565b915061142b826113ea565b602082019050919050565b6000602082019050818103600083015261144f81611413565b9050919050565b600081905092915050565b50565b6000611471600083611456565b915061147c82611461565b600082019050919050565b600061149282611464565b9150819050919050565b7f4661696c656420746f2073656e6420457468657220746f205374616b6520636f60008201527f6e74726163740000000000000000000000000000000000000000000000000000602082015250565b60006114f86026836111b8565b91506115038261149c565b604082019050919050565b60006020820190508181036000830152611527816114eb565b9050919050565b7f52656e74696e672069732063757272656e746c79206f66666c696e6500000000600082015250565b6000611564601c836111b8565b915061156f8261152e565b602082019050919050565b6000602082019050818103600083015261159381611557565b9050919050565b7f4e6f207061737365732068617665206265656e207374616b6564000000000000600082015250565b60006115d0601a836111b8565b91506115db8261159a565b602082019050919050565b600060208201905081810360008301526115ff816115c3565b9050919050565b7f4e6f7420656e6f75676820657468657200000000000000000000000000000000600082015250565b600061163c6010836111b8565b915061164782611606565b602082019050919050565b6000602082019050818103600083015261166b8161162f565b9050919050565b7f4d6178696d756d2072656e74616c2074696d6573207265616368656400000000600082015250565b60006116a8601c836111b8565b91506116b382611672565b602082019050919050565b600060208201905081810360008301526116d78161169b565b9050919050565b7f596f75207374696c6c206861766520616e206163746976652072656e74616c00600082015250565b6000611714601f836111b8565b915061171f826116de565b602082019050919050565b6000602082019050818103600083015261174381611707565b9050919050565b7f4f776e61626c653a206e6577206f776e657220697320746865207a65726f206160008201527f6464726573730000000000000000000000000000000000000000000000000000602082015250565b60006117a66026836111b8565b91506117b18261174a565b604082019050919050565b600060208201905081810360008301526117d581611799565b905091905056fea2646970667358221220bca60c6c4cbdc58d7541aeac5ed110721713e48e2fbba6754db3f44e33d32dc464736f6c634300080b0033",
  "immutableReferences": {},
  "source": "// SPDX-License-Identifier: MIT\npragma solidity ^0.8.10;\n\nimport \"@openzeppelin/contracts/access/Ownable.sol\";\n\nabstract contract StakeInterface {\n  function getTotalOutstandingShares() external view virtual returns (uint256 totalOutstandingShares); // Count amount of staked access passes\n}\n\ncontract Rent is Ownable {\n  StakeInterface stake;\n\n  uint256 deployDate; // Timestamp of deployment\n  uint256 totalTimesRented; // Track total amount pass has been rented\n  uint256 rentalMultiplier; // Rent multiplier to increase rent supply\n  uint256 _price; // Rental price\n  uint256 stakerCommission; // Commission for stakers\n\n  bool isRentable; // Contract open for renting\n\n  address stakeContractAddress;\n  address treasuryAddress;\n\n  mapping(address => uint256) rentDateExpiry; // Track renter\n\n  event Rented(address indexed _address); // Renting event\n  event UpdateAddress(address indexed newAddress); // When a token has added to the rent list\n  event Payout(uint256 indexed _amount); // Payout all stakers\n\n  constructor(uint256 price, address _stakeAddress, address _treasuryAddress) {\n    setStakeContractAddress(_stakeAddress); // Staking Contract Address\n    setTreasuryAddress(_treasuryAddress); // Staking Contract Address\n\n    deployDate = block.timestamp;\n    rentalMultiplier = 2;\n    stakerCommission = 500;\n    _price = price;\n    isRentable = false;\n  }\n\n  function setStakeContractAddress(address _address) public onlyOwner {\n    stakeContractAddress = _address;\n    stake = StakeInterface(_address);\n    emit UpdateAddress(_address);\n  }\n  function setTreasuryAddress(address _address) public onlyOwner {\n    treasuryAddress = _address;\n    emit UpdateAddress(_address);\n  }\n\n  function divByPercentage(uint256 amount, uint256 proportion) internal pure returns (uint256){\n    // @dev double check this formula, was previously wrong\n    return (amount * 10000) / (10000000 / proportion);\n  }\n\n  // Change if customers can rent or not\n  function setIsRentable(bool status) public onlyOwner {\n    isRentable = status;\n  }\n\n  // Rent a pass\n  function rent() external payable {\n    require(isRentable, \"Renting is currently offline\");\n    \n    /// @dev Get total amount of staked NFTs in Stake contract\n    uint256 totalOutstandingShares = stake.getTotalOutstandingShares();\n    require(totalOutstandingShares > 0, \"No passes have been staked\");\n\n    require(msg.value >= _price, \"Not enough ether\"); // Make sure the sender has enough ether to rent a pass\n\n    /// @dev Check months since deployed. This assume 1 month is 30 days.\n    uint256 monthsSinceDeploy = (block.timestamp - deployDate) / 1000 / 60 / 60 / 24 / 30;\n\n    /// @dev Get max rent limit per month multiplied by rental multiplier.\n    /// @notice If no one rent out passes within the month, the max limit will keep on increasing.\n    uint256 rentalMaxLimit = (monthsSinceDeploy * totalOutstandingShares * rentalMultiplier) + 10; // Minimum of 10\n    require(rentalMaxLimit > totalTimesRented, \"Maximum rental times reached\");\n\n    require( block.timestamp > rentDateExpiry[msg.sender], \"You still have an active rental\");\n\n    /// @notice Record expiry date in a map. Multiply days to support multi-month rentals.    \n    rentDateExpiry[msg.sender] = uint256(block.timestamp) + (30 days * (msg.value / _price));\n    totalTimesRented += 1; // Increment total times rented\n\n    uint256 stakerCommissionPayout = divByPercentage(msg.value, stakerCommission); \n    (bool success, ) = payable(stakeContractAddress).call{ // Direct payment to Stake contract\n      value: stakerCommissionPayout\n    }(\"\");\n\n    emit Rented(msg.sender);\n  }\n\n  // Check if renter has active rent\n  function isRentActive(address _address) external view returns (bool) {\n    return block.timestamp < rentDateExpiry[_address]; // Check if current timestamp is less than expiry\n  }\n\n  function getRentEndDate(address _address) external view returns (uint256) {\n    return rentDateExpiry[_address]; // Returns end date of rental\n  }\n\n  function getNumberOfAvailableForRent() external view returns (uint256){\n    uint256 monthsSinceDeploy = (block.timestamp - deployDate) / 1000 / 60 / 60 / 24 / 30;\n    uint256 totalOutstandingShares = stake.getTotalOutstandingShares();\n    uint256 rentalMaxLimit = (monthsSinceDeploy * totalOutstandingShares * rentalMultiplier) + 10; // Minimum of 10\n    return rentalMaxLimit - totalTimesRented;\n  }\n\n  function getRentPrice() external view returns (uint256) {\n    return _price;\n  }\n\n  function setRentPrice(uint256 price) public onlyOwner {\n    _price = price;\n  }\n\n  /// @dev Send full balance to staking contract\n  function payoutCommissionToTreasury() external payable{\n    uint256 contractBalance = address(this).balance;\n    require(contractBalance > 0, \"Contract balance is empty\");\n    \n    (bool success, ) = payable(treasuryAddress).call{\n      value: contractBalance\n    }(\"\");\n    require(success, \"Failed to send Ether to Stake contract\");\n    emit Payout(contractBalance);\n  }\n  \n}\n",
  "sourcePath": "/Users/dannypostma/Development/rareblocks/ethereum/staking-pooled/contracts/Rent.sol",
  "compiler": {
    "name": "solc",
    "version": "0.8.11+commit.d7f03943.Emscripten.clang"
  },
  "schemaVersion": "3.4.3",
  "updatedAt": "2021-12-21T11:15:07.994Z",
  "devdoc": {
    "kind": "dev",
    "methods": {
      "owner()": {
        "details": "Returns the address of the current owner."
      },
      "payoutCommissionToTreasury()": {
        "details": "Send full balance to staking contract"
      },
      "renounceOwnership()": {
        "details": "Leaves the contract without owner. It will not be possible to call `onlyOwner` functions anymore. Can only be called by the current owner. NOTE: Renouncing ownership will leave the contract without an owner, thereby removing any functionality that is only available to the owner."
      },
      "transferOwnership(address)": {
        "details": "Transfers ownership of the contract to a new account (`newOwner`). Can only be called by the current owner."
      }
    },
    "version": 1
  },
  "userdoc": {
    "kind": "user",
    "methods": {},
    "version": 1
  }
}