{
  "contractName": "RentingPooled",
  "abi": [
    {
      "inputs": [
        {
          "internalType": "uint256",
          "name": "price",
          "type": "uint256"
        }
      ],
      "stateMutability": "nonpayable",
      "type": "constructor"
    },
    {
      "anonymous": false,
      "inputs": [
        {
          "indexed": true,
          "internalType": "address",
          "name": "previousOwner",
          "type": "address"
        },
        {
          "indexed": true,
          "internalType": "address",
          "name": "newOwner",
          "type": "address"
        }
      ],
      "name": "OwnershipTransferred",
      "type": "event"
    },
    {
      "anonymous": false,
      "inputs": [
        {
          "indexed": true,
          "internalType": "uint256",
          "name": "treasury",
          "type": "uint256"
        }
      ],
      "name": "Payout",
      "type": "event"
    },
    {
      "anonymous": false,
      "inputs": [
        {
          "indexed": true,
          "internalType": "address",
          "name": "_address",
          "type": "address"
        }
      ],
      "name": "Rented",
      "type": "event"
    },
    {
      "anonymous": false,
      "inputs": [
        {
          "indexed": true,
          "internalType": "address",
          "name": "newAddress",
          "type": "address"
        }
      ],
      "name": "SetRareblocksContractAddress",
      "type": "event"
    },
    {
      "anonymous": false,
      "inputs": [
        {
          "indexed": true,
          "internalType": "address",
          "name": "from",
          "type": "address"
        },
        {
          "indexed": true,
          "internalType": "uint256",
          "name": "tokenId",
          "type": "uint256"
        },
        {
          "indexed": false,
          "internalType": "address",
          "name": "sender",
          "type": "address"
        }
      ],
      "name": "Staked",
      "type": "event"
    },
    {
      "anonymous": false,
      "inputs": [
        {
          "indexed": true,
          "internalType": "address",
          "name": "_from",
          "type": "address"
        },
        {
          "indexed": true,
          "internalType": "uint256",
          "name": "tokenId",
          "type": "uint256"
        }
      ],
      "name": "Unstaked",
      "type": "event"
    },
    {
      "anonymous": false,
      "inputs": [
        {
          "indexed": true,
          "internalType": "address",
          "name": "newAddress",
          "type": "address"
        }
      ],
      "name": "UpdateTreasury",
      "type": "event"
    },
    {
      "inputs": [],
      "name": "owner",
      "outputs": [
        {
          "internalType": "address",
          "name": "",
          "type": "address"
        }
      ],
      "stateMutability": "view",
      "type": "function",
      "constant": true
    },
    {
      "inputs": [],
      "name": "renounceOwnership",
      "outputs": [],
      "stateMutability": "nonpayable",
      "type": "function"
    },
    {
      "inputs": [
        {
          "internalType": "address",
          "name": "newOwner",
          "type": "address"
        }
      ],
      "name": "transferOwnership",
      "outputs": [],
      "stateMutability": "nonpayable",
      "type": "function"
    },
    {
      "inputs": [
        {
          "internalType": "address",
          "name": "_rbAddress",
          "type": "address"
        }
      ],
      "name": "setRareblocksContractAddress",
      "outputs": [],
      "stateMutability": "nonpayable",
      "type": "function"
    },
    {
      "inputs": [
        {
          "internalType": "address",
          "name": "_newAddress",
          "type": "address"
        }
      ],
      "name": "updateTreasury",
      "outputs": [],
      "stateMutability": "nonpayable",
      "type": "function"
    },
    {
      "inputs": [
        {
          "internalType": "address",
          "name": "_from",
          "type": "address"
        },
        {
          "internalType": "address",
          "name": "",
          "type": "address"
        },
        {
          "internalType": "uint256",
          "name": "_tokenId",
          "type": "uint256"
        },
        {
          "internalType": "bytes",
          "name": "",
          "type": "bytes"
        }
      ],
      "name": "onERC721Received",
      "outputs": [
        {
          "internalType": "bytes4",
          "name": "",
          "type": "bytes4"
        }
      ],
      "stateMutability": "nonpayable",
      "type": "function"
    },
    {
      "inputs": [],
      "name": "rent",
      "outputs": [],
      "stateMutability": "payable",
      "type": "function",
      "payable": true
    },
    {
      "inputs": [
        {
          "internalType": "address",
          "name": "_address",
          "type": "address"
        }
      ],
      "name": "isRentActive",
      "outputs": [
        {
          "internalType": "bool",
          "name": "",
          "type": "bool"
        }
      ],
      "stateMutability": "view",
      "type": "function",
      "constant": true
    },
    {
      "inputs": [
        {
          "internalType": "address",
          "name": "_address",
          "type": "address"
        }
      ],
      "name": "getTokensStakedByAddress",
      "outputs": [
        {
          "internalType": "uint256[]",
          "name": "",
          "type": "uint256[]"
        }
      ],
      "stateMutability": "view",
      "type": "function",
      "constant": true
    },
    {
      "inputs": [
        {
          "internalType": "uint256",
          "name": "_tokenId",
          "type": "uint256"
        }
      ],
      "name": "stakeAndPurchaseTreasuryStock",
      "outputs": [],
      "stateMutability": "payable",
      "type": "function",
      "payable": true
    },
    {
      "inputs": [
        {
          "internalType": "uint256",
          "name": "_tokenId",
          "type": "uint256"
        }
      ],
      "name": "unstakeAccessPass",
      "outputs": [],
      "stateMutability": "payable",
      "type": "function",
      "payable": true
    },
    {
      "inputs": [],
      "name": "payoutStakers",
      "outputs": [],
      "stateMutability": "payable",
      "type": "function",
      "payable": true
    },
    {
      "inputs": [],
      "name": "getRentPrice",
      "outputs": [
        {
          "internalType": "uint256",
          "name": "",
          "type": "uint256"
        }
      ],
      "stateMutability": "view",
      "type": "function",
      "constant": true
    },
    {
      "inputs": [
        {
          "internalType": "uint256",
          "name": "price",
          "type": "uint256"
        }
      ],
      "name": "setRentPrice",
      "outputs": [],
      "stateMutability": "nonpayable",
      "type": "function"
    },
    {
      "inputs": [],
      "name": "getTotalOutstandingShares",
      "outputs": [
        {
          "internalType": "uint256",
          "name": "",
          "type": "uint256"
        }
      ],
      "stateMutability": "view",
      "type": "function",
      "constant": true
    },
    {
      "inputs": [
        {
          "internalType": "address",
          "name": "owner",
          "type": "address"
        }
      ],
      "name": "getSharesPerWallet",
      "outputs": [
        {
          "internalType": "uint256",
          "name": "",
          "type": "uint256"
        }
      ],
      "stateMutability": "view",
      "type": "function",
      "constant": true
    },
    {
      "inputs": [],
      "name": "getTotalValueInTreasury",
      "outputs": [
        {
          "internalType": "uint256",
          "name": "",
          "type": "uint256"
        }
      ],
      "stateMutability": "view",
      "type": "function",
      "constant": true
    }
  ],
  "bytecode": "0x60806040526000600a553480156200001657600080fd5b50604051620031e3380380620031e383398181016040528101906200003c919062000387565b6200005c62000050620000fb60201b60201c565b6200010360201b60201c565b62000081731bb191e56206e11b14117711c333cc18b9861262620001c760201b60201c565b7396e7c3baa9c1ef234a1f85562a6c444213a02e0a600960006101000a81548173ffffffffffffffffffffffffffffffffffffffff021916908373ffffffffffffffffffffffffffffffffffffffff16021790555042600281905550600260048190555080600c819055506064600881905550506200043c565b600033905090565b60008060009054906101000a900473ffffffffffffffffffffffffffffffffffffffff169050816000806101000a81548173ffffffffffffffffffffffffffffffffffffffff021916908373ffffffffffffffffffffffffffffffffffffffff1602179055508173ffffffffffffffffffffffffffffffffffffffff168173ffffffffffffffffffffffffffffffffffffffff167f8be0079c531659141344cd1fd0a4f28419497f9722a3daafe3b4186f6b6457e060405160405180910390a35050565b620001d7620000fb60201b60201c565b73ffffffffffffffffffffffffffffffffffffffff16620001fd6200031e60201b60201c565b73ffffffffffffffffffffffffffffffffffffffff161462000256576040517f08c379a00000000000000000000000000000000000000000000000000000000081526004016200024d906200041a565b60405180910390fd5b80600760006101000a81548173ffffffffffffffffffffffffffffffffffffffff021916908373ffffffffffffffffffffffffffffffffffffffff16021790555080600160006101000a81548173ffffffffffffffffffffffffffffffffffffffff021916908373ffffffffffffffffffffffffffffffffffffffff1602179055508073ffffffffffffffffffffffffffffffffffffffff167f2216c14e5e1e1182525d0aa5662651e4338d44a65953f8bbf6a72276355752e460405160405180910390a250565b60008060009054906101000a900473ffffffffffffffffffffffffffffffffffffffff16905090565b600080fd5b6000819050919050565b62000361816200034c565b81146200036d57600080fd5b50565b600081519050620003818162000356565b92915050565b600060208284031215620003a0576200039f62000347565b5b6000620003b08482850162000370565b91505092915050565b600082825260208201905092915050565b7f4f776e61626c653a2063616c6c6572206973206e6f7420746865206f776e6572600082015250565b600062000402602083620003b9565b91506200040f82620003ca565b602082019050919050565b600060208201905081810360008301526200043581620003f3565b9050919050565b612d97806200044c6000396000f3fe6080604052600436106100fe5760003560e01c80638da5cb5b11610095578063dc1cc5b111610064578063dc1cc5b1146102d2578063ec8ecea8146102fd578063f2fde38b14610328578063f633b04714610351578063f90c65081461036d576100fe565b80638da5cb5b1461023957806392aa78b114610264578063a81bf9af1461028d578063b78757cb146102a9576100fe565b8063715018a6116100d1578063715018a6146101b25780637f51bb1f146101c957806382996d9f146101f25780638c1e49bd146101fc576100fe565b80630e341f7b14610103578063150b7a02146101405780632f93b5b31461017d57806336f51bff146101a8575b600080fd5b34801561010f57600080fd5b5061012a60048036038101906101259190611ef4565b6103aa565b6040516101379190611fe9565b60405180910390f35b34801561014c57600080fd5b506101676004803603810190610162919061209c565b610441565b604051610174919061215f565b60405180910390f35b34801561018957600080fd5b506101926105b4565b60405161019f9190612189565b60405180910390f35b6101b06105be565b005b3480156101be57600080fd5b506101c7610975565b005b3480156101d557600080fd5b506101f060048036038101906101eb9190611ef4565b6109fd565b005b6101fa610b00565b005b34801561020857600080fd5b50610223600480360381019061021e9190611ef4565b610dac565b6040516102309190612189565b60405180910390f35b34801561024557600080fd5b5061024e610df5565b60405161025b91906121b3565b60405180910390f35b34801561027057600080fd5b5061028b600480360381019061028691906121ce565b610e1e565b005b6102a760048036038101906102a291906121ce565b610ea4565b005b3480156102b557600080fd5b506102d060048036038101906102cb9190611ef4565b611333565b005b3480156102de57600080fd5b506102e7611477565b6040516102f49190612189565b60405180910390f35b34801561030957600080fd5b50610312611481565b60405161031f9190612189565b60405180910390f35b34801561033457600080fd5b5061034f600480360381019061034a9190611ef4565b61148b565b005b61036b600480360381019061036691906121ce565b611583565b005b34801561037957600080fd5b50610394600480360381019061038f9190611ef4565b611a50565b6040516103a19190612216565b60405180910390f35b6060600560008373ffffffffffffffffffffffffffffffffffffffff1673ffffffffffffffffffffffffffffffffffffffff16815260200190815260200160002080548060200260200160405190810160405280929190818152602001828054801561043557602002820191906000526020600020905b815481526020019060010190808311610421575b50505050509050919050565b6000600760009054906101000a900473ffffffffffffffffffffffffffffffffffffffff1673ffffffffffffffffffffffffffffffffffffffff163373ffffffffffffffffffffffffffffffffffffffff16146104d3576040517f08c379a00000000000000000000000000000000000000000000000000000000081526004016104ca9061228e565b60405180910390fd5b600560008773ffffffffffffffffffffffffffffffffffffffff1673ffffffffffffffffffffffffffffffffffffffff168152602001908152602001600020849080600181540180825580915050600190039060005260206000200160009091909190915055838673ffffffffffffffffffffffffffffffffffffffff167f9f9e4044c5742cca66ca090b21552bac14645e68bad7a92364a9d9ff18111a1c3360405161058091906121b3565b60405180910390a37f150b7a023d4804d13e8c85fb27262cb750cf6ba9f9dd3bb30d90f482ceeb4b1f905095945050505050565b6000600c54905090565b6000600d5411610603576040517f08c379a00000000000000000000000000000000000000000000000000000000081526004016105fa906122fa565b60405180910390fd5b60005b60068054905081101561085f576000600b60006006848154811061062d5761062c61231a565b5b9060005260206000200160009054906101000a900473ffffffffffffffffffffffffffffffffffffffff1673ffffffffffffffffffffffffffffffffffffffff1673ffffffffffffffffffffffffffffffffffffffff168152602001908152602001600020549050600081111561084b576000600a54600d546106b091906123a7565b90506000600b6000600686815481106106cc576106cb61231a565b5b9060005260206000200160009054906101000a900473ffffffffffffffffffffffffffffffffffffffff1673ffffffffffffffffffffffffffffffffffffffff1673ffffffffffffffffffffffffffffffffffffffff1681526020019081526020016000205490506000818361074291906123d8565b905060006006868154811061075a5761075961231a565b5b9060005260206000200160009054906101000a900473ffffffffffffffffffffffffffffffffffffffff1673ffffffffffffffffffffffffffffffffffffffff166107b4836008546103e86107af9190612432565b611a9b565b6040516107c090612497565b60006040518083038185875af1925050503d80600081146107fd576040519150601f19603f3d011682016040523d82523d6000602084013e610802565b606091505b5050905080610846576040517f08c379a000000000000000000000000000000000000000000000000000000000815260040161083d906124f8565b60405180910390fd5b505050505b50808061085790612518565b915050610606565b506000600960009054906101000a900473ffffffffffffffffffffffffffffffffffffffff1673ffffffffffffffffffffffffffffffffffffffff166108a9600d54600854611a9b565b6040516108b590612497565b60006040518083038185875af1925050503d80600081146108f2576040519150601f19603f3d011682016040523d82523d6000602084013e6108f7565b606091505b505090508061093b576040517f08c379a0000000000000000000000000000000000000000000000000000000008152600401610932906124f8565b60405180910390fd5b600d547f22427047e1a674a9aff59700a2c8d00ea96e017ddf9236690bdedf1f21f28d9d60405160405180910390a26000600d8190555050565b61097d611acc565b73ffffffffffffffffffffffffffffffffffffffff1661099b610df5565b73ffffffffffffffffffffffffffffffffffffffff16146109f1576040517f08c379a00000000000000000000000000000000000000000000000000000000081526004016109e8906125ad565b60405180910390fd5b6109fb6000611ad4565b565b610a05611acc565b73ffffffffffffffffffffffffffffffffffffffff16610a23610df5565b73ffffffffffffffffffffffffffffffffffffffff1614610a79576040517f08c379a0000000000000000000000000000000000000000000000000000000008152600401610a70906125ad565b60405180910390fd5b80600960006101000a81548173ffffffffffffffffffffffffffffffffffffffff021916908373ffffffffffffffffffffffffffffffffffffffff1602179055508073ffffffffffffffffffffffffffffffffffffffff167f1f54d231bb9d500b1923e4a1cb25e600f366a8368873d9af7c1c623814df19fc60405160405180910390a250565b6000600a5411610b45576040517f08c379a0000000000000000000000000000000000000000000000000000000008152600401610b3c90612619565b60405180910390fd5b600c54341015610b8a576040517f08c379a0000000000000000000000000000000000000000000000000000000008152600401610b8190612685565b60405180910390fd5b6000601e6018603c806103e860025442610ba49190612432565b610bae91906123a7565b610bb891906123a7565b610bc291906123a7565b610bcc91906123a7565b610bd691906123a7565b90506000600a600454600a5484610bed91906123d8565b610bf791906123d8565b610c0191906126a5565b90506003548111610c47576040517f08c379a0000000000000000000000000000000000000000000000000000000008152600401610c3e90612747565b60405180910390fd5b600e60003373ffffffffffffffffffffffffffffffffffffffff1673ffffffffffffffffffffffffffffffffffffffff168152602001908152602001600020544211610cc8576040517f08c379a0000000000000000000000000000000000000000000000000000000008152600401610cbf906127b3565b60405180910390fd5b600c5434610cd691906123a7565b62278d00610ce491906123d8565b42610cef91906126a5565b600e60003373ffffffffffffffffffffffffffffffffffffffff1673ffffffffffffffffffffffffffffffffffffffff16815260200190815260200160002081905550600160036000828254610d4591906126a5565b9250508190555034600d6000828254610d5e91906126a5565b925050819055503373ffffffffffffffffffffffffffffffffffffffff167f18ae6638be53d8a225d874e2755866e292376637d786506bf60355f3d13654b960405160405180910390a25050565b6000600b60008373ffffffffffffffffffffffffffffffffffffffff1673ffffffffffffffffffffffffffffffffffffffff168152602001908152602001600020549050919050565b60008060009054906101000a900473ffffffffffffffffffffffffffffffffffffffff16905090565b610e26611acc565b73ffffffffffffffffffffffffffffffffffffffff16610e44610df5565b73ffffffffffffffffffffffffffffffffffffffff1614610e9a576040517f08c379a0000000000000000000000000000000000000000000000000000000008152600401610e91906125ad565b60405180910390fd5b80600c8190555050565b600080600d54118015610eb957506000600a54115b15610ed157600a54600d54610ece91906123a7565b90505b803414610f13576040517f08c379a0000000000000000000000000000000000000000000000000000000008152600401610f0a90612845565b60405180910390fd5b3373ffffffffffffffffffffffffffffffffffffffff16600160009054906101000a900473ffffffffffffffffffffffffffffffffffffffff1673ffffffffffffffffffffffffffffffffffffffff16636352211e846040518263ffffffff1660e01b8152600401610f859190612189565b602060405180830381865afa158015610fa2573d6000803e3d6000fd5b505050506040513d601f19601f82011682018060405250810190610fc6919061287a565b73ffffffffffffffffffffffffffffffffffffffff161461101c576040517f08c379a0000000000000000000000000000000000000000000000000000000008152600401611013906128f3565b60405180910390fd5b60011515600160009054906101000a900473ffffffffffffffffffffffffffffffffffffffff1673ffffffffffffffffffffffffffffffffffffffff1663e985e9c533306040518363ffffffff1660e01b815260040161107d929190612913565b602060405180830381865afa15801561109a573d6000803e3d6000fd5b505050506040513d601f19601f820116820180604052508101906110be9190612968565b151514611100576040517f08c379a00000000000000000000000000000000000000000000000000000000081526004016110f790612a07565b60405180910390fd5b600a600081548092919061111390612518565b9190505550600b60003373ffffffffffffffffffffffffffffffffffffffff1673ffffffffffffffffffffffffffffffffffffffff168152602001908152602001600020600081548092919061116890612518565b91905055506006339080600181540180825580915050600190039060005260206000200160009091909190916101000a81548173ffffffffffffffffffffffffffffffffffffffff021916908373ffffffffffffffffffffffffffffffffffffffff160217905550600560003373ffffffffffffffffffffffffffffffffffffffff1673ffffffffffffffffffffffffffffffffffffffff16815260200190815260200160002082908060018154018082558091505060019003906000526020600020016000909190919091505534600d600082825461124891906126a5565b92505081905550600160009054906101000a900473ffffffffffffffffffffffffffffffffffffffff1673ffffffffffffffffffffffffffffffffffffffff166342842e0e3330856040518463ffffffff1660e01b81526004016112ae93929190612a27565b600060405180830381600087803b1580156112c857600080fd5b505af11580156112dc573d6000803e3d6000fd5b50505050813073ffffffffffffffffffffffffffffffffffffffff167f9f9e4044c5742cca66ca090b21552bac14645e68bad7a92364a9d9ff18111a1c3360405161132791906121b3565b60405180910390a35050565b61133b611acc565b73ffffffffffffffffffffffffffffffffffffffff16611359610df5565b73ffffffffffffffffffffffffffffffffffffffff16146113af576040517f08c379a00000000000000000000000000000000000000000000000000000000081526004016113a6906125ad565b60405180910390fd5b80600760006101000a81548173ffffffffffffffffffffffffffffffffffffffff021916908373ffffffffffffffffffffffffffffffffffffffff16021790555080600160006101000a81548173ffffffffffffffffffffffffffffffffffffffff021916908373ffffffffffffffffffffffffffffffffffffffff1602179055508073ffffffffffffffffffffffffffffffffffffffff167f2216c14e5e1e1182525d0aa5662651e4338d44a65953f8bbf6a72276355752e460405160405180910390a250565b6000600d54905090565b6000600a54905090565b611493611acc565b73ffffffffffffffffffffffffffffffffffffffff166114b1610df5565b73ffffffffffffffffffffffffffffffffffffffff1614611507576040517f08c379a00000000000000000000000000000000000000000000000000000000081526004016114fe906125ad565b60405180910390fd5b600073ffffffffffffffffffffffffffffffffffffffff168173ffffffffffffffffffffffffffffffffffffffff161415611577576040517f08c379a000000000000000000000000000000000000000000000000000000000815260040161156e90612ad0565b60405180910390fd5b61158081611ad4565b50565b6000600560003373ffffffffffffffffffffffffffffffffffffffff1673ffffffffffffffffffffffffffffffffffffffff1681526020019081526020016000208054905011611608576040517f08c379a00000000000000000000000000000000000000000000000000000000081526004016115ff90612b3c565b60405180910390fd5b6000805b600560003373ffffffffffffffffffffffffffffffffffffffff1673ffffffffffffffffffffffffffffffffffffffff168152602001908152602001600020805490508110156116d157600560003373ffffffffffffffffffffffffffffffffffffffff1673ffffffffffffffffffffffffffffffffffffffff16815260200190815260200160002081815481106116a7576116a661231a565b5b90600052602060002001548314156116be57600191505b80806116c990612518565b91505061160c565b5080611712576040517f08c379a000000000000000000000000000000000000000000000000000000000815260040161170990612bce565b60405180910390fd5b600160009054906101000a900473ffffffffffffffffffffffffffffffffffffffff1673ffffffffffffffffffffffffffffffffffffffff166342842e0e3033856040518463ffffffff1660e01b815260040161177193929190612a27565b600060405180830381600087803b15801561178b57600080fd5b505af115801561179f573d6000803e3d6000fd5b505050506117ac82611b98565b6000600d541115611997576000600a54600d546117c991906123a7565b9050600081905060006117eb826008546103e86117e69190612432565b611a9b565b905060006117fb83600854611a9b565b905060003373ffffffffffffffffffffffffffffffffffffffff168360405161182390612497565b60006040518083038185875af1925050503d8060008114611860576040519150601f19603f3d011682016040523d82523d6000602084013e611865565b606091505b50509050806118a9576040517f08c379a00000000000000000000000000000000000000000000000000000000081526004016118a090612c3a565b60405180910390fd5b6000600960009054906101000a900473ffffffffffffffffffffffffffffffffffffffff1673ffffffffffffffffffffffffffffffffffffffff16836040516118f190612497565b60006040518083038185875af1925050503d806000811461192e576040519150601f19603f3d011682016040523d82523d6000602084013e611933565b606091505b5050905080611977576040517f08c379a000000000000000000000000000000000000000000000000000000000815260040161196e90612ca6565b60405180910390fd5b84600d60008282546119899190612432565b925050819055505050505050505b6001600a60008282546119aa9190612432565b925050819055506001600b60003373ffffffffffffffffffffffffffffffffffffffff1673ffffffffffffffffffffffffffffffffffffffff1681526020019081526020016000206000828254611a019190612432565b92505081905550813373ffffffffffffffffffffffffffffffffffffffff167f0f5bb82176feb1b5e747e28471aa92156a04d9f3ab9f45f28e2d704232b93f7560405160405180910390a35050565b6000600e60008373ffffffffffffffffffffffffffffffffffffffff1673ffffffffffffffffffffffffffffffffffffffff1681526020019081526020016000205442109050919050565b60008162989680611aac91906123a7565b61271084611aba91906123d8565b611ac491906123a7565b905092915050565b600033905090565b60008060009054906101000a900473ffffffffffffffffffffffffffffffffffffffff169050816000806101000a81548173ffffffffffffffffffffffffffffffffffffffff021916908373ffffffffffffffffffffffffffffffffffffffff1602179055508173ffffffffffffffffffffffffffffffffffffffff168173ffffffffffffffffffffffffffffffffffffffff167f8be0079c531659141344cd1fd0a4f28419497f9722a3daafe3b4186f6b6457e060405160405180910390a35050565b60005b600560003373ffffffffffffffffffffffffffffffffffffffff1673ffffffffffffffffffffffffffffffffffffffff16815260200190815260200160002080549050811015611c655781600560003373ffffffffffffffffffffffffffffffffffffffff1673ffffffffffffffffffffffffffffffffffffffff1681526020019081526020016000208281548110611c3757611c3661231a565b5b90600052602060002001541415611c5257611c5181611c69565b5b8080611c5d90612518565b915050611b9b565b5050565b600560003373ffffffffffffffffffffffffffffffffffffffff1673ffffffffffffffffffffffffffffffffffffffff168152602001908152602001600020805490508110611ced576040517f08c379a0000000000000000000000000000000000000000000000000000000008152600401611ce490612d12565b60405180910390fd5b60008190505b6001600560003373ffffffffffffffffffffffffffffffffffffffff1673ffffffffffffffffffffffffffffffffffffffff16815260200190815260200160002080549050611d429190612432565b811015611e2357600560003373ffffffffffffffffffffffffffffffffffffffff1673ffffffffffffffffffffffffffffffffffffffff168152602001908152602001600020600182611d9591906126a5565b81548110611da657611da561231a565b5b9060005260206000200154600560003373ffffffffffffffffffffffffffffffffffffffff1673ffffffffffffffffffffffffffffffffffffffff1681526020019081526020016000208281548110611e0257611e0161231a565b5b90600052602060002001819055508080611e1b90612518565b915050611cf3565b50600560003373ffffffffffffffffffffffffffffffffffffffff1673ffffffffffffffffffffffffffffffffffffffff168152602001908152602001600020805480611e7357611e72612d32565b5b6001900381819060005260206000200160009055905550565b600080fd5b600080fd5b600073ffffffffffffffffffffffffffffffffffffffff82169050919050565b6000611ec182611e96565b9050919050565b611ed181611eb6565b8114611edc57600080fd5b50565b600081359050611eee81611ec8565b92915050565b600060208284031215611f0a57611f09611e8c565b5b6000611f1884828501611edf565b91505092915050565b600081519050919050565b600082825260208201905092915050565b6000819050602082019050919050565b6000819050919050565b611f6081611f4d565b82525050565b6000611f728383611f57565b60208301905092915050565b6000602082019050919050565b6000611f9682611f21565b611fa08185611f2c565b9350611fab83611f3d565b8060005b83811015611fdc578151611fc38882611f66565b9750611fce83611f7e565b925050600181019050611faf565b5085935050505092915050565b600060208201905081810360008301526120038184611f8b565b905092915050565b61201481611f4d565b811461201f57600080fd5b50565b6000813590506120318161200b565b92915050565b600080fd5b600080fd5b600080fd5b60008083601f84011261205c5761205b612037565b5b8235905067ffffffffffffffff8111156120795761207861203c565b5b60208301915083600182028301111561209557612094612041565b5b9250929050565b6000806000806000608086880312156120b8576120b7611e8c565b5b60006120c688828901611edf565b95505060206120d788828901611edf565b94505060406120e888828901612022565b935050606086013567ffffffffffffffff81111561210957612108611e91565b5b61211588828901612046565b92509250509295509295909350565b60007fffffffff0000000000000000000000000000000000000000000000000000000082169050919050565b61215981612124565b82525050565b60006020820190506121746000830184612150565b92915050565b61218381611f4d565b82525050565b600060208201905061219e600083018461217a565b92915050565b6121ad81611eb6565b82525050565b60006020820190506121c860008301846121a4565b92915050565b6000602082840312156121e4576121e3611e8c565b5b60006121f284828501612022565b91505092915050565b60008115159050919050565b612210816121fb565b82525050565b600060208201905061222b6000830184612207565b92915050565b600082825260208201905092915050565b7f57726f6e67204e46540000000000000000000000000000000000000000000000600082015250565b6000612278600983612231565b915061228382612242565b602082019050919050565b600060208201905081810360008301526122a78161226b565b9050919050565b7f547265617375727920697320656d707479000000000000000000000000000000600082015250565b60006122e4601183612231565b91506122ef826122ae565b602082019050919050565b60006020820190508181036000830152612313816122d7565b9050919050565b7f4e487b7100000000000000000000000000000000000000000000000000000000600052603260045260246000fd5b7f4e487b7100000000000000000000000000000000000000000000000000000000600052601260045260246000fd5b7f4e487b7100000000000000000000000000000000000000000000000000000000600052601160045260246000fd5b60006123b282611f4d565b91506123bd83611f4d565b9250826123cd576123cc612349565b5b828204905092915050565b60006123e382611f4d565b91506123ee83611f4d565b9250817fffffffffffffffffffffffffffffffffffffffffffffffffffffffffffffffff048311821515161561242757612426612378565b5b828202905092915050565b600061243d82611f4d565b915061244883611f4d565b92508282101561245b5761245a612378565b5b828203905092915050565b600081905092915050565b50565b6000612481600083612466565b915061248c82612471565b600082019050919050565b60006124a282612474565b9150819050919050565b7f4661696c656420746f2073656e64204574686572000000000000000000000000600082015250565b60006124e2601483612231565b91506124ed826124ac565b602082019050919050565b60006020820190508181036000830152612511816124d5565b9050919050565b600061252382611f4d565b91507fffffffffffffffffffffffffffffffffffffffffffffffffffffffffffffffff82141561255657612555612378565b5b600182019050919050565b7f4f776e61626c653a2063616c6c6572206973206e6f7420746865206f776e6572600082015250565b6000612597602083612231565b91506125a282612561565b602082019050919050565b600060208201905081810360008301526125c68161258a565b9050919050565b7f4e6f207061737365732068617665206265656e207374616b6564000000000000600082015250565b6000612603601a83612231565b915061260e826125cd565b602082019050919050565b60006020820190508181036000830152612632816125f6565b9050919050565b7f4e6f7420656e6f75676820657468657200000000000000000000000000000000600082015250565b600061266f601083612231565b915061267a82612639565b602082019050919050565b6000602082019050818103600083015261269e81612662565b9050919050565b60006126b082611f4d565b91506126bb83611f4d565b9250827fffffffffffffffffffffffffffffffffffffffffffffffffffffffffffffffff038211156126f0576126ef612378565b5b828201905092915050565b7f4d6178696d756d2072656e74616c2074696d6573207265616368656400000000600082015250565b6000612731601c83612231565b915061273c826126fb565b602082019050919050565b6000602082019050818103600083015261276081612724565b9050919050565b7f596f75207374696c6c206861766520616e206163746976652072656e74616c00600082015250565b600061279d601f83612231565b91506127a882612767565b602082019050919050565b600060208201905081810360008301526127cc81612790565b9050919050565b7f4e6f7420656e6f7567682076616c756520746f2070757263686173652073686160008201527f7265000000000000000000000000000000000000000000000000000000000000602082015250565b600061282f602283612231565b915061283a826127d3565b604082019050919050565b6000602082019050818103600083015261285e81612822565b9050919050565b60008151905061287481611ec8565b92915050565b6000602082840312156128905761288f611e8c565b5b600061289e84828501612865565b91505092915050565b7f596f7520646f206e6f74206f776e207468697320746f6b656e2e000000000000600082015250565b60006128dd601a83612231565b91506128e8826128a7565b602082019050919050565b6000602082019050818103600083015261290c816128d0565b9050919050565b600060408201905061292860008301856121a4565b61293560208301846121a4565b9392505050565b612945816121fb565b811461295057600080fd5b50565b6000815190506129628161293c565b92915050565b60006020828403121561297e5761297d611e8c565b5b600061298c84828501612953565b91505092915050565b7f596f7520646964206e6f7420617070726f7665207468697320636f6e7472616360008201527f7420746f207472616e736665722e000000000000000000000000000000000000602082015250565b60006129f1602e83612231565b91506129fc82612995565b604082019050919050565b60006020820190508181036000830152612a20816129e4565b9050919050565b6000606082019050612a3c60008301866121a4565b612a4960208301856121a4565b612a56604083018461217a565b949350505050565b7f4f776e61626c653a206e6577206f776e657220697320746865207a65726f206160008201527f6464726573730000000000000000000000000000000000000000000000000000602082015250565b6000612aba602683612231565b9150612ac582612a5e565b604082019050919050565b60006020820190508181036000830152612ae981612aad565b9050919050565b7f596f7520686176656e2774207374616b6564206120746f6b656e2e0000000000600082015250565b6000612b26601b83612231565b9150612b3182612af0565b602082019050919050565b60006020820190508181036000830152612b5581612b19565b9050919050565b7f5468697320746f6b656e496420686173206e6f74206265656e207374616b656460008201527f20627920796f752e000000000000000000000000000000000000000000000000602082015250565b6000612bb8602883612231565b9150612bc382612b5c565b604082019050919050565b60006020820190508181036000830152612be781612bab565b9050919050565b7f4661696c656420746f2073656e6420457468657220746f2063616c6c65720000600082015250565b6000612c24601e83612231565b9150612c2f82612bee565b602082019050919050565b60006020820190508181036000830152612c5381612c17565b9050919050565b7f4661696c656420746f2073656e6420457468657220746f207472656173757279600082015250565b6000612c90602083612231565b9150612c9b82612c5a565b602082019050919050565b60006020820190508181036000830152612cbf81612c83565b9050919050565b7f696e646578206f7574206f6620626f756e640000000000000000000000000000600082015250565b6000612cfc601283612231565b9150612d0782612cc6565b602082019050919050565b60006020820190508181036000830152612d2b81612cef565b9050919050565b7f4e487b7100000000000000000000000000000000000000000000000000000000600052603160045260246000fdfea2646970667358221220ad5fe3380d0f1e319bfae5bc4ba2cb779e303957f22aba3808db17117261615c64736f6c634300080a0033",
  "immutableReferences": {},
  "source": "// SPDX-License-Identifier: MIT\npragma solidity ^0.8.10;\n\nimport \"@openzeppelin/contracts/token/ERC721/IERC721Receiver.sol\";\nimport \"@openzeppelin/contracts/access/Ownable.sol\";\n\nabstract contract RareBlocksInterface {\n  function safeTransferFrom( address from, address to, uint256 tokenId ) external virtual;\n  function ownerOf(uint256 tokenId) external view virtual returns (address owner);\n  function isApprovedForAll(address sender, address cAddress) external view virtual returns (bool approval);\n}\n\ncontract RentingPooled is IERC721Receiver, Ownable {\n  RareBlocksInterface rareBlocks;\n\n  uint256 deployDate; // Timestamp of deployment\n  uint256 totalTimesRented; // Track total amount pass has been rented\n  uint256 rentalMultiplier; // Rent multiplier to increase rent supply\n\n  mapping(address => uint256[]) tokenOwners; // Track staked tokens\n  address[] ownersAddresses; // Track owners of staked tokens\n\n  address rareBlocksContractAddress; // Rareblocks NFT contract address\n  uint256 rareBlocksCommission;\n  address treasuryAddress; // Treasury\n\n  uint256 totalOutstandingShares = 0; // Amount of outstanding shares of the treasury\n  mapping(address => uint256) sharesPerWallet; // Amount of shares a wallet holds;\n\n  uint256 _price; // Rental price\n  uint256 treasury; // Accumulated treasury\n\n  mapping(address => uint256) rentDateExpiry; // Track renter\n\n  event Rented(address indexed _address); // Renting event\n  event Staked(address indexed from, uint256 indexed tokenId, address sender); // Staking a pass\n  event Unstaked(address indexed _from, uint256 indexed tokenId); // Unstaking a pass\n  event Payout(uint256 indexed treasury); // Payout all stakers\n  event UpdateTreasury(address indexed newAddress); // Change treasure wallet address\n  event SetRareblocksContractAddress(address indexed newAddress); // When a token has added to the rent list\n\n  constructor(uint256 price) {\n    setRareblocksContractAddress(0x1bb191e56206e11b14117711C333CC18b9861262);\n    treasuryAddress = 0x96E7C3bAA9c1EF234A1F85562A6C444213a02E0A;\n\n    deployDate = block.timestamp;\n    rentalMultiplier = 2;\n    _price = price;\n    rareBlocksCommission = 100; // Rareblocks take 10%. Uses base point, so 100 is 10%.\n  }\n\n  // Divide by percentage, using base point\n  function divByPercentage(uint256 amount, uint256 proportion) internal pure returns (uint256){\n    // @dev double check this formula, was previously wrong\n    return (amount * 10000) / (10000000 / proportion);\n  }\n\n  // Set RarBlocks contract address\n  function setRareblocksContractAddress(address _rbAddress) public onlyOwner {\n    rareBlocksContractAddress = _rbAddress;\n    rareBlocks = RareBlocksInterface(_rbAddress);\n    emit SetRareblocksContractAddress(_rbAddress);\n  }\n\n  // Change treasury address\n  function updateTreasury(address _newAddress) external onlyOwner {\n    treasuryAddress = _newAddress;\n    emit UpdateTreasury(_newAddress);\n  }\n\n  // Function called when being transfered a ERC721 token\n  // On receival add staking information to struct Stake\n  function onERC721Received( address _from, address, uint256 _tokenId, bytes calldata ) external returns (bytes4) {\n    require(msg.sender == rareBlocksContractAddress, \"Wrong NFT\"); // Make sure only Rareblocks NFT can be staked. msg.sender is always contract address of NFT.\n\n    tokenOwners[_from].push(_tokenId);\n\n    emit Staked(_from, _tokenId, msg.sender);\n    return bytes4(keccak256(\"onERC721Received(address,address,uint256,bytes)\"));\n  }\n\n  // Rent a pass\n  function rent() external payable {\n    require(totalOutstandingShares > 0, \"No passes have been staked\");\n    require(msg.value >= _price, \"Not enough ether\"); // Make sure the sender has enough ether to rent a pass\n\n    /// @dev Check months since deployed. This assume 1 month is 30 days.\n    uint256 monthsSinceDeploy = (block.timestamp - deployDate) /\n      1000 /\n      60 /\n      60 /\n      24 /\n      30;\n\n    /// @dev Get max rent limit per month multiplied by rental multiplier.\n    /// @notice If no one rent out passes within the month, the max limit will keep on increasing.\n    uint256 rentalMaxLimit = (monthsSinceDeploy * totalOutstandingShares * rentalMultiplier) + 10; // Minimum of 10\n    require(rentalMaxLimit > totalTimesRented, \"Maximum rental times reached\");\n\n    require( block.timestamp > rentDateExpiry[msg.sender], \"You still have an active rental\");\n\n    /// @notice If Renter rents again the next month, we just need to override the map.\n    /// @notice Decided to record the rent date instead of expiry date since it's easy to get expiry date by adding 30 days.\n    rentDateExpiry[msg.sender] = uint256(block.timestamp) + (30 days * (msg.value / _price));\n\n    totalTimesRented += 1; // Increment total times rented\n    treasury += msg.value; // Add fee to treasury\n\n    emit Rented(msg.sender);\n  }\n\n  // Check if renter has active rent\n  function isRentActive(address _address) external view returns (bool) {\n    return block.timestamp < rentDateExpiry[_address]; // Check if current timestamp is less than expiry\n  }\n\n  // List all tokens staked by address\n  function getTokensStakedByAddress(address _address) public view returns (uint256[] memory) {\n    return tokenOwners[_address];\n  }\n\n  function removeTokenIdFromTokenOwners(uint256 tokenId) internal {\n    for (uint256 i = 0; i < tokenOwners[msg.sender].length; i++) {\n      if (tokenOwners[msg.sender][i] == tokenId) {\n        removeTokenIdFromTokenOwnersByIndex(i);\n      }\n    }\n  }\n\n  function removeTokenIdFromTokenOwnersByIndex(uint256 _index) internal {\n    require(_index < tokenOwners[msg.sender].length, \"index out of bound\");\n\n    for (uint256 i = _index; i < tokenOwners[msg.sender].length - 1; i++) {\n      tokenOwners[msg.sender][i] = tokenOwners[msg.sender][i + 1];\n    }\n    tokenOwners[msg.sender].pop();\n  }\n\n  function stakeAndPurchaseTreasuryStock(uint256 _tokenId) public payable {\n    uint256 sharePrice;\n    if(treasury > 0 && totalOutstandingShares > 0){ // No divide by 0 error.\n      sharePrice = treasury / totalOutstandingShares; // Amount of value in treasury per share = share price;\n    }\n\n    require(msg.value == sharePrice, \"Not enough value to purchase share\");\n    require( rareBlocks.ownerOf(_tokenId) == msg.sender, \"You do not own this token.\" );\n    require( rareBlocks.isApprovedForAll(msg.sender, address(this)) == true, \"You did not approve this contract to transfer.\" );\n\n\n    totalOutstandingShares++; // Increase outstanding shares\n    sharesPerWallet[msg.sender]++; // Increase share wallet owner\n    ownersAddresses.push(msg.sender); // Array of all active stakers\n    tokenOwners[msg.sender].push(_tokenId); // Track tokenIds a wallet has staked\n    treasury += msg.value;\n\n    rareBlocks.safeTransferFrom(msg.sender, address(this), _tokenId); // Transfer token to contract\n\n    emit Staked(address(this), _tokenId, msg.sender);\n  }\n\n  // Unstake token and send back to users wallet\n  function unstakeAccessPass(uint256 _tokenId) external payable {\n    require(tokenOwners[msg.sender].length > 0, \"You haven't staked a token.\");\n\n    bool hasTokenStaked = false;\n    for (uint256 i = 0; i < tokenOwners[msg.sender].length; i++) {\n      if (_tokenId == tokenOwners[msg.sender][i]) {\n        hasTokenStaked = true;\n      }\n    }\n\n    require(hasTokenStaked, \"This tokenId has not been staked by you.\");\n\n    rareBlocks.safeTransferFrom(address(this), msg.sender, _tokenId); // Send back token to owner\n    removeTokenIdFromTokenOwners(_tokenId); // Remove staked tokenId\n\n    // uint256 totalSharesOwned = sharesPerWallet[msg.sender]; // Total amount of owned shares\n\n    if(treasury > 0){ // Only call if theres something to pay out\n      uint256 valuePerShare = treasury / totalOutstandingShares; // New price per share\n      uint256 totalPayoutPrice = valuePerShare; // Price to pay for selling shares\n\n\n      uint256 stakerPayoutValue = divByPercentage(totalPayoutPrice, 1000 - rareBlocksCommission); \n      uint256 treasuryPayoutValue = divByPercentage(totalPayoutPrice, rareBlocksCommission);\n\n      (bool successCaller, ) = payable(msg.sender).call{\n        value: stakerPayoutValue\n      }(\"\"); // Pay commission to staker\n      require(successCaller, \"Failed to send Ether to caller\");\n\n      (bool successRareBlocksCommission, ) = payable(treasuryAddress).call{\n        value: treasuryPayoutValue\n      }(\"\"); // Pay commission to staker\n      \n      require(successRareBlocksCommission, \"Failed to send Ether to treasury\");\n\n      treasury -= totalPayoutPrice; // Adjust treasury\n    }\n\n    totalOutstandingShares -= 1; // Reduce amount of shares outstanding\n    sharesPerWallet[msg.sender] -= 1; // @dev Remove shares for wallet\n    emit Unstaked(msg.sender, _tokenId);\n  }\n\n  function payoutStakers() external payable {\n    require(treasury > 0, \"Treasury is empty\");\n\n    for (uint256 i = 0; i < ownersAddresses.length; i++) {\n      uint256 shares = sharesPerWallet[ownersAddresses[i]];\n      if (shares > 0) {\n        uint256 valuePerShare = treasury / totalOutstandingShares; // New price per share\n        uint256 totalSharesOwned = sharesPerWallet[ownersAddresses[i]]; // Total amount of owned shares\n        uint256 totalPayoutPrice = valuePerShare * totalSharesOwned; // Price to pay for selling shares\n\n        (bool success, ) = payable(ownersAddresses[i]).call{\n          value: divByPercentage(totalPayoutPrice, 1000 - rareBlocksCommission)\n        }(\"\"); // Pay commission to staker\n        require(success, \"Failed to send Ether\");\n      }\n    }\n\n    (bool successRareBlocksCommission, ) = payable(treasuryAddress).call{\n      value: divByPercentage(treasury, rareBlocksCommission)\n    }(\"\"); // Pay commission to staker\n    require(successRareBlocksCommission, \"Failed to send Ether\");\n\n    emit Payout(treasury);\n    treasury = 0; // Empty treasury    \n  }\n\n  function getRentPrice() external view returns (uint256) {\n    return _price;\n  }\n\n  function setRentPrice(uint256 price) public onlyOwner {\n    _price = price;\n  }\n\n  // Check functions\n  function getTotalOutstandingShares() external view returns (uint256) {\n    return totalOutstandingShares;\n  }\n\n  function getSharesPerWallet(address owner) external view returns (uint256) {\n    return sharesPerWallet[owner];\n  }\n\n  function getTotalValueInTreasury() external view returns (uint256) {\n    return treasury;\n  }\n  \n}\n",
  "sourcePath": "/Users/dannypostma/Development/rareblocks/ethereum/staking-pooled/contracts/RentingPooled.sol",
  "compiler": {
    "name": "solc",
    "version": "0.8.10+commit.fc410830.Emscripten.clang"
  },
  "schemaVersion": "3.4.3",
  "updatedAt": "2021-12-17T07:44:44.624Z",
  "networkType": "ethereum",
  "devdoc": {
    "kind": "dev",
    "methods": {
      "owner()": {
        "details": "Returns the address of the current owner."
      },
      "renounceOwnership()": {
        "details": "Leaves the contract without owner. It will not be possible to call `onlyOwner` functions anymore. Can only be called by the current owner. NOTE: Renouncing ownership will leave the contract without an owner, thereby removing any functionality that is only available to the owner."
      },
      "transferOwnership(address)": {
        "details": "Transfers ownership of the contract to a new account (`newOwner`). Can only be called by the current owner."
      }
    },
    "version": 1
  },
  "userdoc": {
    "kind": "user",
    "methods": {},
    "version": 1
  }
}