{
  "contractName": "Rent",
  "abi": [
    {
      "inputs": [
        {
          "internalType": "uint256",
          "name": "price",
          "type": "uint256"
        }
      ],
      "stateMutability": "nonpayable",
      "type": "constructor"
    },
    {
      "anonymous": false,
      "inputs": [
        {
          "indexed": true,
          "internalType": "address",
          "name": "previousOwner",
          "type": "address"
        },
        {
          "indexed": true,
          "internalType": "address",
          "name": "newOwner",
          "type": "address"
        }
      ],
      "name": "OwnershipTransferred",
      "type": "event"
    },
    {
      "anonymous": false,
      "inputs": [
        {
          "indexed": true,
          "internalType": "uint256",
          "name": "_amount",
          "type": "uint256"
        }
      ],
      "name": "Payout",
      "type": "event"
    },
    {
      "anonymous": false,
      "inputs": [
        {
          "indexed": true,
          "internalType": "address",
          "name": "_address",
          "type": "address"
        }
      ],
      "name": "Rented",
      "type": "event"
    },
    {
      "anonymous": false,
      "inputs": [
        {
          "indexed": true,
          "internalType": "address",
          "name": "newAddress",
          "type": "address"
        }
      ],
      "name": "UpdateStakeContractAddress",
      "type": "event"
    },
    {
      "inputs": [],
      "name": "owner",
      "outputs": [
        {
          "internalType": "address",
          "name": "",
          "type": "address"
        }
      ],
      "stateMutability": "view",
      "type": "function",
      "constant": true
    },
    {
      "inputs": [],
      "name": "renounceOwnership",
      "outputs": [],
      "stateMutability": "nonpayable",
      "type": "function"
    },
    {
      "inputs": [
        {
          "internalType": "address",
          "name": "newOwner",
          "type": "address"
        }
      ],
      "name": "transferOwnership",
      "outputs": [],
      "stateMutability": "nonpayable",
      "type": "function"
    },
    {
      "inputs": [
        {
          "internalType": "address",
          "name": "_address",
          "type": "address"
        }
      ],
      "name": "setStakeContractAddress",
      "outputs": [],
      "stateMutability": "nonpayable",
      "type": "function"
    },
    {
      "inputs": [
        {
          "internalType": "bool",
          "name": "status",
          "type": "bool"
        }
      ],
      "name": "setIsRentable",
      "outputs": [],
      "stateMutability": "nonpayable",
      "type": "function"
    },
    {
      "inputs": [],
      "name": "rent",
      "outputs": [],
      "stateMutability": "payable",
      "type": "function",
      "payable": true
    },
    {
      "inputs": [
        {
          "internalType": "address",
          "name": "_address",
          "type": "address"
        }
      ],
      "name": "isRentActive",
      "outputs": [
        {
          "internalType": "bool",
          "name": "",
          "type": "bool"
        }
      ],
      "stateMutability": "view",
      "type": "function",
      "constant": true
    },
    {
      "inputs": [],
      "name": "getRentPrice",
      "outputs": [
        {
          "internalType": "uint256",
          "name": "",
          "type": "uint256"
        }
      ],
      "stateMutability": "view",
      "type": "function",
      "constant": true
    },
    {
      "inputs": [
        {
          "internalType": "uint256",
          "name": "price",
          "type": "uint256"
        }
      ],
      "name": "setRentPrice",
      "outputs": [],
      "stateMutability": "nonpayable",
      "type": "function"
    },
    {
      "inputs": [],
      "name": "transferFundsToStakerContract",
      "outputs": [],
      "stateMutability": "payable",
      "type": "function",
      "payable": true
    }
  ],
  "bytecode": "0x60806040523480156200001157600080fd5b506040516200181538038062001815833981810160405281019062000037919062000340565b620000576200004b620000b460201b60201c565b620000bc60201b60201c565b6200007c731bb191e56206e11b14117711c333cc18b98612626200018060201b60201c565b426002819055506002600481905550806005819055506000600660006101000a81548160ff02191690831515021790555050620003f5565b600033905090565b60008060009054906101000a900473ffffffffffffffffffffffffffffffffffffffff169050816000806101000a81548173ffffffffffffffffffffffffffffffffffffffff021916908373ffffffffffffffffffffffffffffffffffffffff1602179055508173ffffffffffffffffffffffffffffffffffffffff168173ffffffffffffffffffffffffffffffffffffffff167f8be0079c531659141344cd1fd0a4f28419497f9722a3daafe3b4186f6b6457e060405160405180910390a35050565b62000190620000b460201b60201c565b73ffffffffffffffffffffffffffffffffffffffff16620001b6620002d760201b60201c565b73ffffffffffffffffffffffffffffffffffffffff16146200020f576040517f08c379a00000000000000000000000000000000000000000000000000000000081526004016200020690620003d3565b60405180910390fd5b80600660016101000a81548173ffffffffffffffffffffffffffffffffffffffff021916908373ffffffffffffffffffffffffffffffffffffffff16021790555080600160006101000a81548173ffffffffffffffffffffffffffffffffffffffff021916908373ffffffffffffffffffffffffffffffffffffffff1602179055508073ffffffffffffffffffffffffffffffffffffffff167f78d585cc55dfc6799c954b64b03128197b2a8cfac86376109e1cae5e5ab8728860405160405180910390a250565b60008060009054906101000a900473ffffffffffffffffffffffffffffffffffffffff16905090565b600080fd5b6000819050919050565b6200031a8162000305565b81146200032657600080fd5b50565b6000815190506200033a816200030f565b92915050565b60006020828403121562000359576200035862000300565b5b6000620003698482850162000329565b91505092915050565b600082825260208201905092915050565b7f4f776e61626c653a2063616c6c6572206973206e6f7420746865206f776e6572600082015250565b6000620003bb60208362000372565b9150620003c88262000383565b602082019050919050565b60006020820190508181036000830152620003ee81620003ac565b9050919050565b61141080620004056000396000f3fe6080604052600436106100915760003560e01c806392aa78b11161005957806392aa78b114610136578063de5cbd041461015f578063f2fde38b14610169578063f90c650814610192578063fe978592146101cf57610091565b806301b6965a146100965780632f93b5b3146100bf578063715018a6146100ea57806382996d9f146101015780638da5cb5b1461010b575b600080fd5b3480156100a257600080fd5b506100bd60048036038101906100b89190610c43565b6101f8565b005b3480156100cb57600080fd5b506100d461033c565b6040516100e19190610c89565b60405180910390f35b3480156100f657600080fd5b506100ff610346565b005b6101096103ce565b005b34801561011757600080fd5b50610120610742565b60405161012d9190610cb3565b60405180910390f35b34801561014257600080fd5b5061015d60048036038101906101589190610cfa565b61076b565b005b6101676107f1565b005b34801561017557600080fd5b50610190600480360381019061018b9190610c43565b610938565b005b34801561019e57600080fd5b506101b960048036038101906101b49190610c43565b610a30565b6040516101c69190610d42565b60405180910390f35b3480156101db57600080fd5b506101f660048036038101906101f19190610d89565b610a7b565b005b610200610b14565b73ffffffffffffffffffffffffffffffffffffffff1661021e610742565b73ffffffffffffffffffffffffffffffffffffffff1614610274576040517f08c379a000000000000000000000000000000000000000000000000000000000815260040161026b90610e13565b60405180910390fd5b80600660016101000a81548173ffffffffffffffffffffffffffffffffffffffff021916908373ffffffffffffffffffffffffffffffffffffffff16021790555080600160006101000a81548173ffffffffffffffffffffffffffffffffffffffff021916908373ffffffffffffffffffffffffffffffffffffffff1602179055508073ffffffffffffffffffffffffffffffffffffffff167f78d585cc55dfc6799c954b64b03128197b2a8cfac86376109e1cae5e5ab8728860405160405180910390a250565b6000600554905090565b61034e610b14565b73ffffffffffffffffffffffffffffffffffffffff1661036c610742565b73ffffffffffffffffffffffffffffffffffffffff16146103c2576040517f08c379a00000000000000000000000000000000000000000000000000000000081526004016103b990610e13565b60405180910390fd5b6103cc6000610b1c565b565b600660009054906101000a900460ff1661041d576040517f08c379a000000000000000000000000000000000000000000000000000000000815260040161041490610e7f565b60405180910390fd5b6000600160009054906101000a900473ffffffffffffffffffffffffffffffffffffffff1673ffffffffffffffffffffffffffffffffffffffff1663ec8ecea86040518163ffffffff1660e01b8152600401602060405180830381865afa15801561048c573d6000803e3d6000fd5b505050506040513d601f19601f820116820180604052508101906104b09190610eb4565b9050600081116104f5576040517f08c379a00000000000000000000000000000000000000000000000000000000081526004016104ec90610f2d565b60405180910390fd5b60055434101561053a576040517f08c379a000000000000000000000000000000000000000000000000000000000815260040161053190610f99565b60405180910390fd5b6000601e6018603c806103e8600254426105549190610fe8565b61055e919061104b565b610568919061104b565b610572919061104b565b61057c919061104b565b610586919061104b565b90506000600a600454848461059b919061107c565b6105a5919061107c565b6105af91906110d6565b905060035481116105f5576040517f08c379a00000000000000000000000000000000000000000000000000000000081526004016105ec90611178565b60405180910390fd5b600760003373ffffffffffffffffffffffffffffffffffffffff1673ffffffffffffffffffffffffffffffffffffffff168152602001908152602001600020544211610676576040517f08c379a000000000000000000000000000000000000000000000000000000000815260040161066d906111e4565b60405180910390fd5b60055434610684919061104b565b62278d00610692919061107c565b4261069d91906110d6565b600760003373ffffffffffffffffffffffffffffffffffffffff1673ffffffffffffffffffffffffffffffffffffffff168152602001908152602001600020819055506001600360008282546106f391906110d6565b925050819055503373ffffffffffffffffffffffffffffffffffffffff167f18ae6638be53d8a225d874e2755866e292376637d786506bf60355f3d13654b960405160405180910390a2505050565b60008060009054906101000a900473ffffffffffffffffffffffffffffffffffffffff16905090565b610773610b14565b73ffffffffffffffffffffffffffffffffffffffff16610791610742565b73ffffffffffffffffffffffffffffffffffffffff16146107e7576040517f08c379a00000000000000000000000000000000000000000000000000000000081526004016107de90610e13565b60405180910390fd5b8060058190555050565b600047905060008111610839576040517f08c379a000000000000000000000000000000000000000000000000000000000815260040161083090611250565b60405180910390fd5b6000600660019054906101000a900473ffffffffffffffffffffffffffffffffffffffff1673ffffffffffffffffffffffffffffffffffffffff1682604051610881906112a1565b60006040518083038185875af1925050503d80600081146108be576040519150601f19603f3d011682016040523d82523d6000602084013e6108c3565b606091505b5050905080610907576040517f08c379a00000000000000000000000000000000000000000000000000000000081526004016108fe90611328565b60405180910390fd5b817f22427047e1a674a9aff59700a2c8d00ea96e017ddf9236690bdedf1f21f28d9d60405160405180910390a25050565b610940610b14565b73ffffffffffffffffffffffffffffffffffffffff1661095e610742565b73ffffffffffffffffffffffffffffffffffffffff16146109b4576040517f08c379a00000000000000000000000000000000000000000000000000000000081526004016109ab90610e13565b60405180910390fd5b600073ffffffffffffffffffffffffffffffffffffffff168173ffffffffffffffffffffffffffffffffffffffff161415610a24576040517f08c379a0000000000000000000000000000000000000000000000000000000008152600401610a1b906113ba565b60405180910390fd5b610a2d81610b1c565b50565b6000600760008373ffffffffffffffffffffffffffffffffffffffff1673ffffffffffffffffffffffffffffffffffffffff1681526020019081526020016000205442109050919050565b610a83610b14565b73ffffffffffffffffffffffffffffffffffffffff16610aa1610742565b73ffffffffffffffffffffffffffffffffffffffff1614610af7576040517f08c379a0000000000000000000000000000000000000000000000000000000008152600401610aee90610e13565b60405180910390fd5b80600660006101000a81548160ff02191690831515021790555050565b600033905090565b60008060009054906101000a900473ffffffffffffffffffffffffffffffffffffffff169050816000806101000a81548173ffffffffffffffffffffffffffffffffffffffff021916908373ffffffffffffffffffffffffffffffffffffffff1602179055508173ffffffffffffffffffffffffffffffffffffffff168173ffffffffffffffffffffffffffffffffffffffff167f8be0079c531659141344cd1fd0a4f28419497f9722a3daafe3b4186f6b6457e060405160405180910390a35050565b600080fd5b600073ffffffffffffffffffffffffffffffffffffffff82169050919050565b6000610c1082610be5565b9050919050565b610c2081610c05565b8114610c2b57600080fd5b50565b600081359050610c3d81610c17565b92915050565b600060208284031215610c5957610c58610be0565b5b6000610c6784828501610c2e565b91505092915050565b6000819050919050565b610c8381610c70565b82525050565b6000602082019050610c9e6000830184610c7a565b92915050565b610cad81610c05565b82525050565b6000602082019050610cc86000830184610ca4565b92915050565b610cd781610c70565b8114610ce257600080fd5b50565b600081359050610cf481610cce565b92915050565b600060208284031215610d1057610d0f610be0565b5b6000610d1e84828501610ce5565b91505092915050565b60008115159050919050565b610d3c81610d27565b82525050565b6000602082019050610d576000830184610d33565b92915050565b610d6681610d27565b8114610d7157600080fd5b50565b600081359050610d8381610d5d565b92915050565b600060208284031215610d9f57610d9e610be0565b5b6000610dad84828501610d74565b91505092915050565b600082825260208201905092915050565b7f4f776e61626c653a2063616c6c6572206973206e6f7420746865206f776e6572600082015250565b6000610dfd602083610db6565b9150610e0882610dc7565b602082019050919050565b60006020820190508181036000830152610e2c81610df0565b9050919050565b7f52656e74696e672069732063757272656e746c79206f66666c696e6500000000600082015250565b6000610e69601c83610db6565b9150610e7482610e33565b602082019050919050565b60006020820190508181036000830152610e9881610e5c565b9050919050565b600081519050610eae81610cce565b92915050565b600060208284031215610eca57610ec9610be0565b5b6000610ed884828501610e9f565b91505092915050565b7f4e6f207061737365732068617665206265656e207374616b6564000000000000600082015250565b6000610f17601a83610db6565b9150610f2282610ee1565b602082019050919050565b60006020820190508181036000830152610f4681610f0a565b9050919050565b7f4e6f7420656e6f75676820657468657200000000000000000000000000000000600082015250565b6000610f83601083610db6565b9150610f8e82610f4d565b602082019050919050565b60006020820190508181036000830152610fb281610f76565b9050919050565b7f4e487b7100000000000000000000000000000000000000000000000000000000600052601160045260246000fd5b6000610ff382610c70565b9150610ffe83610c70565b92508282101561101157611010610fb9565b5b828203905092915050565b7f4e487b7100000000000000000000000000000000000000000000000000000000600052601260045260246000fd5b600061105682610c70565b915061106183610c70565b9250826110715761107061101c565b5b828204905092915050565b600061108782610c70565b915061109283610c70565b9250817fffffffffffffffffffffffffffffffffffffffffffffffffffffffffffffffff04831182151516156110cb576110ca610fb9565b5b828202905092915050565b60006110e182610c70565b91506110ec83610c70565b9250827fffffffffffffffffffffffffffffffffffffffffffffffffffffffffffffffff0382111561112157611120610fb9565b5b828201905092915050565b7f4d6178696d756d2072656e74616c2074696d6573207265616368656400000000600082015250565b6000611162601c83610db6565b915061116d8261112c565b602082019050919050565b6000602082019050818103600083015261119181611155565b9050919050565b7f596f75207374696c6c206861766520616e206163746976652072656e74616c00600082015250565b60006111ce601f83610db6565b91506111d982611198565b602082019050919050565b600060208201905081810360008301526111fd816111c1565b9050919050565b7f436f6e74726163742062616c616e636520697320656d70747900000000000000600082015250565b600061123a601983610db6565b915061124582611204565b602082019050919050565b600060208201905081810360008301526112698161122d565b9050919050565b600081905092915050565b50565b600061128b600083611270565b91506112968261127b565b600082019050919050565b60006112ac8261127e565b9150819050919050565b7f4661696c656420746f2073656e6420457468657220746f205374616b6520636f60008201527f6e74726163740000000000000000000000000000000000000000000000000000602082015250565b6000611312602683610db6565b915061131d826112b6565b604082019050919050565b6000602082019050818103600083015261134181611305565b9050919050565b7f4f776e61626c653a206e6577206f776e657220697320746865207a65726f206160008201527f6464726573730000000000000000000000000000000000000000000000000000602082015250565b60006113a4602683610db6565b91506113af82611348565b604082019050919050565b600060208201905081810360008301526113d381611397565b905091905056fea264697066735822122061a157fb76dcafd47b769ee0ac0ff95fe568e84b2d561ec0465ebe3510cdffbd64736f6c634300080a0033",
  "immutableReferences": {},
  "source": "// SPDX-License-Identifier: MIT\npragma solidity ^0.8.10;\n\nimport \"@openzeppelin/contracts/access/Ownable.sol\";\n\nabstract contract StakeInterface {\n  function getTotalOutstandingShares() external view virtual returns (uint256 totalOutstandingShares); // Count amount of staked access passes\n}\n\ncontract Rent is Ownable {\n  StakeInterface stake;\n\n  uint256 deployDate; // Timestamp of deployment\n  uint256 totalTimesRented; // Track total amount pass has been rented\n  uint256 rentalMultiplier; // Rent multiplier to increase rent supply\n  uint256 _price; // Rental price\n  bool isRentable; // Contract open for renting\n\n  address stakeContractAddress;\n\n  mapping(address => uint256) rentDateExpiry; // Track renter\n\n  event Rented(address indexed _address); // Renting event\n  event UpdateStakeContractAddress(address indexed newAddress); // When a token has added to the rent list\n  event Payout(uint256 indexed _amount); // Payout all stakers\n\n  constructor(uint256 price) {\n    setStakeContractAddress(0x1bb191e56206e11b14117711C333CC18b9861262); // Staking Contract Address\n\n    deployDate = block.timestamp;\n    rentalMultiplier = 2;\n    _price = price;\n    isRentable = false;\n  }\n\n  function setStakeContractAddress(address _address) public onlyOwner {\n    stakeContractAddress = _address;\n    stake = StakeInterface(_address);\n    emit UpdateStakeContractAddress(_address);\n  }\n\n  // Change if customers can rent or not\n  function setIsRentable(bool status) public onlyOwner {\n    isRentable = status;\n  }\n\n  // Rent a pass\n  function rent() external payable {\n    require(isRentable, \"Renting is currently offline\");\n    \n    /// @dev Get total amount of staked NFTs in Stake contract\n    uint256 totalOutstandingShares = stake.getTotalOutstandingShares();\n    require(totalOutstandingShares > 0, \"No passes have been staked\");\n\n    require(msg.value >= _price, \"Not enough ether\"); // Make sure the sender has enough ether to rent a pass\n\n    /// @dev Check months since deployed. This assume 1 month is 30 days.\n    uint256 monthsSinceDeploy = (block.timestamp - deployDate) / 1000 / 60 / 60 / 24 / 30;\n\n    /// @dev Get max rent limit per month multiplied by rental multiplier.\n    /// @notice If no one rent out passes within the month, the max limit will keep on increasing.\n    uint256 rentalMaxLimit = (monthsSinceDeploy * totalOutstandingShares * rentalMultiplier) + 10; // Minimum of 10\n    require(rentalMaxLimit > totalTimesRented, \"Maximum rental times reached\");\n\n    require( block.timestamp > rentDateExpiry[msg.sender], \"You still have an active rental\");\n\n    /// @notice Record expiry date in a map. Multiply days to support multi-month rentals.    \n    rentDateExpiry[msg.sender] = uint256(block.timestamp) + (30 days * (msg.value / _price));\n    totalTimesRented += 1; // Increment total times rented\n\n    emit Rented(msg.sender);\n  }\n\n  // Check if renter has active rent\n  function isRentActive(address _address) external view returns (bool) {\n    return block.timestamp < rentDateExpiry[_address]; // Check if current timestamp is less than expiry\n  }\n\n  function getRentPrice() external view returns (uint256) {\n    return _price;\n  }\n\n  function setRentPrice(uint256 price) public onlyOwner {\n    _price = price;\n  }\n\n  /// @dev Send full balance to staking contract\n  function transferFundsToStakerContract() external payable{\n    uint256 contractBalance = address(this).balance;\n    require(contractBalance > 0, \"Contract balance is empty\");\n    \n    (bool success, ) = payable(stakeContractAddress).call{\n      value: contractBalance\n    }(\"\");\n    require(success, \"Failed to send Ether to Stake contract\");\n    emit Payout(contractBalance);\n  }\n  \n}\n",
  "sourcePath": "/Users/dannypostma/Development/rareblocks/ethereum/staking-pooled/contracts/Rent.sol",
  "compiler": {
    "name": "solc",
    "version": "0.8.10+commit.fc410830.Emscripten.clang"
  },
  "schemaVersion": "3.4.3",
  "updatedAt": "2021-12-20T06:26:41.948Z",
  "networkType": "ethereum",
  "devdoc": {
    "kind": "dev",
    "methods": {
      "owner()": {
        "details": "Returns the address of the current owner."
      },
      "renounceOwnership()": {
        "details": "Leaves the contract without owner. It will not be possible to call `onlyOwner` functions anymore. Can only be called by the current owner. NOTE: Renouncing ownership will leave the contract without an owner, thereby removing any functionality that is only available to the owner."
      },
      "transferFundsToStakerContract()": {
        "details": "Send full balance to staking contract"
      },
      "transferOwnership(address)": {
        "details": "Transfers ownership of the contract to a new account (`newOwner`). Can only be called by the current owner."
      }
    },
    "version": 1
  },
  "userdoc": {
    "kind": "user",
    "methods": {},
    "version": 1
  }
}