{
  "contractName": "Stake",
  "abi": [
    {
      "inputs": [],
      "stateMutability": "nonpayable",
      "type": "constructor"
    },
    {
      "anonymous": false,
      "inputs": [
        {
          "indexed": true,
          "internalType": "address",
          "name": "previousOwner",
          "type": "address"
        },
        {
          "indexed": true,
          "internalType": "address",
          "name": "newOwner",
          "type": "address"
        }
      ],
      "name": "OwnershipTransferred",
      "type": "event"
    },
    {
      "anonymous": false,
      "inputs": [
        {
          "indexed": true,
          "internalType": "uint256",
          "name": "treasury",
          "type": "uint256"
        }
      ],
      "name": "Payout",
      "type": "event"
    },
    {
      "anonymous": false,
      "inputs": [
        {
          "indexed": false,
          "internalType": "address",
          "name": "",
          "type": "address"
        },
        {
          "indexed": false,
          "internalType": "uint256",
          "name": "",
          "type": "uint256"
        }
      ],
      "name": "Received",
      "type": "event"
    },
    {
      "anonymous": false,
      "inputs": [
        {
          "indexed": true,
          "internalType": "address",
          "name": "newAddress",
          "type": "address"
        }
      ],
      "name": "SetRareblocksContractAddress",
      "type": "event"
    },
    {
      "anonymous": false,
      "inputs": [
        {
          "indexed": true,
          "internalType": "address",
          "name": "from",
          "type": "address"
        },
        {
          "indexed": true,
          "internalType": "uint256",
          "name": "tokenId",
          "type": "uint256"
        },
        {
          "indexed": false,
          "internalType": "address",
          "name": "sender",
          "type": "address"
        }
      ],
      "name": "Staked",
      "type": "event"
    },
    {
      "anonymous": false,
      "inputs": [
        {
          "indexed": true,
          "internalType": "address",
          "name": "_from",
          "type": "address"
        },
        {
          "indexed": true,
          "internalType": "uint256",
          "name": "tokenId",
          "type": "uint256"
        }
      ],
      "name": "Unstaked",
      "type": "event"
    },
    {
      "anonymous": false,
      "inputs": [
        {
          "indexed": true,
          "internalType": "address",
          "name": "newAddress",
          "type": "address"
        }
      ],
      "name": "UpdateTreasury",
      "type": "event"
    },
    {
      "inputs": [],
      "name": "owner",
      "outputs": [
        {
          "internalType": "address",
          "name": "",
          "type": "address"
        }
      ],
      "stateMutability": "view",
      "type": "function",
      "constant": true
    },
    {
      "inputs": [],
      "name": "renounceOwnership",
      "outputs": [],
      "stateMutability": "nonpayable",
      "type": "function"
    },
    {
      "inputs": [
        {
          "internalType": "address",
          "name": "newOwner",
          "type": "address"
        }
      ],
      "name": "transferOwnership",
      "outputs": [],
      "stateMutability": "nonpayable",
      "type": "function"
    },
    {
      "stateMutability": "payable",
      "type": "receive",
      "payable": true
    },
    {
      "inputs": [
        {
          "internalType": "address",
          "name": "_rbAddress",
          "type": "address"
        }
      ],
      "name": "setRareblocksContractAddress",
      "outputs": [],
      "stateMutability": "nonpayable",
      "type": "function"
    },
    {
      "inputs": [
        {
          "internalType": "address",
          "name": "_newAddress",
          "type": "address"
        }
      ],
      "name": "updateTreasury",
      "outputs": [],
      "stateMutability": "nonpayable",
      "type": "function"
    },
    {
      "inputs": [
        {
          "internalType": "address",
          "name": "_from",
          "type": "address"
        },
        {
          "internalType": "address",
          "name": "",
          "type": "address"
        },
        {
          "internalType": "uint256",
          "name": "_tokenId",
          "type": "uint256"
        },
        {
          "internalType": "bytes",
          "name": "",
          "type": "bytes"
        }
      ],
      "name": "onERC721Received",
      "outputs": [
        {
          "internalType": "bytes4",
          "name": "",
          "type": "bytes4"
        }
      ],
      "stateMutability": "nonpayable",
      "type": "function"
    },
    {
      "inputs": [
        {
          "internalType": "address",
          "name": "_address",
          "type": "address"
        }
      ],
      "name": "getTokensStakedByAddress",
      "outputs": [
        {
          "internalType": "uint256[]",
          "name": "",
          "type": "uint256[]"
        }
      ],
      "stateMutability": "view",
      "type": "function",
      "constant": true
    },
    {
      "inputs": [
        {
          "internalType": "uint256",
          "name": "_tokenId",
          "type": "uint256"
        }
      ],
      "name": "stakeAndPurchaseTreasuryStock",
      "outputs": [],
      "stateMutability": "payable",
      "type": "function",
      "payable": true
    },
    {
      "inputs": [
        {
          "internalType": "uint256",
          "name": "_tokenId",
          "type": "uint256"
        }
      ],
      "name": "unstakeAccessPass",
      "outputs": [],
      "stateMutability": "payable",
      "type": "function",
      "payable": true
    },
    {
      "inputs": [],
      "name": "payoutStakers",
      "outputs": [],
      "stateMutability": "payable",
      "type": "function",
      "payable": true
    },
    {
      "inputs": [],
      "name": "getTotalOutstandingShares",
      "outputs": [
        {
          "internalType": "uint256",
          "name": "",
          "type": "uint256"
        }
      ],
      "stateMutability": "view",
      "type": "function",
      "constant": true
    },
    {
      "inputs": [
        {
          "internalType": "address",
          "name": "owner",
          "type": "address"
        }
      ],
      "name": "getSharesPerWallet",
      "outputs": [
        {
          "internalType": "uint256",
          "name": "",
          "type": "uint256"
        }
      ],
      "stateMutability": "view",
      "type": "function",
      "constant": true
    },
    {
      "inputs": [],
      "name": "getAllStakerAddresses",
      "outputs": [
        {
          "internalType": "address[]",
          "name": "",
          "type": "address[]"
        }
      ],
      "stateMutability": "view",
      "type": "function",
      "constant": true
    },
    {
      "inputs": [],
      "name": "getSharePrice",
      "outputs": [
        {
          "internalType": "uint256",
          "name": "",
          "type": "uint256"
        }
      ],
      "stateMutability": "view",
      "type": "function",
      "constant": true
    }
  ],
  "bytecode": "0x608060405260006006553480156200001657600080fd5b50620000376200002b620000bf60201b60201c565b620000c760201b60201c565b6200005c731bb191e56206e11b14117711c333cc18b98612626200018b60201b60201c565b7396e7c3baa9c1ef234a1f85562a6c444213a02e0a600460006101000a81548173ffffffffffffffffffffffffffffffffffffffff021916908373ffffffffffffffffffffffffffffffffffffffff16021790555060646005819055506200038e565b600033905090565b60008060009054906101000a900473ffffffffffffffffffffffffffffffffffffffff169050816000806101000a81548173ffffffffffffffffffffffffffffffffffffffff021916908373ffffffffffffffffffffffffffffffffffffffff1602179055508173ffffffffffffffffffffffffffffffffffffffff168173ffffffffffffffffffffffffffffffffffffffff167f8be0079c531659141344cd1fd0a4f28419497f9722a3daafe3b4186f6b6457e060405160405180910390a35050565b6200019b620000bf60201b60201c565b73ffffffffffffffffffffffffffffffffffffffff16620001c1620002e260201b60201c565b73ffffffffffffffffffffffffffffffffffffffff16146200021a576040517f08c379a000000000000000000000000000000000000000000000000000000000815260040162000211906200036c565b60405180910390fd5b80600360006101000a81548173ffffffffffffffffffffffffffffffffffffffff021916908373ffffffffffffffffffffffffffffffffffffffff16021790555080600160006101000a81548173ffffffffffffffffffffffffffffffffffffffff021916908373ffffffffffffffffffffffffffffffffffffffff1602179055508073ffffffffffffffffffffffffffffffffffffffff167f2216c14e5e1e1182525d0aa5662651e4338d44a65953f8bbf6a72276355752e460405160405180910390a250565b60008060009054906101000a900473ffffffffffffffffffffffffffffffffffffffff16905090565b600082825260208201905092915050565b7f4f776e61626c653a2063616c6c6572206973206e6f7420746865206f776e6572600082015250565b6000620003546020836200030b565b915062000361826200031c565b602082019050919050565b60006020820190508181036000830152620003878162000345565b9050919050565b612c95806200039e6000396000f3fe6080604052600436106100e15760003560e01c80638c1e49bd1161007f578063b78757cb11610059578063b78757cb146102c4578063ec8ecea8146102ed578063f2fde38b14610318578063f633b0471461034157610121565b80638c1e49bd146102405780638da5cb5b1461027d578063a81bf9af146102a857610121565b806336f51bff116100bb57806336f51bff146101cb5780635b1dac60146101d5578063715018a6146102005780637f51bb1f1461021757610121565b80630e341f7b14610126578063150b7a02146101635780632e589236146101a057610121565b36610121577f88a5966d370b9919b20f3e2c13ff65706f196a4e32cc2c12bf57088f885258743334604051610117929190611ddd565b60405180910390a1005b600080fd5b34801561013257600080fd5b5061014d60048036038101906101489190611e3c565b61035d565b60405161015a9190611f27565b60405180910390f35b34801561016f57600080fd5b5061018a60048036038101906101859190611fda565b6103f4565b604051610197919061209d565b60405180910390f35b3480156101ac57600080fd5b506101b5610567565b6040516101c29190612176565b60405180910390f35b6101d36105f5565b005b3480156101e157600080fd5b506101ea61099d565b6040516101f79190612198565b60405180910390f35b34801561020c57600080fd5b506102156109f6565b005b34801561022357600080fd5b5061023e60048036038101906102399190611e3c565b610a7e565b005b34801561024c57600080fd5b5061026760048036038101906102629190611e3c565b610b81565b6040516102749190612198565b60405180910390f35b34801561028957600080fd5b50610292610bca565b60405161029f91906121b3565b60405180910390f35b6102c260048036038101906102bd91906121ce565b610bf3565b005b3480156102d057600080fd5b506102eb60048036038101906102e69190611e3c565b611079565b005b3480156102f957600080fd5b506103026111bd565b60405161030f9190612198565b60405180910390f35b34801561032457600080fd5b5061033f600480360381019061033a9190611e3c565b6111c7565b005b61035b600480360381019061035691906121ce565b6112bf565b005b6060600760008373ffffffffffffffffffffffffffffffffffffffff1673ffffffffffffffffffffffffffffffffffffffff1681526020019081526020016000208054806020026020016040519081016040528092919081815260200182805480156103e857602002820191906000526020600020905b8154815260200190600101908083116103d4575b50505050509050919050565b6000600360009054906101000a900473ffffffffffffffffffffffffffffffffffffffff1673ffffffffffffffffffffffffffffffffffffffff163373ffffffffffffffffffffffffffffffffffffffff1614610486576040517f08c379a000000000000000000000000000000000000000000000000000000000815260040161047d90612258565b60405180910390fd5b600760008773ffffffffffffffffffffffffffffffffffffffff1673ffffffffffffffffffffffffffffffffffffffff168152602001908152602001600020849080600181540180825580915050600190039060005260206000200160009091909190915055838673ffffffffffffffffffffffffffffffffffffffff167f9f9e4044c5742cca66ca090b21552bac14645e68bad7a92364a9d9ff18111a1c3360405161053391906121b3565b60405180910390a37f150b7a023d4804d13e8c85fb27262cb750cf6ba9f9dd3bb30d90f482ceeb4b1f905095945050505050565b606060028054806020026020016040519081016040528092919081815260200182805480156105eb57602002820191906000526020600020905b8160009054906101000a900473ffffffffffffffffffffffffffffffffffffffff1673ffffffffffffffffffffffffffffffffffffffff16815260200190600101908083116105a1575b5050505050905090565b60004790506000811161063d576040517f08c379a0000000000000000000000000000000000000000000000000000000008152600401610634906122c4565b60405180910390fd5b600081905060005b60028054905081101561089c576000600860006002848154811061066c5761066b6122e4565b5b9060005260206000200160009054906101000a900473ffffffffffffffffffffffffffffffffffffffff1673ffffffffffffffffffffffffffffffffffffffff1673ffffffffffffffffffffffffffffffffffffffff1681526020019081526020016000205490506000811115610888576000600654846106ed9190612371565b905060006008600060028681548110610709576107086122e4565b5b9060005260206000200160009054906101000a900473ffffffffffffffffffffffffffffffffffffffff1673ffffffffffffffffffffffffffffffffffffffff1673ffffffffffffffffffffffffffffffffffffffff1681526020019081526020016000205490506000818361077f91906123a2565b9050600060028681548110610797576107966122e4565b5b9060005260206000200160009054906101000a900473ffffffffffffffffffffffffffffffffffffffff1673ffffffffffffffffffffffffffffffffffffffff166107f1836005546103e86107ec91906123fc565b611784565b6040516107fd90612461565b60006040518083038185875af1925050503d806000811461083a576040519150601f19603f3d011682016040523d82523d6000602084013e61083f565b606091505b5050905080610883576040517f08c379a000000000000000000000000000000000000000000000000000000000815260040161087a906124c2565b60405180910390fd5b505050505b508080610894906124e2565b915050610645565b506000600460009054906101000a900473ffffffffffffffffffffffffffffffffffffffff1673ffffffffffffffffffffffffffffffffffffffff16476040516108e590612461565b60006040518083038185875af1925050503d8060008114610922576040519150601f19603f3d011682016040523d82523d6000602084013e610927565b606091505b505090508061096b576040517f08c379a000000000000000000000000000000000000000000000000000000000815260040161096290612577565b60405180910390fd5b817f22427047e1a674a9aff59700a2c8d00ea96e017ddf9236690bdedf1f21f28d9d60405160405180910390a2505050565b600080600654116109e3576040517f08c379a00000000000000000000000000000000000000000000000000000000081526004016109da906125e3565b60405180910390fd5b600654476109f19190612371565b905090565b6109fe6117b5565b73ffffffffffffffffffffffffffffffffffffffff16610a1c610bca565b73ffffffffffffffffffffffffffffffffffffffff1614610a72576040517f08c379a0000000000000000000000000000000000000000000000000000000008152600401610a699061264f565b60405180910390fd5b610a7c60006117bd565b565b610a866117b5565b73ffffffffffffffffffffffffffffffffffffffff16610aa4610bca565b73ffffffffffffffffffffffffffffffffffffffff1614610afa576040517f08c379a0000000000000000000000000000000000000000000000000000000008152600401610af19061264f565b60405180910390fd5b80600460006101000a81548173ffffffffffffffffffffffffffffffffffffffff021916908373ffffffffffffffffffffffffffffffffffffffff1602179055508073ffffffffffffffffffffffffffffffffffffffff167f1f54d231bb9d500b1923e4a1cb25e600f366a8368873d9af7c1c623814df19fc60405160405180910390a250565b6000600860008373ffffffffffffffffffffffffffffffffffffffff1673ffffffffffffffffffffffffffffffffffffffff168152602001908152602001600020549050919050565b60008060009054906101000a900473ffffffffffffffffffffffffffffffffffffffff16905090565b6000479050600081118015610c0a57506000600654115b15610c725760006001600654610c20919061266f565b82610c2b9190612371565b905080341015610c70576040517f08c379a0000000000000000000000000000000000000000000000000000000008152600401610c6790612737565b60405180910390fd5b505b3373ffffffffffffffffffffffffffffffffffffffff16600160009054906101000a900473ffffffffffffffffffffffffffffffffffffffff1673ffffffffffffffffffffffffffffffffffffffff16636352211e846040518263ffffffff1660e01b8152600401610ce49190612198565b602060405180830381865afa158015610d01573d6000803e3d6000fd5b505050506040513d601f19601f82011682018060405250810190610d25919061276c565b73ffffffffffffffffffffffffffffffffffffffff1614610d7b576040517f08c379a0000000000000000000000000000000000000000000000000000000008152600401610d72906127e5565b60405180910390fd5b60011515600160009054906101000a900473ffffffffffffffffffffffffffffffffffffffff1673ffffffffffffffffffffffffffffffffffffffff1663e985e9c533306040518363ffffffff1660e01b8152600401610ddc929190612805565b602060405180830381865afa158015610df9573d6000803e3d6000fd5b505050506040513d601f19601f82011682018060405250810190610e1d9190612866565b151514610e5f576040517f08c379a0000000000000000000000000000000000000000000000000000000008152600401610e5690612905565b60405180910390fd5b60066000815480929190610e72906124e2565b9190505550600860003373ffffffffffffffffffffffffffffffffffffffff1673ffffffffffffffffffffffffffffffffffffffff1681526020019081526020016000206000815480929190610ec7906124e2565b91905055506002339080600181540180825580915050600190039060005260206000200160009091909190916101000a81548173ffffffffffffffffffffffffffffffffffffffff021916908373ffffffffffffffffffffffffffffffffffffffff160217905550600760003373ffffffffffffffffffffffffffffffffffffffff1673ffffffffffffffffffffffffffffffffffffffff168152602001908152602001600020829080600181540180825580915050600190039060005260206000200160009091909190915055600160009054906101000a900473ffffffffffffffffffffffffffffffffffffffff1673ffffffffffffffffffffffffffffffffffffffff166342842e0e3330856040518463ffffffff1660e01b8152600401610ff493929190612925565b600060405180830381600087803b15801561100e57600080fd5b505af1158015611022573d6000803e3d6000fd5b50505050813073ffffffffffffffffffffffffffffffffffffffff167f9f9e4044c5742cca66ca090b21552bac14645e68bad7a92364a9d9ff18111a1c3360405161106d91906121b3565b60405180910390a35050565b6110816117b5565b73ffffffffffffffffffffffffffffffffffffffff1661109f610bca565b73ffffffffffffffffffffffffffffffffffffffff16146110f5576040517f08c379a00000000000000000000000000000000000000000000000000000000081526004016110ec9061264f565b60405180910390fd5b80600360006101000a81548173ffffffffffffffffffffffffffffffffffffffff021916908373ffffffffffffffffffffffffffffffffffffffff16021790555080600160006101000a81548173ffffffffffffffffffffffffffffffffffffffff021916908373ffffffffffffffffffffffffffffffffffffffff1602179055508073ffffffffffffffffffffffffffffffffffffffff167f2216c14e5e1e1182525d0aa5662651e4338d44a65953f8bbf6a72276355752e460405160405180910390a250565b6000600654905090565b6111cf6117b5565b73ffffffffffffffffffffffffffffffffffffffff166111ed610bca565b73ffffffffffffffffffffffffffffffffffffffff1614611243576040517f08c379a000000000000000000000000000000000000000000000000000000000815260040161123a9061264f565b60405180910390fd5b600073ffffffffffffffffffffffffffffffffffffffff168173ffffffffffffffffffffffffffffffffffffffff1614156112b3576040517f08c379a00000000000000000000000000000000000000000000000000000000081526004016112aa906129ce565b60405180910390fd5b6112bc816117bd565b50565b6000600760003373ffffffffffffffffffffffffffffffffffffffff1673ffffffffffffffffffffffffffffffffffffffff1681526020019081526020016000208054905011611344576040517f08c379a000000000000000000000000000000000000000000000000000000000815260040161133b90612a3a565b60405180910390fd5b6000479050600060065490506000805b600760003373ffffffffffffffffffffffffffffffffffffffff1673ffffffffffffffffffffffffffffffffffffffff1681526020019081526020016000208054905081101561141957600760003373ffffffffffffffffffffffffffffffffffffffff1673ffffffffffffffffffffffffffffffffffffffff16815260200190815260200160002081815481106113ef576113ee6122e4565b5b906000526020600020015485141561140657600191505b8080611411906124e2565b915050611354565b508061145a576040517f08c379a000000000000000000000000000000000000000000000000000000000815260040161145190612acc565b60405180910390fd5b61146333611881565b60016006600082825461147691906123fc565b925050819055506001600860003373ffffffffffffffffffffffffffffffffffffffff1673ffffffffffffffffffffffffffffffffffffffff16815260200190815260200160002060008282546114cd91906123fc565b925050819055506114dd84611924565b600160009054906101000a900473ffffffffffffffffffffffffffffffffffffffff1673ffffffffffffffffffffffffffffffffffffffff166342842e0e3033876040518463ffffffff1660e01b815260040161153c93929190612925565b600060405180830381600087803b15801561155657600080fd5b505af115801561156a573d6000803e3d6000fd5b50505050600083111561173a57600082846115859190612371565b9050600081905060006115a7826005546103e86115a291906123fc565b611784565b905060006115b783600554611784565b905060003373ffffffffffffffffffffffffffffffffffffffff16836040516115df90612461565b60006040518083038185875af1925050503d806000811461161c576040519150601f19603f3d011682016040523d82523d6000602084013e611621565b606091505b5050905080611665576040517f08c379a000000000000000000000000000000000000000000000000000000000815260040161165c90612b38565b60405180910390fd5b6000600460009054906101000a900473ffffffffffffffffffffffffffffffffffffffff1673ffffffffffffffffffffffffffffffffffffffff16836040516116ad90612461565b60006040518083038185875af1925050503d80600081146116ea576040519150601f19603f3d011682016040523d82523d6000602084013e6116ef565b606091505b5050905080611733576040517f08c379a000000000000000000000000000000000000000000000000000000000815260040161172a90612ba4565b60405180910390fd5b5050505050505b833373ffffffffffffffffffffffffffffffffffffffff167f0f5bb82176feb1b5e747e28471aa92156a04d9f3ab9f45f28e2d704232b93f7560405160405180910390a350505050565b600081629896806117959190612371565b612710846117a391906123a2565b6117ad9190612371565b905092915050565b600033905090565b60008060009054906101000a900473ffffffffffffffffffffffffffffffffffffffff169050816000806101000a81548173ffffffffffffffffffffffffffffffffffffffff021916908373ffffffffffffffffffffffffffffffffffffffff1602179055508173ffffffffffffffffffffffffffffffffffffffff168173ffffffffffffffffffffffffffffffffffffffff167f8be0079c531659141344cd1fd0a4f28419497f9722a3daafe3b4186f6b6457e060405160405180910390a35050565b60005b600280549050811015611920578173ffffffffffffffffffffffffffffffffffffffff16600282815481106118bc576118bb6122e4565b5b9060005260206000200160009054906101000a900473ffffffffffffffffffffffffffffffffffffffff1673ffffffffffffffffffffffffffffffffffffffff16141561190d5761190c816119f5565b5b8080611918906124e2565b915050611884565b5050565b60005b600760003373ffffffffffffffffffffffffffffffffffffffff1673ffffffffffffffffffffffffffffffffffffffff168152602001908152602001600020805490508110156119f15781600760003373ffffffffffffffffffffffffffffffffffffffff1673ffffffffffffffffffffffffffffffffffffffff16815260200190815260200160002082815481106119c3576119c26122e4565b5b906000526020600020015414156119de576119dd81611b60565b5b80806119e9906124e2565b915050611927565b5050565b6002805490508110611a3c576040517f08c379a0000000000000000000000000000000000000000000000000000000008152600401611a3390612c10565b60405180910390fd5b60008190505b6001600280549050611a5491906123fc565b811015611b15576002600182611a6a919061266f565b81548110611a7b57611a7a6122e4565b5b9060005260206000200160009054906101000a900473ffffffffffffffffffffffffffffffffffffffff1660028281548110611aba57611ab96122e4565b5b9060005260206000200160006101000a81548173ffffffffffffffffffffffffffffffffffffffff021916908373ffffffffffffffffffffffffffffffffffffffff1602179055508080611b0d906124e2565b915050611a42565b506002805480611b2857611b27612c30565b5b6001900381819060005260206000200160006101000a81549073ffffffffffffffffffffffffffffffffffffffff0219169055905550565b600760003373ffffffffffffffffffffffffffffffffffffffff1673ffffffffffffffffffffffffffffffffffffffff168152602001908152602001600020805490508110611be4576040517f08c379a0000000000000000000000000000000000000000000000000000000008152600401611bdb90612c10565b60405180910390fd5b60008190505b6001600760003373ffffffffffffffffffffffffffffffffffffffff1673ffffffffffffffffffffffffffffffffffffffff16815260200190815260200160002080549050611c3991906123fc565b811015611d1a57600760003373ffffffffffffffffffffffffffffffffffffffff1673ffffffffffffffffffffffffffffffffffffffff168152602001908152602001600020600182611c8c919061266f565b81548110611c9d57611c9c6122e4565b5b9060005260206000200154600760003373ffffffffffffffffffffffffffffffffffffffff1673ffffffffffffffffffffffffffffffffffffffff1681526020019081526020016000208281548110611cf957611cf86122e4565b5b90600052602060002001819055508080611d12906124e2565b915050611bea565b50600760003373ffffffffffffffffffffffffffffffffffffffff1673ffffffffffffffffffffffffffffffffffffffff168152602001908152602001600020805480611d6a57611d69612c30565b5b6001900381819060005260206000200160009055905550565b600073ffffffffffffffffffffffffffffffffffffffff82169050919050565b6000611dae82611d83565b9050919050565b611dbe81611da3565b82525050565b6000819050919050565b611dd781611dc4565b82525050565b6000604082019050611df26000830185611db5565b611dff6020830184611dce565b9392505050565b600080fd5b600080fd5b611e1981611da3565b8114611e2457600080fd5b50565b600081359050611e3681611e10565b92915050565b600060208284031215611e5257611e51611e06565b5b6000611e6084828501611e27565b91505092915050565b600081519050919050565b600082825260208201905092915050565b6000819050602082019050919050565b611e9e81611dc4565b82525050565b6000611eb08383611e95565b60208301905092915050565b6000602082019050919050565b6000611ed482611e69565b611ede8185611e74565b9350611ee983611e85565b8060005b83811015611f1a578151611f018882611ea4565b9750611f0c83611ebc565b925050600181019050611eed565b5085935050505092915050565b60006020820190508181036000830152611f418184611ec9565b905092915050565b611f5281611dc4565b8114611f5d57600080fd5b50565b600081359050611f6f81611f49565b92915050565b600080fd5b600080fd5b600080fd5b60008083601f840112611f9a57611f99611f75565b5b8235905067ffffffffffffffff811115611fb757611fb6611f7a565b5b602083019150836001820283011115611fd357611fd2611f7f565b5b9250929050565b600080600080600060808688031215611ff657611ff5611e06565b5b600061200488828901611e27565b955050602061201588828901611e27565b945050604061202688828901611f60565b935050606086013567ffffffffffffffff81111561204757612046611e0b565b5b61205388828901611f84565b92509250509295509295909350565b60007fffffffff0000000000000000000000000000000000000000000000000000000082169050919050565b61209781612062565b82525050565b60006020820190506120b2600083018461208e565b92915050565b600081519050919050565b600082825260208201905092915050565b6000819050602082019050919050565b6120ed81611da3565b82525050565b60006120ff83836120e4565b60208301905092915050565b6000602082019050919050565b6000612123826120b8565b61212d81856120c3565b9350612138836120d4565b8060005b8381101561216957815161215088826120f3565b975061215b8361210b565b92505060018101905061213c565b5085935050505092915050565b600060208201905081810360008301526121908184612118565b905092915050565b60006020820190506121ad6000830184611dce565b92915050565b60006020820190506121c86000830184611db5565b92915050565b6000602082840312156121e4576121e3611e06565b5b60006121f284828501611f60565b91505092915050565b600082825260208201905092915050565b7f57726f6e67204e46540000000000000000000000000000000000000000000000600082015250565b60006122426009836121fb565b915061224d8261220c565b602082019050919050565b6000602082019050818103600083015261227181612235565b9050919050565b7f547265617375727920697320656d707479000000000000000000000000000000600082015250565b60006122ae6011836121fb565b91506122b982612278565b602082019050919050565b600060208201905081810360008301526122dd816122a1565b9050919050565b7f4e487b7100000000000000000000000000000000000000000000000000000000600052603260045260246000fd5b7f4e487b7100000000000000000000000000000000000000000000000000000000600052601260045260246000fd5b7f4e487b7100000000000000000000000000000000000000000000000000000000600052601160045260246000fd5b600061237c82611dc4565b915061238783611dc4565b92508261239757612396612313565b5b828204905092915050565b60006123ad82611dc4565b91506123b883611dc4565b9250817fffffffffffffffffffffffffffffffffffffffffffffffffffffffffffffffff04831182151516156123f1576123f0612342565b5b828202905092915050565b600061240782611dc4565b915061241283611dc4565b92508282101561242557612424612342565b5b828203905092915050565b600081905092915050565b50565b600061244b600083612430565b91506124568261243b565b600082019050919050565b600061246c8261243e565b9150819050919050565b7f4661696c656420746f2073656e6420457468657220746f206164647265737300600082015250565b60006124ac601f836121fb565b91506124b782612476565b602082019050919050565b600060208201905081810360008301526124db8161249f565b9050919050565b60006124ed82611dc4565b91507fffffffffffffffffffffffffffffffffffffffffffffffffffffffffffffffff8214156125205761251f612342565b5b600182019050919050565b7f4661696c656420746f2073656e6420457468657220746f205472656173757279600082015250565b60006125616020836121fb565b915061256c8261252b565b602082019050919050565b6000602082019050818103600083015261259081612554565b9050919050565b7f4e6f206f75747374616e64696e672073686172657320666f756e640000000000600082015250565b60006125cd601b836121fb565b91506125d882612597565b602082019050919050565b600060208201905081810360008301526125fc816125c0565b9050919050565b7f4f776e61626c653a2063616c6c6572206973206e6f7420746865206f776e6572600082015250565b60006126396020836121fb565b915061264482612603565b602082019050919050565b600060208201905081810360008301526126688161262c565b9050919050565b600061267a82611dc4565b915061268583611dc4565b9250827fffffffffffffffffffffffffffffffffffffffffffffffffffffffffffffffff038211156126ba576126b9612342565b5b828201905092915050565b7f4e6f7420656e6f7567682076616c756520746f2070757263686173652073686160008201527f7265000000000000000000000000000000000000000000000000000000000000602082015250565b60006127216022836121fb565b915061272c826126c5565b604082019050919050565b6000602082019050818103600083015261275081612714565b9050919050565b60008151905061276681611e10565b92915050565b60006020828403121561278257612781611e06565b5b600061279084828501612757565b91505092915050565b7f596f7520646f206e6f74206f776e207468697320746f6b656e2e000000000000600082015250565b60006127cf601a836121fb565b91506127da82612799565b602082019050919050565b600060208201905081810360008301526127fe816127c2565b9050919050565b600060408201905061281a6000830185611db5565b6128276020830184611db5565b9392505050565b60008115159050919050565b6128438161282e565b811461284e57600080fd5b50565b6000815190506128608161283a565b92915050565b60006020828403121561287c5761287b611e06565b5b600061288a84828501612851565b91505092915050565b7f596f7520646964206e6f7420617070726f7665207468697320636f6e7472616360008201527f7420746f207472616e736665722e000000000000000000000000000000000000602082015250565b60006128ef602e836121fb565b91506128fa82612893565b604082019050919050565b6000602082019050818103600083015261291e816128e2565b9050919050565b600060608201905061293a6000830186611db5565b6129476020830185611db5565b6129546040830184611dce565b949350505050565b7f4f776e61626c653a206e6577206f776e657220697320746865207a65726f206160008201527f6464726573730000000000000000000000000000000000000000000000000000602082015250565b60006129b86026836121fb565b91506129c38261295c565b604082019050919050565b600060208201905081810360008301526129e7816129ab565b9050919050565b7f596f7520686176656e2774207374616b6564206120746f6b656e2e0000000000600082015250565b6000612a24601b836121fb565b9150612a2f826129ee565b602082019050919050565b60006020820190508181036000830152612a5381612a17565b9050919050565b7f5468697320746f6b656e496420686173206e6f74206265656e207374616b656460008201527f20627920796f752e000000000000000000000000000000000000000000000000602082015250565b6000612ab66028836121fb565b9150612ac182612a5a565b604082019050919050565b60006020820190508181036000830152612ae581612aa9565b9050919050565b7f4661696c656420746f2073656e6420457468657220746f2063616c6c65720000600082015250565b6000612b22601e836121fb565b9150612b2d82612aec565b602082019050919050565b60006020820190508181036000830152612b5181612b15565b9050919050565b7f4661696c656420746f2073656e6420457468657220746f207472656173757279600082015250565b6000612b8e6020836121fb565b9150612b9982612b58565b602082019050919050565b60006020820190508181036000830152612bbd81612b81565b9050919050565b7f696e646578206f7574206f6620626f756e640000000000000000000000000000600082015250565b6000612bfa6012836121fb565b9150612c0582612bc4565b602082019050919050565b60006020820190508181036000830152612c2981612bed565b9050919050565b7f4e487b7100000000000000000000000000000000000000000000000000000000600052603160045260246000fdfea26469706673582212206c799ef0453d7ca0890925bd1c4392ad04a1c3336177bbe0549640f7f7ad0c6d64736f6c634300080a0033",
  "immutableReferences": {},
  "source": "// SPDX-License-Identifier: MIT\npragma solidity ^0.8.10;\n\nimport \"@openzeppelin/contracts/token/ERC721/IERC721Receiver.sol\";\nimport \"@openzeppelin/contracts/access/Ownable.sol\";\n\nabstract contract RareBlocksInterface {\n  function safeTransferFrom( address from, address to, uint256 tokenId ) external virtual;\n  function ownerOf(uint256 tokenId) external view virtual returns (address owner);\n  function isApprovedForAll(address sender, address cAddress) external view virtual returns (bool approval);\n}\n\ncontract Stake is IERC721Receiver, Ownable {\n  RareBlocksInterface rareBlocks;\n\n\n  address[] ownersAddresses; // Track owners of staked tokens\n  address rareBlocksContractAddress; // Rareblocks NFT contract address\n  address treasuryAddress; // Treasury\n\n\n    uint256 rareBlocksCommission;\n    uint256 totalOutstandingShares = 0; // Amount of outstanding shares of the treasury\n\n  mapping(address => uint256[]) tokenOwners; // Track staked tokens\n  mapping(address => uint256) sharesPerWallet; // Amount of shares a wallet holds;\n\n  event Staked(address indexed from, uint256 indexed tokenId, address sender); // Staking a pass\n  event Unstaked(address indexed _from, uint256 indexed tokenId); // Unstaking a pass\n  event Payout(uint256 indexed treasury); // Payout all stakers\n  event UpdateTreasury(address indexed newAddress); // Change treasure wallet address\n  event SetRareblocksContractAddress(address indexed newAddress); // When a token has added to the rent list\n    event Received(address, uint);\n    \n  constructor() {\n    setRareblocksContractAddress(0x1bb191e56206e11b14117711C333CC18b9861262);\n    treasuryAddress = 0x96E7C3bAA9c1EF234A1F85562A6C444213a02E0A;\n    rareBlocksCommission = 100; // Rareblocks take 10%. Uses base point, so 100 is 10%.\n  }\n\n  \n    receive() external payable {\n        emit Received(msg.sender, msg.value);\n    }\n\n  // Divide by percentage, using base point\n  function divByPercentage(uint256 amount, uint256 proportion) internal pure returns (uint256){\n    // @dev double check this formula, was previously wrong\n    return (amount * 10000) / (10000000 / proportion);\n  }\n\n  // Set RarBlocks contract address\n  function setRareblocksContractAddress(address _rbAddress) public onlyOwner {\n    rareBlocksContractAddress = _rbAddress;\n    rareBlocks = RareBlocksInterface(_rbAddress);\n    emit SetRareblocksContractAddress(_rbAddress);\n  }\n\n  // Change treasury address\n  function updateTreasury(address _newAddress) external onlyOwner {\n    treasuryAddress = _newAddress;\n    emit UpdateTreasury(_newAddress);\n  }\n\n  // Function called when being transfered a ERC721 token\n  // On receival add staking information to struct Stake\n  function onERC721Received( address _from, address, uint256 _tokenId, bytes calldata ) external returns (bytes4) {\n    require(msg.sender == rareBlocksContractAddress, \"Wrong NFT\"); // Make sure only Rareblocks NFT can be staked. msg.sender is always contract address of NFT.\n\n    tokenOwners[_from].push(_tokenId);\n\n    emit Staked(_from, _tokenId, msg.sender);\n    return bytes4(keccak256(\"onERC721Received(address,address,uint256,bytes)\"));\n  }\n\n  // List all tokens staked by address\n  function getTokensStakedByAddress(address _address) public view returns (uint256[] memory) {\n    return tokenOwners[_address];\n  }\n\n  function removeTokenIdFromTokenOwners(uint256 tokenId) internal {\n    for (uint256 i = 0; i < tokenOwners[msg.sender].length; i++) {\n      if (tokenOwners[msg.sender][i] == tokenId) {\n        removeTokenIdFromTokenOwnersByIndex(i);\n      }\n    }\n  }\n\n  function removeTokenIdFromTokenOwnersByIndex(uint256 _index) internal {\n    require(_index < tokenOwners[msg.sender].length, \"index out of bound\");\n\n    for (uint256 i = _index; i < tokenOwners[msg.sender].length - 1; i++) {\n      tokenOwners[msg.sender][i] = tokenOwners[msg.sender][i + 1];\n    }\n    tokenOwners[msg.sender].pop();\n  }\n\n  function removeFromOwnersAddresses(address _address) internal {\n    for (uint256 i = 0; i < ownersAddresses.length; i++) {\n      if (ownersAddresses[i] == _address) {\n        removeFromOwnersAddressesByIndex(i);\n      }\n    }\n  }\n\n  function removeFromOwnersAddressesByIndex(uint256 _index) internal {\n    require(_index < ownersAddresses.length, \"index out of bound\");\n\n    for (uint256 i = _index; i < ownersAddresses.length - 1; i++) {\n      ownersAddresses[i] = ownersAddresses[i + 1];\n    }\n    ownersAddresses.pop();\n  }\n\n  function stakeAndPurchaseTreasuryStock(uint256 _tokenId) public payable {\n    uint256 balance = address(this).balance;\n\n    if(balance > 0 && totalOutstandingShares > 0){ // No divide by 0 error.\n        /// @dev totalOutstandingShares must be added 1, because msg.value is added before body to the balance.\n        uint256 sharePrice = balance / (totalOutstandingShares+1); // Amount of value in treasury per share = share price;\n        require(msg.value >= sharePrice, \"Not enough value to purchase share\");\n    }\n\n    require(rareBlocks.ownerOf(_tokenId) == msg.sender, \"You do not own this token.\" );\n    require(rareBlocks.isApprovedForAll(msg.sender, address(this)) == true, \"You did not approve this contract to transfer.\" );\n\n\n    totalOutstandingShares++; // Increase outstanding shares\n    sharesPerWallet[msg.sender]++; // Increase share wallet owner\n    ownersAddresses.push(msg.sender); // Array of all active stakers\n    tokenOwners[msg.sender].push(_tokenId); // Track tokenIds a wallet has staked\n\n    rareBlocks.safeTransferFrom(msg.sender, address(this), _tokenId); // Transfer token to contract\n\n    emit Staked(address(this), _tokenId, msg.sender);\n  }\n\n  // Unstake token and send back to users wallet\n  function unstakeAccessPass(uint256 _tokenId) external payable {\n    require(tokenOwners[msg.sender].length > 0, \"You haven't staked a token.\");\n    \n    uint256 treasury = address(this).balance;\n    uint256 _totalOutstandingShares = totalOutstandingShares;\n    \n    bool hasTokenStaked = false;\n    for (uint256 i = 0; i < tokenOwners[msg.sender].length; i++) {\n      if (_tokenId == tokenOwners[msg.sender][i]) {\n        hasTokenStaked = true;\n      }\n    }\n\n    require(hasTokenStaked, \"This tokenId has not been staked by you.\");\n\n    // Call variable updates before sending anything to protect from reentrancy vulnerability\n    removeFromOwnersAddresses(msg.sender); // Remove staked tokenId\n    totalOutstandingShares -= 1; // Reduce amount of shares outstanding\n    sharesPerWallet[msg.sender] -= 1; // @dev Remove shares for wallet\n\n    removeTokenIdFromTokenOwners(_tokenId); // Remove staked tokenId\n    rareBlocks.safeTransferFrom(address(this), msg.sender, _tokenId); // Send back token to owner\n\n    if(treasury > 0){ // Only call if theres something to pay out\n      uint256 valuePerShare = treasury / _totalOutstandingShares; // New price per share\n      uint256 totalPayoutPrice = valuePerShare; // Price to pay for selling shares\n\n      uint256 stakerPayoutValue = divByPercentage(totalPayoutPrice, 1000 - rareBlocksCommission); \n      uint256 treasuryPayoutValue = divByPercentage(totalPayoutPrice, rareBlocksCommission);\n\n      (bool successCaller, ) = payable(msg.sender).call{\n        value: stakerPayoutValue\n      }(\"\"); // Pay commission to staker\n      require(successCaller, \"Failed to send Ether to caller\");\n\n      (bool successRareBlocksCommission, ) = payable(treasuryAddress).call{\n        value: treasuryPayoutValue\n      }(\"\"); // Pay commission to staker\n      \n      require(successRareBlocksCommission, \"Failed to send Ether to treasury\");\n\n    }\n    \n    emit Unstaked(msg.sender, _tokenId);\n  }\n\n  function payoutStakers() external payable {\n    uint256 treasury = address(this).balance;\n    require(treasury > 0, \"Treasury is empty\");\n\n    uint256 treasuryValueOnPayout = treasury;\n\n    for (uint256 i = 0; i < ownersAddresses.length; i++) {\n      uint256 shares = sharesPerWallet[ownersAddresses[i]];\n      if (shares > 0) {\n        uint256 valuePerShare = treasuryValueOnPayout / totalOutstandingShares; // New price per share\n        uint256 totalSharesOwned = sharesPerWallet[ownersAddresses[i]]; // Total amount of owned shares\n        uint256 totalPayoutPrice = valuePerShare * totalSharesOwned; // Price to pay for selling shares\n\n        (bool success, ) = payable(ownersAddresses[i]).call{\n          value: divByPercentage(totalPayoutPrice, 1000 - rareBlocksCommission)\n        }(\"\"); // Pay commission to staker\n        require(success, \"Failed to send Ether to address\");\n      }\n    }\n\n    (bool successRareBlocksCommission, ) = payable(treasuryAddress).call{\n      value: address(this).balance\n    }(\"\"); // Send rest of money to treasury\n    require(successRareBlocksCommission, \"Failed to send Ether to Treasury\");\n\n    emit Payout(treasuryValueOnPayout);\n  }\n\n  // Check functions\n  function getTotalOutstandingShares() external view returns (uint256) {\n    return totalOutstandingShares;\n  }\n\n  function getSharesPerWallet(address owner) external view returns (uint256) {\n    return sharesPerWallet[owner];\n  }\n\n  function getAllStakerAddresses() external view returns (address[] memory) {\n    return ownersAddresses;\n  }\n\n  function getSharePrice() external view returns (uint256) {\n      require(totalOutstandingShares > 0, \"No outstanding shares found\");\n        return address(this).balance / totalOutstandingShares;\n  }\n  \n}\n",
  "sourcePath": "/Users/dannypostma/Development/rareblocks/ethereum/staking-pooled/contracts/Stake.sol",
  "compiler": {
    "name": "solc",
    "version": "0.8.10+commit.fc410830.Emscripten.clang"
  },
  "schemaVersion": "3.4.3",
  "updatedAt": "2021-12-20T06:26:42.199Z",
  "networkType": "ethereum",
  "devdoc": {
    "kind": "dev",
    "methods": {
      "owner()": {
        "details": "Returns the address of the current owner."
      },
      "renounceOwnership()": {
        "details": "Leaves the contract without owner. It will not be possible to call `onlyOwner` functions anymore. Can only be called by the current owner. NOTE: Renouncing ownership will leave the contract without an owner, thereby removing any functionality that is only available to the owner."
      },
      "transferOwnership(address)": {
        "details": "Transfers ownership of the contract to a new account (`newOwner`). Can only be called by the current owner."
      }
    },
    "version": 1
  },
  "userdoc": {
    "kind": "user",
    "methods": {},
    "version": 1
  }
}